:020000040800F2
:100000008856002069020008EF6000080D520008C1
:10001000EB6000083D170008238500080000000081
:10002000000000000000000000000000E97E000861
:100030006D19000800000000EB020008F9800008BC
:10004000830200088302000883020008830200087C
:10005000830200088302000883020008830200086C
:10006000830200088302000883020008830200085C
:10007000830200088302000883020008830200084C
:10008000830200088302000883020008830200083C
:100090008302000883020008830200082D1A00086A
:1000A000830200088302000883020008830200081C
:1000B0008981000883020008D582000883020008B5
:1000C00083020008830200088302000883020008FC
:1000D00083020008830200088302000849840008A4
:1000E00071190008830200088302000883020008D7
:1000F00083020008830200088302000883020008CC
:1001000083020008830200088302000883020008BB
:1001100083020008830200088302000883020008AB
:10012000830200088302000883020008830200089B
:10013000830200088302000883020008830200088B
:10014000830200088302000883020008830200087B
:10015000830200088302000883020008830200086B
:10016000830200088302000883020008830200085B
:10017000830200088302000883020008830200084B
:10018000830200088302000800F002F800F05CF827
:100190000AA090E8000C82448344AAF10107DA45E2
:1001A00001D100F051F8AFF2090EBAE80F0013F0D8
:1001B000010F18BFFB1A43F001031847DC4D010083
:1001C000FC4D01000A444FF0000C10F8013B13F005
:1001D000070408BF10F8014B1D1108BF10F8015BA0
:1001E000641E05D010F8016B641E01F8016BF9D193
:1001F00013F0080F1EBF10F8014BAD1C0C1B09D1EA
:100200006D1E58BF01F801CBFAD505E014F8016B5B
:1002100001F8016B6D1EF9D59142D6D370470000ED
:100220000023002400250026103A28BF78C1FBD8FF
:10023000520728BF30C148BF0B6070471FB50EF092
:10024000A0FA1FBD10B510BD00F054FF1146FFF716
:10025000F5FF0DF075FA00F072FF03B4FFF7F2FF3F
:1002600003BC00F073FF00000948804709480047BD
:10027000FEE7FEE7FEE7FEE7FEE7FEE7FEE7FEE756
:10028000FEE7FEE704480549054A064B70470000B3
:10029000218100088901000888500020885600202C
:1002A0008852002088520020EFF3108072B6704709
:1002B00080F3108870471D484FF0FF010170002047
:1002C00080F309881A48012101701A484FF08051C3
:1002D000016062B6FEE717484FF080510160704739
:1002E00014484FF080510160704772B6EFF30980F7
:1002F00028B1203880E8F00F0F490968086000B580
:100300000E4880475DF804EB0D480E490A780270EC
:1003100009480D490A680260106890E8F00F203023
:1003200080F309884EF0040E62B6704722ED00E0BB
:10033000B200002004ED00E0B80000209B6200083D
:10034000A7000020A8000020C000002072B670475F
:1003500062B67047EFF3108072B6704780F3108872
:100360007047B0FA80F0704790FAA0F0704730BF45
:10037000704720BF70470000DFED2E0AB5EEC00ABF
:1003800060EE200ABDEEE01A11EE100AF1EE10FA4E
:1003900038BF401E00EE100ADFED271AF7EE005AB4
:1003A000B8EEC00ADFED274A244930EEC01A21EE2C
:1003B000210AFCEEC00A10EE900A00EE900A01EB52
:1003C0008000B8EE600ADFED1E0AF0EC012A11EEA3
:1003D000210AF6EE001AB0EC013AF0EC013A20EEF8
:1003E000001A20EE216A40EE615A20EE245A21EED6
:1003F000212A90ED004A00EE602A66EE010A40EEE6
:10040000400A05EE412A70EEA55AF0EE400A41EE90
:10041000210A46EE410A25EE011A00EE641A22EE88
:10042000820A63EEA00A03EE250A44EE010A30EECA
:10043000200A704783F9223E00008043E8E8000864
:10044000ABAAAA3EABAA2A3E9FED3A0A5FEA920CFB
:1004500053D000BFB0EC011A0B1DF0EC010A21EEE5
:10046000011A00EEA01AB5EEC01AF1EE10FAC6BFDE
:10047000F1EEC10AC1ED000A81ED000AF0EC010ABB
:10048000191DB0EC011A60EEA00A41EE010AF5EE6A
:10049000C00AF1EE10FAC6BFF1EEE00AC3ED000AA1
:1004A00083ED000AB0EC011A0B1DF0EC010A21EEFD
:1004B000011A00EEA01AB5EEC01AF1EE10FAC6BF8E
:1004C000F1EEC10AC1ED000A81ED000AB0EC011A9B
:1004D000191DF0EC010A21EE011A00EEA01AB5EE8A
:1004E000C01AF1EE10FAC6BFF1EEC10AC3ED000A60
:1004F00083ED000ABCF1010CACD112F0030208BF7D
:10050000704700BFF0EC010A0B46B0EC011A091D60
:1005100060EEA00A41EE010AF5EEC00AF1EE10FA13
:10052000C6BFF1EEE00AC3ED000A83ED000A521ED9
:10053000E8D17047000000002DE9F00700EBC10989
:10054000DDE90778D0F800A0C9F800A007EB011496
:10055000D0F804A0251FA9F10406C9F804A003EBF4
:10056000C80907F1080C00F1080402EBC8024B1E91
:1005700031D000BFF2EC011A96ED002A92ED001A7C
:1005800002EBC802B4EC010A121FF4EC012A60EE7F
:10059000210A20EE010A32EE823A02EEA10AD9EDDA
:1005A000001A43EE410A09EBC80902EE610A16ED92
:1005B000012A083E42EE210A02EE410AECEC010A51
:1005C000ACEC010AB1EE400A85ED000A45ED010AE6
:1005D000083D5B1ECED190ED000AD0ED010A07EB7D
:1005E000C10130EE600A81ED000A9FED5D0A81EDE8
:1005F000010AD0ED000A90ED011A70EE810AC7EDF4
:10060000000A87ED010ABDE8F007704770B400EBFF
:10061000C105DDE903C42D1D002904BF70BC70476E
:10062000F2EC011A95ED002A92ED001A02EBC402D9
:10063000B0EC010A121FF0EC012A60EE210A20EE54
:10064000410A32EE823A02EEA10AD3ED001A43EEDD
:10065000010A03EBC40302EE610A15ED012A083D0D
:10066000491E42EE210A02EE010AECEC010AACEC52
:10067000010AD5D170BC70472DE9F04305464469A5
:10068000807983B00F461646012809D0A3892188B6
:100690003846626800F036F9E87901284ED053E018
:1006A000AA88D5E9030307EBC20CD5F808803146C8
:1006B0000CF1040C5AB300BFB0EC011A9CED002AF7
:1006C000D0ED001A00EBC800B7EC010A001FF7ECF0
:1006D000012A521E60EE010A20EE610A32EE823AD1
:1006E00002EE810A93ED001A43EE210A03EBC803E0
:1006F00002EE410A1CED012AACF1080C42EE010A9F
:1007000002EE210AE1EC010AA1EC010AD4D194ED38
:10071000040AA38921883046626800F095FAE879D6
:1007200001281CBF03B0BDE8F083E2892188A368DB
:1007300003B03046BDE8F04300F08CB8E289218870
:100740003846A36800F086F8A868CDE90060D5E9CE
:100750000323A9883846FFF7EFFE03B0BDE8F08316
:100760000000000070B592B2DDF810C055080260BC
:100770008580184EC66006F50056DBB2066100247F
:10078000837180F807C0802A04BF102282600BD0DA
:10079000B2F5007F08BF042212D0B2F5006F14BF7B
:1007A0004FF0FF3401220BD0002B8C4641614FF0FB
:1007B000000307D001222946604600F015FC06E040
:1007C0008260F1E700222946604600F00DFC2046D9
:1007D00070BD0000F4EC000870B40025B0EC010A14
:1007E000A1F1010CF0EC010AB4EEE00AF1EE10FA0E
:1007F0003CBFB0EE600A0125ACF10104A446B4F19F
:10080000004F0ED3F0EC010AB4EEE00AF1EE10FA5C
:100810003CBFB0EE600AA1EB0C05BCF1010CF1D1BC
:1008200013E0002CC8BF00260FDD00BFF0EC010A6A
:10083000B4EEE00AF1EE10FA04D2ACEB0605B0EE2D
:10084000600A4D1B761C641EF0D182ED000A1D600B
:1008500070BC70472DE9F0014E0801244FF0000CE8
:1008600004EB51076146A6F102082CE061452AD24B
:1008700000EBCC0500EBC104D5ED000A94ED000AB5
:10088000C4ED000A85ED000AD5ED010A94ED010AD8
:10089000C4ED010A85ED010A0CEB0705CC1900EB4C
:1008A000C50500EBC404D5ED000A94ED000AC4EDC3
:1008B000000A85ED000AD5ED010A94ED010AC4EDA8
:1008C000010A85ED010A00EBC104B44400EBCC0C35
:1008D00094ED020ADCED000A891CC4ED020A8CEDDD
:1008E000000A94ED030ADCF80450E5608CED010A7F
:1008F000B3F800C089B203EB42034145B6D9BDE865
:10090000F00170472DE9F04F4FEA910C4FF00008CD
:100910004746644608EB0C0505EB0C0909EB0C0691
:1009200000EBC80A00EBC9099AED000AD9ED000AEC
:1009300099ED012A00EBC50530EE201A30EE600A71
:10094000DAED010A00EBC60608F1010870EE821A22
:1009500070EEC20A95ED002AD6ED002A641E32EE32
:10096000222A71EE022A31EE421ACAED002A95EDD2
:10097000012AD6ED012A32EE222A71EE822A71EE88
:10098000C21ACAED012A95ED012AD6ED012A96ED8B
:10099000003A4FEA470A32EE622AD5ED002A02EB0E
:1009A000CA0B72EEC32A9BED003ADBED013A21EE51
:1009B000034A01EEA34A61EE831A41EE631A85ED04
:1009C000004A30EE021A30EE420AC5ED011A02EB7F
:1009D000C70570EEE21A95ED002A70EEA20AD5ED79
:1009E000012A21EE023A0AEB070502EBC5051F4476
:1009F00001EEA23A61EE821A41EE621A89ED003AE6
:100A0000C9ED011AD5ED001A95ED011A20EE212A43
:100A100000EE812A60EEA10A40EE410A86ED002A2E
:100A2000C6ED010A7FF476AF9B044FEA134BE6460E
:100A3000BCF1040F7DD9E0464FEA9C0C4FF0000951
:100A4000CA46BCF1000F75D94FEA490404EB09030B
:100A500002EBC90502EBC40402EBC30395ED001AD7
:100A6000D5ED011A94ED000AD4ED010A93ED002AA8
:100A7000D3ED012AD94453468A4573D203EB0C04C3
:100A800004EB0C0606EB0C0500EBC30700EBC606F7
:100A900097ED003AD6ED003A96ED015A00EBC4040A
:100AA00073EE234A33EE633AD7ED013A00EBC50506
:100AB00033EE854A73EEC53A94ED005AD5ED005AEF
:100AC00035EE255A74EE855A74EEC54AC7ED005AC4
:100AD00094ED015AD5ED015A35EE255A74EE055ABA
:100AE00034EE454AC7ED015A94ED015AD5ED015A4D
:100AF00095ED006A35EE655AD4ED005A75EEC65A8A
:100B000024EE806A04EE206A24EE004A04EEE04AF5
:100B100084ED006A73EEE54A73EEA53A84ED014A6E
:100B200033EE054A33EE453A24EE015A04EEA15A5B
:100B300001E026E01BE064EE814A86ED005A434462
:100B40008B4244EE614A23EE024A03EEA24A63EE70
:100B5000823AC6ED014A43EE623A85ED004AC5EDA0
:100B6000013A8BD30AF1010AE245FFF46DAF4FEA77
:100B70008B434FEA9E0E4FEA134BBEF1040F3FF634
:100B80005AAFA1EB0C0100224B1C4FEA9C04002B36
:100B90008CBF1F46BDE8F08F11190E19331900EBF9
:100BA000C20500EBC60695ED000AD6ED000A95EDEC
:100BB000012A96ED011A70EE201A70EE600A32EEEC
:100BC000010A00EBC10100EBC30332EE411A91EDC3
:100BD000002AD3ED002A6244974232EE222A71EEB7
:100BE000822A31EEC22AC5ED002AD1ED011AD3EDD9
:100BF000012A71EEA21A70EE212AC5ED012A70EECB
:100C0000612A91ED010AD3ED011A93ED003A70EEDD
:100C1000611A91ED000A81ED002AC1ED012A30EE42
:100C2000430A30EEA12A70EEE10A71EE401A31EE6D
:100C3000000A86ED002AC6ED011AC3ED000A83ED15
:100C4000010AA9D8BDE8F08F2DE9F04F4FEA910CC9
:100C50004FF000084746644608EB0C0505EB0C0A0C
:100C60000AEB0C0600EBC80900EBCA0AD9ED000A32
:100C70009AED001ADAED012A00EBC50570EE811A33
:100C800070EEC10A99ED011A00EBC60608F10108E1
:100C900031EE222A31EE621AD5ED002A96ED003AA5
:100CA000641E72EE832A31EEA23A71EEE21A89EDE9
:100CB000003AD5ED012A96ED013A72EE832A32EE22
:100CC000223A32EE622A89ED013AD5ED012A96EDFB
:100CD000013AD6ED003A4FEA470972EEC32A95ED84
:100CE000003A02EBC90B33EE633ADBED003A9BEDC1
:100CF000014A61EEA34A42EE444A22EE232A01EE63
:100D0000842AC5ED004A70EEE21A70EEA20A85ED63
:100D1000012A02EBC70531EE032AD5ED002A31EE98
:100D2000431A95ED013A61EEA23A09EB070502EB91
:100D3000C5051F4442EE433A22EE222A01EE832AE1
:100D4000CAED003A8AED012AD5ED001A95ED012A87
:100D500060EEA12A41EE422A21EE211A00EE821A0B
:100D6000C6ED002A86ED011A7FF476AF9B044FEAA8
:100D7000134BE646BCF1040F7DD9E0464FEA9C0CCC
:100D80004FF00009CA46BCF1000F75D94FEA49047B
:100D900004EB090302EBC90502EBC40402EBC30335
:100DA000D5ED001A95ED012AD4ED000A94ED011A53
:100DB000D3ED002A93ED013AD94453468A4573D2C4
:100DC00003EB0C0404EB0C0606EB0C0500EBC3076D
:100DD00000EBC606D7ED003A96ED004AD6ED015A73
:100DE00000EBC40433EE845A73EEC43A97ED014A23
:100DF00000EBC50574EE254A34EE654AD4ED005A81
:100E000095ED006A75EE865A35EE256A35EE655A1F
:100E100087ED006AD4ED015A95ED016A75EE865AA8
:100E200034EEA56A74EEE54A87ED016AD4ED015A05
:100E300095ED016AD5ED006A75EEC65A94ED006A2B
:100E400036EE666A65EE206A44EEC16A64EEA04A38
:100E500045EE014AC4ED006A34EE065A34EE464AC5
:100E6000C4ED014A73EEE54A73EEA53A64EEA15A69
:100E700045EE425A01E026E01BE025EE215AC6ED80
:100E8000005A43448B4204EE825A63EEA24A44EE77
:100E9000434A24EE224A86ED015A03EE834AC5ED09
:100EA000004A85ED014A8BD30AF1010AE245FFF4BD
:100EB0006DAF4FEA8B434FEA9E0E4FEA134BBEF1E4
:100EC000040F3FF65AAFA1EB0C0100224B1C4FEA76
:100ED0009C06002B8CBF1F46BDE8F08F91198D1921
:100EE000AB1900EBC20400EBC505D4ED000AD5ED4B
:100EF000001AD4ED012A95ED012A30EEA11A70EE08
:100F0000E11A72EE820A00EBC10100EBC30332EE7C
:100F1000C22AD1ED002A93ED003A6244974272EE64
:100F2000832A31EE223A71EE622A23EE003A62EE13
:100F3000802A84ED003A91ED011A93ED013A31EEE9
:100F4000031A30EE813A23EE003A84ED013A30EE96
:100F5000C13AD1ED010A93ED011AD3ED003A30EE1A
:100F6000C11AD1ED000AC1ED002A63EE002A70EE2D
:100F7000E30AC1ED012A71EEC12A31EE811A72EE47
:100F8000201A72EE600A22EE802A21EE001A61EE2B
:100F9000801A85ED002A60EE800AC5ED011A83ED06
:100FA000001AC3ED010A99D8BDE8F08F30B50446A8
:100FB0000D4680782188A389626801280DD02846D3
:100FC000FFF7A0FCE078012818BF30BDE289218836
:100FD0002846A368BDE830403CE494ED040A284666
:100FE000FFF732FEEEE7000010B401801B4C4460B6
:100FF00082704FF0000CC370102925D040291BD0FF
:10100000B1F5807F10D0B1F5806F18BF4FF0FF3C75
:1010100002D010BC6046704701218181C181104916
:101020009FED100A816016E004218181C1810E4983
:101030009FED0E0A81600EE010218181C1810C4973
:101040009FED0C0A816006E040218181C1810A493F
:101050009FED0A0A816080ED040ADAE7F42C0108AA
:10106000F44C01080000803AFA4C01080000803B73
:10107000124D01080000803C724D01080000803DC7
:1010800010B5203AC0F00B80B1E81850203AA0E823
:101090001850B1E81850A0E81850BFF4F5AF5FEA57
:1010A000027C24BFB1E81850A0E8185044BF18C90A
:1010B00018C0BDE810405FEA827C24BF51F8043BB1
:1010C00040F8043B08BF7047D20728BF31F8023B05
:1010D00048BF11F8012B28BF20F8023B48BF00F899
:1010E000012B7047704770477047000000487047F9
:1010F000285000207546FFF7F9FFAE460500694607
:10110000534620F00700854618B020B5FFF7BAF81F
:10111000BDE820404FF000064FF000074FF00008F8
:101120004FF0000B21F00701AC46ACE8C009ACE879
:10113000C009ACE8C009ACE8C0098D467047044658
:10114000AFF300802046FFF788F870470149182068
:10115000ABBEFEE72600020010B5002301221146B7
:10116000034800F00BF9024800F065F910BD0000DB
:101170000020014010B5002301220C21034800F09B
:10118000FDF8024800F057F910BD000000200140B2
:1011900010B5002301220421034800F0EFF80248B3
:1011A00000F049F910BD00000020014010B50023F7
:1011B00001220721034800F0E1F8024800F03BF962
:1011C00010BD00000020014000B58DB001211F4876
:1011D00006F05AFE0120019003208DF8080000203F
:1011E0008DF80B0001A91A4800F0B8FD002003900B
:1011F00004900590069003A800F064F80020079082
:101200008DF8200001208DF82100002009900B901E
:1012100001208DF8300007A90E4800F085F8002362
:10122000012208210B4800F0A9F80121094800F02B
:1012300070F80121074800F061F80121054800F02D
:1012400035F8044800F0F7F80DB000BD020040008A
:10125000000402400021014010B5002301220A21B0
:10126000034800F08BF8024800F0E5F810BD0000DC
:101270000022014010B5002301220B21034800F099
:101280007DF8024800F0D7F810BD000000220140B0
:1012900010B5002301220C21034800F06FF802482A
:1012A00000F0C9F810BD00000022014021B18268A1
:1012B00042F00102826003E0826822F00102826053
:1012C0007047000000210A4A11680A4A01EA020137
:1012D000D0E9002342EA0302836842EA0302C368BA
:1012E00042EA030242EA0101034AC2F804137047CA
:1012F00004230140E030FCFF0020014021B182685E
:1013000042F48072826003E0826822F4807282601C
:10131000704721B1826842F40072826003E0826803
:1013200022F400728260704730B50246002000232C
:101330005068104C20400D790C6844EA0524204385
:10134000506090680C4C2040D1E903542C438D68C8
:101350002C434D7944EA450420439060D06A20F440
:1013600070000C7D641EE4B2234340EA0350D06257
:1013700030BD0000FFFEFFFCFDF7FFC070B5044666
:101380008C4600200021BCF1090F11DDE068ACF1B2
:101390000A0505EB4506072505FA06F18843ACF179
:1013A0000A0505EB450503FA05F10843E0600CE08A
:1013B00020690CEB4C06072505FA06F188430CEB77
:1013C0004C0503FA05F108432061072A0FDA606B28
:1013D000551E05EB85061F2505FA06F18843551EA7
:1013E00005EB85050CFA05F10843606322E00D2A40
:1013F0000FDA206BD51F05EB85061F2505FA06F1D0
:101400008843D51F05EB85050CFA05F108432063D9
:1014100010E0E06AA2F10D0505EB85061F2505FA2F
:1014200006F18843A2F10D0505EB85050CFA05F1DF
:101430000843E06270BD816841F08041816070477F
:1014400010B503F011FF10BD70B50446002603F07F
:10145000D7FF2546E11704EB11610912A02202EB28
:101460004101C8B203F08AFF04F022F8E11704EB4F
:1014700011610912A4EB0121C8B203F07FFF04F04F
:1014800017F803F0BDFFA12003F078FF04F010F877
:10149000002003F039FF064603F0DEFF304670BD42
:1014A00070B504460E4603F0ABFF2546E11704EB8A
:1014B00011610912A02202EB4101C8B203F05EFFE4
:1014C00003F0F6FFE11704EB11610912A4EB01210F
:1014D000C8B203F053FF03F0EBFF304603F04EFFBA
:1014E00003F0E6FF03F0B8FF0A200CF007F870BD28
:1014F0002DE9F84305F0B2FA8648007801287CD13E
:101500004103854800F072FC002861D183480168DE
:101510008348007807F020FC0646012E31D181482F
:1015200001697F48007807F017FC0546EDB97D4852
:1015300041687B48007807F00FFC80467948816855
:101540007748007807F008FC81467648C1687448FF
:10155000007807F001FC07464B464246704800976A
:1015600001787148007804F083FB012D09D1022035
:101570000346024600906A4801786B48007804F000
:1015800077FB67480078401C6549087000BF4FF43E
:101590000051614800F02AFC0028F8D0604800782B
:1015A000202802DD01205E4908705D4804780CE0C7
:1015B0005A480168204607F0CFFB0646012E02D1AB
:1015C0005748047003E0601CC4B2202CF0DD00BF5B
:1015D0004FF40061504800F009FC002863D14F48E7
:1015E00001684F48007807F0B7FB0646012E33D15B
:1015F0004C4801694A48007800E088E007F0ACFBFD
:101600000546EDB9474841684548007807F0A4FB16
:101610008046444881684248007807F09DFB814637
:101620004048C1683E48007807F096FB07464B46A5
:1016300042463B48009701783B48007804F018FB8D
:10164000012D09D10220034602460090344801785A
:101650003548007804F00CFB31480078401E3049D2
:10166000087000BF4FF400612B4800F0BFFB00285A
:10167000F8D02B480078012802DA20202849087089
:10168000274804780CE025480168204607F064FBF1
:101690000646012E02D12248047003E0601EC4B247
:1016A000012CF0DA00BF1F4801691D48007807F0DF
:1016B00053FB05461B4841681948007807F04CFB6E
:1016C0008046184881681648007807F045FB814637
:1016D0001448C1681248007807F03EFB07464B46A5
:1016E00042460F48009701780F48007804F0C0FA8E
:1016F00032200BF003FF4B46424609480097017821
:101700000948007804F07EF832200BF0F7FEBDE8BF
:10171000F883000028010020000C02407000002027
:1017200068000020300100206900002010B504F09E
:1017300061FF10BD10B504F075FF10BD00BFFEE7DE
:1017400070B506460C46012C26DB062C24DC002551
:1017500020E016F0010F05D04FF400713F4800F073
:1017600050FB04E04FF400713C4800F048FB4FF49C
:1017700080713A4800F043FB761004200BF0E2FE43
:101780004FF48071354800F03CFB04200BF0DAFE8A
:10179000681CC5B20C2DDCDB012C0DD101213048B9
:1017A00000F02FFB04200BF0CDFE01212C4800F0AF
:1017B00026FB04200BF0C6FE022C0DD10221284886
:1017C00000F01FFB04200BF0BDFE0221244800F0B6
:1017D00016FB04200BF0B6FE032C0DD1042120488B
:1017E00000F00FFB04200BF0ADFE04211C4800F0BC
:1017F00006FB04200BF0A6FE042C0DD1082118488E
:1018000000F0FFFA04200BF09DFE0821144800F0C0
:10181000F6FA04200BF096FE052C0DD1102110488D
:1018200000F0EFFA04200BF08DFE10210C4800F0C0
:10183000E6FA04200BF086FE062C0DD12021084884
:1018400000F0DFFA04200BF07DFE2021044800F0B8
:10185000D6FA04200BF076FE70BD000000040240B2
:10186000000C02401CB50121022006F00DFB4FF4D4
:101870004070009001208DF8040000208DF80600D3
:1018800002208DF805006946104800F067FA012132
:10189000082006F0F9FA3F20009001208DF804009E
:1018A00000208DF8060002208DF8050069460848E2
:1018B00000F054FA012406E0214640F20140FFF70F
:1018C0003FFF601CC4B2052CF6DD1CBD00040240C5
:1018D000000C024070B500250DE0002407E0002058
:1018E000A040C1B2284606F045FE601CC4B2042CDC
:1018F000F5DB681CC5B2202DEFDB70BD21B102689D
:1019000042F00102026003E0026822F0010202607C
:101910007047000010B500220268134B1A40CC68D3
:101920000B6823434C6923438C692343CC692343CD
:101930000C6A23434C6A23438C6A23434C6B234336
:101940008C6B23431A430260426922F00702D1E9FB
:101950000B3423431A4342610B6943604B68836035
:101960008B68C36010BD00003F801CF07047000012
:1019700008B504F009FC4FF4805000F00DF9F0B107
:101980002648007801281AD125480078012816D168
:101990000021244800780CF00BF8002001231A469F
:1019A0000090204801781E48007804F061F900207A
:1019B0001C49097801EB41011B4A114448704FF45E
:1019C000805000F055F84FF4804000F0E5F8F0B199
:1019D0001248007801281AD111480078012816D140
:1019E0000121104800780BF0E3FF002001231A4684
:1019F00000900C4801780A48007804F039F9012079
:101A00000849097801EB4101074A114448704FF435
:101A1000804000F02DF804F0C9FB08BD280100202B
:101A200069000020680000204401002010B504F087
:101A3000ABFB4FF4807000F0AFF84FF4807000F013
:101A400017F84FF4007000F0A7F840B14FF47A7027
:101A50000BF078FD4FF40071044800F0C7F94FF423
:101A6000007000F005F804F0A1FB10BD000C02406E
:101A70000149086070470000143C014000B585B082
:101A80000121880306F020FA0121102006F0FCF95C
:101A90004FF48070039000208DF8100003A939489E
:101AA00000F05CF90821042006F020FA4FF4807061
:101AB000019000208DF808000C208DF8090001200D
:101AC0008DF80A0001A800F07BF817208DF80000BF
:101AD00002208DF801008DF8020001208DF803002E
:101AE000684604F00BFB4FF4807000F04DF80C21B9
:101AF000032006F0FBF94FF48050019000208DF890
:101B000008000C208DF8090001208DF80A0001A8BA
:101B100000F056F828208DF8000001208DF8010013
:101B20008DF802008DF80300684604F0E7FA4FF4E0
:101B3000805000F029F80E21032006F0D7F94FF469
:101B40008040019000208DF808000C208DF80900DD
:101B500001208DF80A0001A800F032F828208DF845
:101B6000000001208DF801008DF802008DF80300BF
:101B7000684604F0C3FA4FF4804000F005F805B061
:101B800000BD000000100240024909680143014AFB
:101B900011607047103C0140014600200022074BB5
:101BA0001B6803EA0102054B14331B680B4202D089
:101BB0000AB1012000E0002070470000003C014015
:101BC000002123498279002A3AD00A461268036824
:101BD0009A430B461A600A1D126803689A430B1D4C
:101BE0001A60027911440A6803681A430A60184AA5
:101BF0000832126803689A43154B08331A601A1D9D
:101C0000126803689A43124B0C331A604279102A07
:101C10000ED11A1F126803681A430D4B08331A605D
:101C20001A1D126803681A43094B0C331A600DE041
:101C30000749427911440A6803681A430A6005E0BB
:101C4000027911440A6803689A430A6070470000E9
:101C5000003C01401CB50121082006F015F94BF6A7
:101C60004070009001208DF8040000208DF80600DF
:101C700003208DF8050001208DF8070069463348E0
:101C800000F06CF80121042006F0FEF841F6F07037
:101C9000009001208DF8040002208DF805006946AF
:101CA0002B4800F05BF80121084606F0EDF80C2007
:101CB000009001208DF8040002208DF8050069468F
:101CC000244800F04BF80121022006F0DDF8022044
:101CD000009001208DF8040002208DF8050069466F
:101CE0001D4800F03BF80420009001208DF804000E
:101CF00002208DF805006946174800F02FF80820EB
:101D0000009001208DF8040002208DF8050069463E
:101D1000114800F023F803F049FAFFF791FB03F0B4
:101D200037FDFFF79FFD41F61F4141F2873006F076
:101D3000E5FA41F61F4141F2873006F09BFAFFF7C2
:101D40009DFE03F025FCFFF73FFA1CBD000C02408E
:101D500000080240000002400004024070B50A463C
:101D6000002100238C4600BF3DE0012404FA01F36A
:101D7000146804EA030C9C4534D104684E00032522
:101D8000B540AC43046014794D00AC4005682C4369
:101D900004601479012C02D01479022C16D18468C5
:101DA0004E000325B540AC43846054794D00AC40EF
:101DB00085682C438460446801258D40AC434460B1
:101DC000446895798D40ADB22C434460C4684E00A0
:101DD0000325B540AC43C460D4794D00AC40C56820
:101DE0002C43C460491C1029BFD370BD024600209B
:101DF00013690B4201D0012000E0002070474183AD
:101E00007047018370470000F0B58BB00446142280
:101E100026A106A8FFF734F9142229A101A8FFF78B
:101E20002FF901211C2006F0A5FB01211F2006F03F
:101E3000A1FB0121192006F09DFB2648007818B966
:101E40000A211F2006F096FB22480078012803D1C2
:101E50000C211F2006F08EFB642094FBF0F0C5B22D
:101E6000642094FBF0F100FB11400A2190FBF1F09B
:101E7000C6B20A2094FBF0F100FB1140C7B206A8DD
:101E8000022212FB0501082006F04EFB06A80222E2
:101E900012FB06010A2006F047FB01A8022212FBF2
:101EA00007010C2006F040FB0BB0F0BD050F00064B
:101EB000060B020F0306030D070D0007070F030FA4
:101EC0000D0F08060E0B0A0F0B060B0D0F0D080762
:101ED0000F0F0B0F280100202DE9F04F9BB0044697
:101EE0000D4616461422CCA10FA8FFF7C9F81422FC
:101EF000CEA10AA8FFF7C4F81422D1A105A8FFF7C4
:101F0000BFF81422D3A16846FFF7BAF801211C20BC
:101F100006F030FB01211F2006F02CFBD248007890
:101F200018B90821182006F025FBCF4800780128B1
:101F300003D10C21182006F01DFBCB4800780228A5
:101F400003D10A21182006F015FBC74800780328A2
:101F500003D10921182006F00DFB08211B2006F0F3
:101F600009FB4FF47A7094FBF0F0C0B21A904FF472
:101F70007A7094FBF0F100FB1140642190FBF1F0CA
:101F8000C0B21990642094FBF0F100FB11400A21CB
:101F900090FBF1F0C0B218900A2094FBF0F100FB26
:101FA0001140C0B21790B1480078012809D10FA89C
:101FB00002211A9A11FB02030A461946162006F05E
:101FC000B3FAAA48007818B90221172006F0D2FA0D
:101FD00005A90222199812FB00131946142006F0D5
:101FE000A3FA0FA90222189812FB00131946122017
:101FF00006F09AFA0FA90222179812FB001319464D
:10200000102006F091FA4FF47A7095FBF0F0C0B210
:1020100016904FF47A7095FBF0F100FB115064219B
:1020200090FBF1F0C7B2642095FBF0F100FB11507A
:102030000A2190FBF1F000F0FF080A2095FBF0F177
:1020400000FB115000F0FF091698002825DD0FA8AD
:102050000221169A11FB02030A4619460E2006F0C9
:1020600063FA0AA8022111FB07030A461946082051
:1020700006F05AFA0AA8022111FB08030A4619467B
:102080000A2006F051FA6846022111FB09030A46AC
:1020900019460C2006F048FA2FE0002F1BDD0AA895
:1020A000022111FB07030A461946082006F03CFAF4
:1020B0000AA8022111FB08030A4619460A2006F065
:1020C00033FA6846022111FB09030A4619460C201F
:1020D00006F02AFA11E00AA8022111FB08030A46B9
:1020E00019460A2006F020FA6846022111FB09036E
:1020F0000A4619460C2006F017FA4FF47A70B6FB20
:10210000F0F0C0B215904FF47A70B6FBF0F100FB1E
:1021100011606421B0FBF1F000F0FF0A6420B6FB0F
:10212000F0F100FB11600A21B0FBF1FB0A20B6FBC5
:10213000F0F100FB116014904D48007818B90A21A5
:102140001F2006F017FA4A480078012803D10C2115
:102150001F2006F00FFA1598002826DD0AA8022194
:10216000159A11FB02030A461946002006F0DCF915
:102170000AA8022111FB0A030A461946022006F0AA
:10218000D3F90AA8022111FB0B030A4619460420C1
:1021900006F0CAF90AA80221149A11FB02030A46A2
:1021A0001946062006F0C0F932E0BAF1000F1CDD36
:1021B0000AA8022111FB0A030A461946022006F06A
:1021C000B3F90AA8022111FB0B030A4619460420A1
:1021D00006F0AAF90AA80221149A11FB02030A4682
:1021E0001946062006F0A0F912E00AA8022111FB08
:1021F0000B030A461946042006F096F90AA80221A4
:10220000149A11FB02030A461946062006F08CF9BF
:102210001BB0BDE8F08F00000F0506000B060F0293
:1022200006030D030D0707000F070F03050F000638
:10223000060B020F0306030D070D0007070F030F20
:102240000F0D06080B0E0F0A060B0D0B0D0F0708DE
:102250000F0F0F0B0D0F08060E0B0A0F0B060B0DC1
:102260000F0D08070F0F0B0F570000205F00002015
:10227000280100202DE9F04F9BB004460D4616467C
:102280001422CCA10FA8FEF7FBFE1422CEA10AA8AF
:10229000FEF7F6FE1422D1A105A8FEF7F1FE1422E6
:1022A000D3A16846FEF7ECFE01211C2006F062F97E
:1022B00001211F2006F05EF90A211B2006F05AF9C1
:1022C000D048007818B90021182006F053F9CD48FD
:1022D0000078012803D10421182006F04BF9C948E1
:1022E0000078022803D10221182006F043F9C548DE
:1022F0000078032803D10121182006F03BF94FF4A0
:102300007A7094FBF0F0C0B21A904FF47A7094FB9C
:10231000F0F100FB1140642190FBF1F0C0B2199084
:10232000642094FBF0F100FB11400A2190FBF1F0D6
:10233000C0B218900A2094FBF0F100FB1140C0B22B
:102340001790B1480078012809D10FA802211A9AE4
:1023500011FB02030A461946162006F0E5F8AA48C2
:10236000007818B90221172006F004F905A9022205
:10237000199812FB00131946142006F0D5F80FA97E
:102380000222189812FB00131946122006F0CCF80E
:102390000FA90222179812FB00131946102006F00D
:1023A000C3F84FF47A7095FBF0F0C0B216904FF47A
:1023B0007A7095FBF0F100FB1150642190FBF1F075
:1023C000C7B2642095FBF0F100FB11500A2190FB8D
:1023D000F1F000F0FF080A2095FBF0F100FB11502E
:1023E00000F0FF091698002825DD0FA80221169A93
:1023F00011FB02030A4619460E2006F095F80AA8BA
:10240000022111FB07030A461946082006F08CF842
:102410000AA8022111FB08030A4619460A2006F001
:1024200083F86846022111FB09030A4619460C206D
:1024300006F07AF82FE0002F1BDD0AA8022111FB1D
:1024400007030A461946082006F06EF80AA802217A
:1024500011FB08030A4619460A2006F065F868468B
:10246000022111FB09030A4619460C2006F05CF80C
:1024700011E00AA8022111FB08030A4619460A20A6
:1024800006F052F86846022111FB09030A46194674
:102490000C2006F049F84FF47A70B6FBF0F0C0B2A9
:1024A00015904FF47A70B6FBF0F100FB11606421D7
:1024B000B0FBF1F000F0FF0A6420B6FBF0F100FB86
:1024C00011600A21B0FBF1FB0A20B6FBF0F100FB22
:1024D000116014904D48007818B90A211F2006F0A9
:1024E00049F84A480078012803D10C211F2006F042
:1024F00041F81598002826DD0AA80221159A11FB3B
:1025000002030A461946002006F00EF80AA8022126
:1025100011FB0A030A461946022006F005F80AA82C
:10252000022111FB0B030A461946042005F0FCFFAB
:102530000AA80221149A11FB02030A461946062032
:1025400005F0F2FF32E0BAF1000F1CDD0AA802210B
:1025500011FB0A030A461946022005F0E5FF0AA806
:10256000022111FB0B030A461946042005F0DCFF8B
:102570000AA80221149A11FB02030A4619460620F2
:1025800005F0D2FF12E00AA8022111FB0B030A4654
:102590001946042005F0C8FF0AA80221149A11FB6D
:1025A00002030A461946062005F0BEFF1BB0BDE82F
:1025B000F08F00000F0506000B060F0206030D0347
:1025C0000D0707000F070F03050F0006060B020F8C
:1025D0000306030D070D0007070F030F0F0D060875
:1025E0000B0E0F0A060B0D0B0D0F07080F0F0F0B2D
:1025F0000D0F08060E0B0A0F0B060B0D0F0D08072B
:102600000F0F0B0F570000205F0000202801002053
:102610002DE9F04F9BB004460D4616461422CCA17E
:102620000FA8FEF72DFD1422CEA10AA8FEF728FD63
:102630001422D1A105A8FEF723FD1422D3A16846D8
:10264000FEF71EFD01211C2005F094FF01211F2033
:1026500005F090FF0C211B2005F08CFFD04800787E
:1026600018B90021182005F085FFCD480078012811
:1026700003D10421182005F07DFFC9480078022805
:1026800003D10221182005F075FFC5480078032802
:1026900003D10121182005F06DFF4FF47A7094FBEF
:1026A000F0F0C0B21A904FF47A7094FBF0F100FB96
:1026B0001140642190FBF1F0C0B21990642094FBAA
:1026C000F0F100FB11400A2190FBF1F0C0B218902C
:1026D0000A2094FBF0F100FB1140C0B21790B14802
:1026E0000078012809D10FA802211A9A11FB0203D0
:1026F0000A461946162005F017FFAA48007818B9AF
:102700000221172005F036FF05A90222199812FBB5
:1027100000131946142005F007FF0FA9022218988C
:1027200012FB00131946122005F0FEFE0FA902222B
:10273000179812FB00131946102005F0F5FE4FF410
:102740007A7095FBF0F0C0B216904FF47A7095FB5A
:10275000F0F100FB1150642190FBF1F0C7B264204E
:1027600095FBF0F100FB11500A2190FBF1F000F015
:10277000FF080A2095FBF0F100FB115000F0FF0963
:102780001698002825DD0FA80221169A11FB0203D6
:102790000A4619460E2005F0C7FE0AA8022111FBC1
:1027A00007030A461946082005F0BEFE0AA80221C2
:1027B00011FB08030A4619460A2005F0B5FE6846D3
:1027C000022111FB09030A4619460C2005F0ACFE54
:1027D0002FE0002F1BDD0AA8022111FB07030A4688
:1027E0001946082005F0A0FE0AA8022111FB0803E3
:1027F0000A4619460A2005F097FE6846022111FB99
:1028000009030A4619460C2005F08EFE11E00AA8BD
:10281000022111FB08030A4619460A2005F084FE2E
:102820006846022111FB09030A4619460C2005F0EF
:102830007BFE4FF47A70B6FBF0F0C0B215904FF407
:102840007A70B6FBF0F100FB11606421B0FBF1F08F
:1028500000F0FF0A6420B6FBF0F100FB11600A21D2
:10286000B0FBF1FB0A20B6FBF0F100FB1160149005
:102870004D48007818B90A211F2005F07BFE4A4810
:102880000078012803D10C211F2005F073FE159854
:10289000002826DD0AA80221159A11FB02030A4628
:1028A0001946002005F040FE0AA8022111FB0A0388
:1028B0000A461946022005F037FE0AA8022111FB3C
:1028C0000B030A461946042005F02EFE0AA8022131
:1028D000149A11FB02030A461946062005F024FE4D
:1028E00032E0BAF1000F1CDD0AA8022111FB0A0335
:1028F0000A461946022005F017FE0AA8022111FB1C
:102900000B030A461946042005F00EFE0AA8022110
:10291000149A11FB02030A461946062005F004FE2C
:1029200012E00AA8022111FB0B030A4619460420F3
:1029300005F0FAFD0AA80221149A11FB02030A46C7
:102940001946062005F0F0FD1BB0BDE8F08F000031
:102950000F0506000B060F0206030D030D07070007
:102960000F070F03050F0006060B020F0306030DEA
:10297000070D0007070F030F0F0D06080B0E0F0AB8
:10298000060B0D0B0D0F07080F0F0F0B0D0F080691
:102990000E0B0A0F0B060B0D0F0D08070F0F0B0F79
:1029A000570000205F000020280100202DE9F04F93
:1029B0009BB004460D4616461422CEA10FA8FEF782
:1029C0005FFB1422D0A10AA8FEF75AFB1422D3A160
:1029D00005A8FEF755FB1422D5A16846FEF750FB6B
:1029E00001211C2005F0C6FD01211F2005F0C2FDBC
:1029F00004211A2005F0BEFDD248007818B9002144
:102A0000182005F0B7FDCF480078012803D1042134
:102A1000182005F0AFFDCB480078022803D1022131
:102A2000182005F0A7FDC7480078032803D101212D
:102A3000182005F09FFD08211B2005F09BFD4FF499
:102A40007A7094FBF0F0C0B21A904FF47A7094FB55
:102A5000F0F100FB1140642190FBF1F0C0B219903D
:102A6000642094FBF0F100FB11400A2190FBF1F08F
:102A7000C0B218900A2094FBF0F100FB1140C0B2E4
:102A80001790B1480078012809D10FA802211A9A9D
:102A900011FB02030A461946162005F045FDAA4817
:102AA000007818B90221172005F064FD05A902225B
:102AB000199812FB00131946142005F035FD0FA9D3
:102AC0000222189812FB00131946122005F02CFD63
:102AD0000FA90222179812FB00131946102005F0C7
:102AE00023FD4FF47A7095FBF0F0C0B216904FF4CE
:102AF0007A7095FBF0F100FB1150642190FBF1F02E
:102B0000C7B2642095FBF0F100FB11500A2190FB45
:102B1000F1F000F0FF080A2095FBF0F100FB1150E6
:102B200000F0FF091698002825DD0FA80221169A4B
:102B300011FB02030A4619460E2005F0F5FC0AA80F
:102B4000022111FB07030A461946082005F0ECFC98
:102B50000AA8022111FB08030A4619460A2005F0BB
:102B6000E3FC6846022111FB09030A4619460C20C2
:102B700005F0DAFC2FE0002F1BDD0AA8022111FB73
:102B800007030A461946082005F0CEFC0AA80221D0
:102B900011FB08030A4619460A2005F0C5FC6846E1
:102BA000022111FB09030A4619460C2005F0BCFC62
:102BB00011E00AA8022111FB08030A4619460A205F
:102BC00005F0B2FC6846022111FB09030A461946CA
:102BD0000C2005F0A9FC4FF47A70B6FBF0F0C0B2FF
:102BE00015904FF47A70B6FBF0F100FB1160642190
:102BF000B0FBF1F000F0FF0A6420B6FBF0F100FB3F
:102C000011600A21B0FBF1FB0A20B6FBF0F100FBDA
:102C1000116014904D48007818B90A211F2005F062
:102C2000A9FC4A480078012803D10C211F2005F097
:102C3000A1FC1598002826DD0AA80221159A11FB8F
:102C400002030A461946002005F06EFC0AA802217C
:102C500011FB0A030A461946022005F065FC0AA882
:102C6000022111FB0B030A461946042005F05CFC07
:102C70000AA80221149A11FB02030A4619460620EB
:102C800005F052FC32E0BAF1000F1CDD0AA8022167
:102C900011FB0A030A461946022005F045FC0AA862
:102CA000022111FB0B030A461946042005F03CFCE7
:102CB0000AA80221149A11FB02030A4619460620AB
:102CC00005F032FC12E00AA8022111FB0B030A46B0
:102CD0001946042005F028FC0AA80221149A11FBC9
:102CE00002030A461946062005F01EFC1BB0BDE88B
:102CF000F08F00000F0506000B060F0206030D0300
:102D00000D0707000F070F03050F0006060B020F44
:102D10000306030D070D0007070F030F0F0D06082D
:102D20000B0E0F0A060B0D0B0D0F07080F0F0F0BE5
:102D30000D0F08060E0B0A0F0B060B0D0F0D0807E3
:102D40000F0F0B0F570000205F000020280100200C
:102D50002DE9F04F91B004460D4616461422DCA131
:102D600005A8FEF78DF91422DEA16846FEF788F962
:102D700001211C2005F0FEFB01211F2005F0FAFBBC
:102D8000DD48007818B90A211F2005F0F3FBDA4866
:102D90000078012803D10C211F2005F0EBFB4FF434
:102DA0007A70B4FBF0F0C0B210904FF47A70B4FBBC
:102DB000F0F100FB11406421B0FBF1F0C0B20F90C4
:102DC0006420B4FBF0F100FB11400A21B0FBF1F7E5
:102DD0000A20B4FBF0F100FB11484FF47A70B5FB08
:102DE000F0F0C0B20E904FF47A70B5FBF0F100FB3A
:102DF00011506421B0FBF1F0C0B20D906420B5FB1E
:102E0000F0F100FB11500A21B0FBF1F90A20B5FBEB
:102E1000F0F100FB115A4FF47A70B6FBF0F0C0B23B
:102E20000C904FF47A70B6FBF0F100FB1160642156
:102E3000B0FBF1F0C0B20B906420B6FBF0F100FBE8
:102E400011600A21B0FBF1F00A900A20B6FBF0F104
:102E500000FB116B1098002825DD05A902221098AF
:102E600012FB00131946162005F05EFB05A802218F
:102E70000F9A11FB02030A461946142005F054FB71
:102E800005A8022111FB07030A461946122005F086
:102E90004BFB05A8022111FB08030A461946102026
:102EA00005F042FB3DE00F9800281CDD05A802213B
:102EB0000F9A11FB02030A461946142005F034FB51
:102EC00005A8022111FB07030A461946122005F046
:102ED0002BFB05A8022111FB08030A461946102006
:102EE00005F022FB1DE0002F12DD05A8022111FBD9
:102EF00007030A461946122005F016FB05A8022111
:102F000011FB08030A461946102005F00DFB08E0E6
:102F100005A8022111FB08030A461946102005F0F6
:102F200003FB0E98002825DD05A902220E9812FB4E
:102F3000001319460E2005F0F7FA684602210D9A93
:102F400011FB02030A461946082005F0EDFA68460F
:102F5000022111FB09030A4619460A2005F0E4FA8A
:102F60006846022111FB0A030A4619460C2005F0A7
:102F7000DBFA3EE00D9800281CDD684602210D9A20
:102F800011FB02030A461946082005F0CDFA6846EF
:102F9000022111FB09030A4619460A2005F0C4FA6A
:102FA0006846022111FB0A030A4619460C2005F067
:102FB000BBFA1EE0B9F1000F12DD6846022111FBD9
:102FC00009030A4619460A2005F0AEFA68460221AE
:102FD00011FB0A030A4619460C2005F0A5FA08E081
:102FE0006846022111FB0A030A4619460C2005F027
:102FF0009BFA0C98002826DD694602220C9812FBE9
:1030000000131946002005F08FFA684602210B9A3A
:1030100011FB02030A461946022005F085FA6846AC
:1030200002210A9A11FB02030A461946042005F000
:103030007BFA6846022111FB0B030A46194606205B
:1030400005F072FA40E00B9800281DDD6846022169
:103050000B9A11FB02030A461946022005F064FA96
:10306000684602210A9A11FB02030A461946042007
:1030700005F05AFA6846022111FB0B030A4619466D
:10308000062005F051FA1FE00A98002813DD684673
:1030900002210A9A11FB02030A461946042005F090
:1030A00043FA6846022111FB0B030A461946062023
:1030B00005F03AFA08E06846022111FB0B030A46C4
:1030C0001946062005F030FA11B0BDE8F08F000077
:1030D0000F0506000B060F0206030D030D07070080
:1030E0000F070F03050F0006060B020F0306030D63
:1030F000070D0007070F030F2801002000B58BB054
:103100001422F8A106A8FDF7BBFF1422FAA101A81A
:10311000FDF7B6FFFD48007800283DDD4FF48051F3
:10312000FB48FEF763FEC0B9FA48007830B9FA48A8
:103130000078401CF849087002F056FB00BF4FF4BD
:103140008051F348FEF752FE0028F8D0F24800788C
:10315000062802DD0120F04908704FF48041EC4858
:10316000FEF744FEC0B9EB48007830B9EA48007871
:10317000401EE949087002F037FB00BF4FF4804160
:10318000E348FEF733FE0028F8D0E3480078012832
:1031900002DA0620E0490870DF48007806287CD271
:1031A000DFE800F07B03DAFEFDFC8021DB48FEF760
:1031B0001DFE80B9FEF78EFBD94A128802EB82020F
:1031C0005204110CD74A127802EB82025000D64A00
:1031D0001268FEF781FE8021D048FEF707FE012825
:1031E0007ED14103CA48FEF701FEC0B9C948007844
:1031F000A8B902F0F9FACD480078401CCB49087014
:1032000000BF4FF40051C248FEF7F0FD0028F8D08F
:10321000C6480078032802DD0120C44908704FF435
:103220000061BB48FEF7E2FDC0B9BA480078A8B912
:1032300002F0DAFABD480078401EBC49087000BFB1
:103240004FF40061B248FEF7D1FD0028F8D0B7482E
:103250000078012802DA0320B4490870B3480078E6
:1032600001282ED1B248007890B9FEF733FBB14A5D
:10327000128802EB82025204110CAF4A127802EB60
:1032800082025000AD4A1378AD4A1268FEF7F2FF91
:10329000A7480078012814D100E055E2FEF71AFB98
:1032A000A84A128802EB82025204110CA64A127834
:1032B00002EB82025000A54A1378A54A1268FFF774
:1032C00075FB9A480078022814D1FEF703FBA14A47
:1032D000128802EB82025204110C9F4A127800E01D
:1032E00039E002EB820250009C4A13789C4A126833
:1032F000FFF78EF98D48007803282CD18C48007890
:10330000012812D1FEF7E6FA8A4A128802EB8202FD
:103310005204110C884A127802EB82025000874A4C
:103320001378874A1268FEF7A5FF8148007890B9A4
:10333000FEF7D0FA834A128802EB82025204110C83
:10334000814A127802EB82025000804A1378804A48
:103350001268FFF72BFB06E280217048FEF746FD5E
:1033600048B9FEF7B7FA40F2F5127E4801887E4868
:10337000008800F00FFA80216848FEF737FD012829
:1033800079D141036248FEF731FDE0B96148007828
:10339000C8B902F029FA7548007802E0DBE1D4E10F
:1033A00073E0401C7149087000BF4FF40051584849
:1033B000FEF71CFD0028F8D06C480078032802DDD9
:1033C00001206A4908704FF400615148FEF70EFD74
:1033D000C0B950480078A8B902F006FA63480078EE
:1033E000401E6249087000BF4FF400614848FEF774
:1033F000FDFC0028F8D05D480078012802DA03209F
:103400005A49087059480078012815D1FEF762FA28
:103410004748007840B940F2F512554801885548B0
:10342000008800F065FB07E040F2F5125248018881
:103430005248008800F0C0FE4C480078022809D1AC
:10344000FEF748FA40F2F5124D4801884D480088D1
:1034500000F000FD45480078032815D1FEF73AFA40
:103460003348007840B940F2F51243480188434898
:10347000008800F0A1FE07E040F2F5123C48018808
:103480003C48008800F034FB6DE180212348FEF7C2
:10349000ADFCE0B9FEF71EFA3B4890ED000AF2EEF3
:1034A000040A20EE200ABCEEC00A10EE100A82B216
:1034B000364890ED000AF2EE040A20EE200ABCEE37
:1034C000C00A10EE100A81B2002001F027F8802116
:1034D0001248FEF78BFC01287ED141030C48FEF711
:1034E00085FC55E00F0506000B060F0206030D03D1
:1034F0000D0707000F070F03050F0006060B020F4D
:103500000306030D070D0007070F030F62000020DD
:10351000000C02402801002025010020001002407C
:1035200008000020070000203000002026010020B5
:103530006100002034000020540000205E000020C4
:1035400048000020380000205600002060000020C5
:103550005000002036000020550000205F000020B1
:103560004C0000200C0000200A0000202701002051
:10357000400000203A000020440000203E000020CF
:10358000420000203C000020140000201000002019
:10359000C0B976480078A8B902F026F974480078D6
:1035A000401C7349087000BF4FF400517148FEF78A
:1035B0001DFC0028F8D06E480078032802DD0120A9
:1035C0006B4908704FF400616A48FEF70FFCD0B9F0
:1035D00066480078B8B900E09AE002F005F964485E
:1035E0000078401E6249087000BF4FF400616148D6
:1035F000FEF7FCFB0028F8D05D480078012802DACD
:1036000003205B4908705A48007801283BD1FEF737
:1036100061F959480078D8B9584890ED000AF2EE9F
:10362000040A20EE200ABCEEC00A10EE100A82B294
:10363000534890ED000AF2EE040A20EE200ABCEE98
:10364000C00A10EE100A81B2002001F0F7F81AE06B
:103650004C4890ED000AF2EE040A20EE200ABCEE7F
:10366000C00A10EE100A82B2474890ED000AF2EE4E
:10367000040A20EE200ABCEEC00A10EE100A81B245
:10368000002001F003FC3A48007802281CD1FEF724
:1036900021F93E4890ED000AF2EE040A20EE200ADD
:1036A000BCEEC00A10EE100A82B2394890ED000A52
:1036B000F2EE040A20EE200ABCEEC00A10EE100A58
:1036C00081B2002001F04EFA2948007803283BD14E
:1036D000FEF700F928480078D8B92A4890ED000A8A
:1036E000F2EE040A20EE200ABCEEC00A10EE100A28
:1036F00082B2254890ED000AF2EE040A20EE200A7C
:10370000BCEEC00A10EE100A81B2002001F0BEFB30
:103710001AE01A4890ED000AF2EE040A20EE200AA0
:10372000BCEEC00A10EE100A82B2154890ED000AF5
:10373000F2EE040A20EE200ABCEEC00A10EE100AD7
:1037400081B2002001F07AF80DE0FEF7C3F8022004
:10375000FEF75AFB07E0FEF7BDF8002211461046BF
:10376000FFF7F6FA00BF00BF0BB000BD2801002034
:1037700027010020000C0240610000201C000020F6
:10378000180000202C000020280000202400002029
:10379000200000202DE9F04F9BB004460D46164650
:1037A0001422BDA110A8FDF76BFC1422BFA10BA829
:1037B000FDF766FC1422C2A106A8FDF761FC1422E5
:1037C000C4A101A8FDF75CFC01211C2004F0D2FE7D
:1037D00001211F2004F0CEFEC348007818B908214B
:1037E000182004F0C7FEC0480078012803D10C213E
:1037F000182004F0BFFEBC480078022803D10A213B
:10380000182004F0B7FEB8480078032803D1092136
:10381000182004F0AFFE0821192004F0ABFEB348D5
:10382000007818B90A211F2004F0A4FEAF480078E0
:10383000012803D10C211F2004F09CFE4FF47A7064
:1038400094FBF0F0C0B21A904FF47A7094FBF0F150
:1038500000FB1140642190FBF1F0C7B2642094FB9F
:10386000F0F100FB11400A2190FBF1F000F0FF089D
:103870000A2094FBF0F100FB114000F0FF091A98B8
:10388000002825DD10A802211A9A11FB02030A461E
:103890001946162004F048FE10A8022111FB070368
:1038A0000A461946142004F03FFE10A8022111FB1D
:1038B00008030A461946122004F036FE10A8022119
:1038C00011FB09030A461946102004F02DFE2FE0D3
:1038D000002F1BDD10A8022111FB07030A46194621
:1038E000142004F021FE10A8022111FB08030A464F
:1038F0001946122004F018FE10A8022111FB09033A
:103900000A461946102004F00FFE11E010A802210B
:1039100011FB08030A461946122004F005FE10A800
:10392000022111FB09030A461946102004F0FCFD90
:103930004FF47A7095FBF0F0C0B219904FF47A70A2
:1039400095FBF0F100FB1150642190FBF1F000F0C9
:10395000FF0A642095FBF0F100FB11500A2190FB57
:10396000F1F000F0FF0B0A2095FBF0F100FB115085
:10397000C0B218901998002826DD10A80221199AC3
:1039800011FB02030A4619460E2004F0CDFD0BA8D8
:10399000022111FB0A030A461946082004F0C4FD5F
:1039A0000BA8022111FB0B030A4619460A2004F05A
:1039B000BBFD0BA80221189A11FB02030A46194607
:1039C0000C2004F0B1FD32E0BAF1000F1CDD0BA8B1
:1039D000022111FB0A030A461946082004F0A4FD3F
:1039E0000BA8022111FB0B030A4619460A2004F01A
:1039F0009BFD0BA80221189A11FB02030A461946E7
:103A00000C2004F091FD12E00BA8022111FB0B0326
:103A10000A4619460A2004F087FD0BA80221189ACD
:103A200011FB02030A4619460C2004F07DFD6420B8
:103A300096FBF0F0C2B21792642096FBF0F100FB07
:103A400011600A2190FBF1F0C0B216900A2096FB9B
:103A5000F0F100FB1160C0B215900BA80221179A7B
:103A600011FB02030A461946022004F05DFD0BA972
:103A70000222169812FB00131946042004F054FD8C
:103A800001A90222159812FB00131946062004F022
:103A90004BFD1BB0BDE8F08F0F0506000B060F02B3
:103AA00006030D030D0707000F070F03050F0006A0
:103AB000060B020F0306030D070D0007070F030F88
:103AC0000F0D06080B0E0F0A060B0D0B0D0F070846
:103AD0000F0F0F0B0D0F08060E0B0A0F0B060B0D29
:103AE0000F0D08070F0F0B0F5700002028010020B3
:103AF0002DE9F04F9BB004460D4616461422BFA197
:103B000010A8FDF7BDFA1422C1A10BA8FDF7B8FA61
:103B10001422C4A106A8FDF7B3FA1422C6A101A875
:103B2000FDF7AEFA01211C2004F024FD01211F2025
:103B300004F020FD02211B2004F01CFDC348007886
:103B400018B90021182004F015FDC048007801289C
:103B500003D10421182004F00DFDBC480078022890
:103B600003D10221182004F005FDB848007803288D
:103B700003D10121182004F0FDFC0821192004F0D4
:103B8000F9FCB348007818B90A211F2004F0F2FCB0
:103B9000AF480078012803D10C211F2004F0EAFC73
:103BA0004FF47A7094FBF0F0C0B21A904FF47A7030
:103BB00094FBF0F100FB1140642190FBF1F0C7B2DF
:103BC000642094FBF0F100FB11400A2190FBF1F01E
:103BD00000F0FF080A2094FBF0F100FB114000F018
:103BE000FF091A98002825DD10A802211A9A11FB56
:103BF00002030A461946162004F096FC10A802217A
:103C000011FB07030A461946142004F08DFC10A886
:103C1000022111FB08030A461946122004F084FC15
:103C200010A8022111FB09030A461946102004F0CE
:103C30007BFC2FE0002F1BDD10A8022111FB0703E6
:103C40000A461946142004F06FFC10A8022111FB4B
:103C500008030A461946122004F066FC10A8022147
:103C600011FB09030A461946102004F05DFC11E01F
:103C700010A8022111FB08030A461946122004F07D
:103C800053FC10A8022111FB09030A461946102013
:103C900004F04AFC4FF47A7095FBF0F0C0B2199032
:103CA0004FF47A7095FBF0F100FB1150642190FB0A
:103CB000F1F000F0FF0A642095FBF0F100FB1150D9
:103CC0000A2190FBF1F000F0FF0B0A2095FBF0F1C8
:103CD00000FB1150C0B218901998002826DD10A8DA
:103CE0000221199A11FB02030A4619460E2004F01C
:103CF0001BFC0BA8022111FB0A030A4619460820E7
:103D000004F012FC0BA8022111FB0B030A46194612
:103D10000A2004F009FC0BA80221189A11FB0203E7
:103D20000A4619460C2004F0FFFB32E0BAF1000FFE
:103D30001CDD0BA8022111FB0A030A4619460820C4
:103D400004F0F2FB0BA8022111FB0B030A461946F3
:103D50000A2004F0E9FB0BA80221189A11FB0203C8
:103D60000A4619460C2004F0DFFB12E00BA80221E2
:103D700011FB0B030A4619460A2004F0D5FB0BA8D9
:103D80000221189A11FB02030A4619460C2004F07E
:103D9000CBFB642096FBF0F0C2B21792642096FB36
:103DA000F0F100FB11600A2190FBF1F0C0B2169017
:103DB0000A2096FBF0F100FB1160C0B215900BA831
:103DC0000221179A11FB02030A461946022004F049
:103DD000ABFB0BA90222169812FB00131946042014
:103DE00004F0A2FB01A90222159812FB0013194648
:103DF000062004F099FB1BB0BDE8F08F0F0506000C
:103E00000B060F0206030D030D0707000F070F0334
:103E1000050F0006060B020F0306030D070D000732
:103E2000070F030F0F0D06080B0E0F0A060B0D0BE5
:103E30000D0F07080F0F0F0B0D0F08060E0B0A0FC3
:103E40000B060B0D0F0D08070F0F0B0F570000206F
:103E5000280100202DE9F04F9BB004460D46164680
:103E60001422BFA110A8FDF70BF91422C1A10BA8C1
:103E7000FDF706F91422C4A106A8FDF701F91422E2
:103E8000C6A101A8FDF7FCF801211C2004F072FB7B
:103E900001211F2004F06EFB04211B2004F06AFBAB
:103EA000C348007818B90021182004F063FBC0480B
:103EB0000078012803D10421182004F05BFBBC48E2
:103EC0000078022803D10221182004F053FBB848DF
:103ED0000078032803D10121182004F04BFB0821AE
:103EE000192004F047FBB348007818B90A211F20B5
:103EF00004F040FBAF480078012803D10C211F20BB
:103F000004F038FB4FF47A7094FBF0F0C0B21A90D2
:103F10004FF47A7094FBF0F100FB1140642190FBA8
:103F2000F1F0C7B2642094FBF0F100FB11400A21CC
:103F300090FBF1F000F0FF080A2094FBF0F100FB89
:103F4000114000F0FF091A98002825DD10A8022171
:103F50001A9A11FB02030A461946162004F0E4FAE5
:103F600010A8022111FB07030A461946142004F089
:103F7000DBFA10A8022111FB08030A461946122099
:103F800004F0D2FA10A8022111FB09030A461946CF
:103F9000102004F0C9FA2FE0002F1BDD10A8022129
:103FA00011FB07030A461946142004F0BDFA10A8B5
:103FB000022111FB08030A461946122004F0B4FA44
:103FC00010A8022111FB09030A461946102004F02B
:103FD000ABFA11E010A8022111FB08030A461946AA
:103FE000122004F0A1FA10A8022111FB09030A46CD
:103FF0001946102004F098FA4FF47A7095FBF0F00F
:10400000C0B219904FF47A7095FBF0F100FB11509B
:10401000642190FBF1F000F0FF0A642095FBF0F1C1
:1040200000FB11500A2190FBF1F000F0FF0B0A2079
:1040300095FBF0F100FB1150C0B2189019980028C0
:1040400026DD10A80221199A11FB02030A4619461F
:104050000E2004F069FA0BA8022111FB0A030A469C
:104060001946082004F060FA0BA8022111FB0B038B
:104070000A4619460A2004F057FA0BA80221189A9A
:1040800011FB02030A4619460C2004F04DFA32E0F7
:10409000BAF1000F1CDD0BA8022111FB0A030A462E
:1040A0001946082004F040FA0BA8022111FB0B036B
:1040B0000A4619460A2004F037FA0BA80221189A7A
:1040C00011FB02030A4619460C2004F02DFA12E0F7
:1040D0000BA8022111FB0B030A4619460A2004F023
:1040E00023FA0BA80221189A11FB02030A4619466B
:1040F0000C2004F019FA642096FBF0F0C2B217927B
:10410000642096FBF0F100FB11600A2190FBF1F0B6
:10411000C0B216900A2096FBF0F100FB1160C0B20D
:1041200015900BA80221179A11FB02030A461946A3
:10413000022004F0F9F90BA90222169812FB0013D1
:104140001946042004F0F0F901A90222159812FB87
:1041500000131946062004F0E7F91BB0BDE8F08F04
:104160000F0506000B060F0206030D030D070700DF
:104170000F070F03050F0006060B020F0306030DC2
:10418000070D0007070F030F0F0D06080B0E0F0A90
:10419000060B0D0B0D0F07080F0F0F0B0D0F080669
:1041A0000E0B0A0F0B060B0D0F0D08070F0F0B0F51
:1041B00057000020280100202DE9F04F9BB0044655
:1041C0000D4616461422BFA110A8FCF759FF142271
:1041D000C1A10BA8FCF754FF1422C4A106A8FCF748
:1041E0004FFF1422C6A101A8FCF74AFF01211C20A1
:1041F00004F0C0F901211F2004F0BCF904211A20A9
:1042000004F0B8F9C348007818B90021182004F068
:10421000B1F9C0480078012803D10421182004F026
:10422000A9F9BC480078022803D10221182004F023
:10423000A1F9B8480078032803D10121182004F01F
:1042400099F90821192004F095F9B348007818B9B4
:104250000A211F2004F08EF9AF480078012803D10D
:104260000C211F2004F086F94FF47A7094FBF0F0D3
:10427000C0B21A904FF47A7094FBF0F100FB114039
:10428000642190FBF1F0C7B2642094FBF0F100FBD5
:1042900011400A2190FBF1F000F0FF080A2094FB86
:1042A000F0F100FB114000F0FF091A98002825DD0D
:1042B00010A802211A9A11FB02030A461946162079
:1042C00004F032F910A8022111FB07030A4619462F
:1042D000142004F029F910A8022111FB08030A4652
:1042E0001946122004F020F910A8022111FB09033D
:1042F0000A461946102004F017F92FE0002F1BDDA5
:1043000010A8022111FB07030A461946142004F0E5
:104310000BF910A8022111FB08030A4619461220C6
:1043200004F002F910A8022111FB09030A461946FC
:10433000102004F0F9F811E010A8022111FB080385
:104340000A461946122004F0EFF810A8022111FBCA
:1043500009030A461946102004F0E6F84FF47A7073
:1043600095FBF0F0C0B219904FF47A7095FBF0F124
:1043700000FB1150642190FBF1F000F0FF0A642073
:1043800095FBF0F100FB11500A2190FBF1F000F0D9
:10439000FF0B0A2095FBF0F100FB1150C0B2189002
:1043A0001998002826DD10A80221199A11FB020392
:1043B0000A4619460E2004F0B7F80BA8022111FB9B
:1043C0000A030A461946082004F0AEF80BA8022199
:1043D00011FB0B030A4619460A2004F0A5F80BA8A6
:1043E0000221189A11FB02030A4619460C2004F018
:1043F0009BF832E0BAF1000F1CDD0BA8022111FB83
:104400000A030A461946082004F08EF80BA8022178
:1044100011FB0B030A4619460A2004F085F80BA885
:104420000221189A11FB02030A4619460C2004F0D7
:104430007BF812E00BA8022111FB0B030A46194678
:104440000A2004F071F80BA80221189A11FB02034C
:104450000A4619460C2004F067F8642096FBF0F039
:10446000C2B21792642096FBF0F100FB11600A21A2
:1044700090FBF1F0C0B216900A2096FBF0F100FB21
:104480001160C0B215900BA80221179A11FB02030C
:104490000A461946022004F047F80BA90222169892
:1044A00012FB00131946042004F03EF801A9022271
:1044B000159812FB00131946062004F035F81BB0BE
:1044C000BDE8F08F0F0506000B060F0206030D0373
:1044D0000D0707000F070F03050F0006060B020F5D
:1044E0000306030D070D0007070F030F0F0D060846
:1044F0000B0E0F0A060B0D0B0D0F07080F0F0F0BFE
:104500000D0F08060E0B0A0F0B060B0D0F0D0807FB
:104510000F0F0B0F57000020280100202DE9F04F4E
:1045200099B004460D4616461422AEA10FA8FCF71A
:10453000A7FD1422B0A10AA8FCF7A2FD1422B3A182
:1045400005A8FCF79DFD1422B5A16846FCF798FD6F
:1045500001211C2004F00EF801211F2004F00AF8AC
:10456000B448007818B90821182004F003F8B148BD
:104570000078012803D10C21182003F0FBFFAD487F
:104580000078022803D10A21182003F0F3FFA9487C
:104590000078032803D10921182003F0EBFF08213C
:1045A0001A2003F0E7FFA448007818B90A211F2059
:1045B00003F0E0FFA0480078012803D10C211F2060
:1045C00003F0D8FF4FF47A7094FBF0F0C0B218906B
:1045D0004FF47A7094FBF0F100FB1140642190FBE2
:1045E000F1F0C7B2642094FBF0F100FB11400A2106
:1045F00090FBF1F000F0FF080A2094FBF0F100FBC3
:10460000114000F0FF091898002825DD0FA80221AD
:10461000189A11FB02030A461946162003F084FF7C
:104620000FA8022111FB07030A461946142003F0C4
:104630007BFF0FA8022111FB08030A46194612202E
:1046400003F072FF05A8022111FB09030A4619466F
:10465000102003F069FF2FE0002F1BDD0FA80221BF
:1046600011FB07030A461946142003F05DFF0FA84B
:10467000022111FB08030A461946122003F054FFD9
:1046800005A8022111FB09030A461946102003F070
:104690004BFF11E00FA8022111FB08030A4619463F
:1046A000122003F041FF05A8022111FB09030A466D
:1046B0001946102003F038FF642095FBF0F0C0B2DB
:1046C0001790642095FBF0F100FB11500A2190FB3C
:1046D000F1F000F0FF0A0A2095FBF0F100FB115009
:1046E00000F0FF0B179800281CDD0AA80221179A7A
:1046F00011FB02030A461946082003F015FF0AA819
:10470000022111FB0A030A4619460A2003F00CFF96
:104710006846022111FB0B030A4619460C2003F0E0
:1047200003FF11E00AA8022111FB0A030A461946F9
:104730000A2003F0F9FE6846022111FB0B030A462A
:1047400019460C2003F0F0FE642096FBF0F0C0B296
:104750001690642096FBF0F100FB11600A2190FB9B
:10476000F1F0C0B215900A2096FBF0F100FB116049
:10477000C0B21490169800281DDD0AA902221698CE
:1047800012FB00131946104603F0CEFE0AA80221C0
:10479000159A11FB02030A461946042003F0C4FED1
:1047A00068460221149A11FB02030A4619460620A4
:1047B00003F0BAFE13E00AA80221159A11FB0203C6
:1047C0000A461946042003F0AFFE68460221149AF7
:1047D00011FB02030A461946062003F0A5FE19B094
:1047E000BDE8F08F0F0506000B060F0206030D0350
:1047F0000D0707000F070F03050F0006060B020F3A
:104800000306030D070D0007070F030F0F0D060822
:104810000B0E0F0A060B0D0B0D0F07080F0F0F0BDA
:104820000D0F08060E0B0A0F0B060B0D0F0D0807D8
:104830000F0F0B0F57000020280100202DE9F04F2B
:1048400099B004460D4616461422B0A10FA8FCF7F5
:1048500017FC1422B2A10AA8FCF712FC1422B5A17D
:1048600005A8FCF70DFC1422B7A16846FCF708FC6C
:1048700001211C2003F07EFE01211F2003F07AFE9F
:1048800002211B2003F076FEB448007818B90021FD
:10489000182003F06FFEB1480078012803D10421ED
:1048A000182003F067FEAD480078022803D10221EA
:1048B000182003F05FFEA9480078032803D10121E6
:1048C000182003F057FE08211A2003F053FEA448D5
:1048D000007818B90A211F2003F04CFEA048007888
:1048E000012803D10C211F2003F044FE4FF47A70FD
:1048F00094FBF0F0C0B218904FF47A7094FBF0F192
:1049000000FB1140642190FBF1F0C7B2642094FBDE
:10491000F0F100FB11400A2190FBF1F000F0FF08DC
:104920000A2094FBF0F100FB114000F0FF091898F9
:10493000002825DD0FA80221189A11FB02030A4660
:104940001946162003F0F0FD0FA8022111FB070302
:104950000A461946142003F0E7FD0FA8022111FBB7
:1049600008030A461946122003F0DEFD05A80221BD
:1049700011FB09030A461946102003F0D5FD2FE06C
:10498000002F1BDD0FA8022111FB07030A46194661
:10499000142003F0C9FD0FA8022111FB08030A46E9
:1049A0001946122003F0C0FD05A8022111FB0903DE
:1049B0000A461946102003F0B7FD11E00FA80221A6
:1049C00011FB08030A461946122003F0ADFD05A8A5
:1049D000022111FB09030A461946102003F0A4FD29
:1049E000642095FBF0F0C0B21790642095FBF0F1C5
:1049F00000FB11500A2190FBF1F000F0FF0A0A20A1
:104A000095FBF0F100FB115000F0FF0B1798002808
:104A10001CDD0AA80221179A11FB02030A46194657
:104A2000082003F081FD0AA8022111FB0A030A46AF
:104A300019460A2003F078FD6846022111FB0B039A
:104A40000A4619460C2003F06FFD11E00AA8022166
:104A500011FB0A030A4619460A2003F065FD684661
:104A6000022111FB0B030A4619460C2003F05CFDE2
:104A7000642096FBF0F0C0B21690642096FBF0F133
:104A800000FB11600A2190FBF1F0C0B215900A20E2
:104A900096FBF0F100FB1160C0B21490169800284C
:104AA0001DDD0AA90222169812FB001319461046B2
:104AB00003F03AFD0AA80221159A11FB02030A46E7
:104AC0001946042003F030FD68460221149A11FBB8
:104AD00002030A461946062003F026FD13E00AA841
:104AE0000221159A11FB02030A461946042003F01D
:104AF0001BFD68460221149A11FB02030A4619465F
:104B0000062003F011FD19B0BDE8F08F0F05060077
:104B10000B060F0206030D030D0707000F070F0317
:104B2000050F0006060B020F0306030D070D000715
:104B3000070F030F0F0D06080B0E0F0A060B0D0BC8
:104B40000D0F07080F0F0F0B0D0F08060E0B0A0FA6
:104B50000B060B0D0F0D08070F0F0B0F5700002052
:104B6000280100202DE9F04F99B004460D46164665
:104B70001422B0A10FA8FCF783FA1422B2A10AA84C
:104B8000FCF77EFA1422B5A105A8FCF779FA1422E5
:104B9000B7A16846FCF774FA01211C2003F0EAFC77
:104BA00001211F2003F0E6FC04211B2003F0E2FC9E
:104BB000B448007818B90021182003F0DBFCB14894
:104BC0000078012803D10421182003F0D3FCAD485C
:104BD0000078022803D10221182003F0CBFCA94859
:104BE0000078032803D10121182003F0C3FC082119
:104BF0001A2003F0BFFCA448007818B90A211F202E
:104C000003F0B8FCA0480078012803D10C211F2034
:104C100003F0B0FC4FF47A7094FBF0F0C0B218903F
:104C20004FF47A7094FBF0F100FB1140642190FB8B
:104C3000F1F0C7B2642094FBF0F100FB11400A21AF
:104C400090FBF1F000F0FF080A2094FBF0F100FB6C
:104C5000114000F0FF091898002825DD0FA8022157
:104C6000189A11FB02030A461946162003F05CFC51
:104C70000FA8022111FB07030A461946142003F06E
:104C800053FC0FA8022111FB08030A461946122003
:104C900003F04AFC05A8022111FB09030A46194644
:104CA000102003F041FC2FE0002F1BDD0FA8022194
:104CB00011FB07030A461946142003F035FC0FA820
:104CC000022111FB08030A461946122003F02CFCAE
:104CD00005A8022111FB09030A461946102003F01A
:104CE00023FC11E00FA8022111FB08030A46194614
:104CF000122003F019FC05A8022111FB09030A4642
:104D00001946102003F010FC642095FBF0F0C0B2AF
:104D10001790642095FBF0F100FB11500A2190FBE5
:104D2000F1F000F0FF0A0A2095FBF0F100FB1150B2
:104D300000F0FF0B179800281CDD0AA80221179A23
:104D400011FB02030A461946082003F0EDFB0AA8EE
:104D5000022111FB0A030A4619460A2003F0E4FB6C
:104D60006846022111FB0B030A4619460C2003F08A
:104D7000DBFB11E00AA8022111FB0A030A461946CF
:104D80000A2003F0D1FB6846022111FB0B030A46FF
:104D900019460C2003F0C8FB642096FBF0F0C0B26B
:104DA0001690642096FBF0F100FB11600A2190FB45
:104DB000F1F0C0B215900A2096FBF0F100FB1160F3
:104DC000C0B21490169800281DDD0AA90222169878
:104DD00012FB00131946104603F0A6FB0AA8022195
:104DE000159A11FB02030A461946042003F09CFBA6
:104DF00068460221149A11FB02030A46194606204E
:104E000003F092FB13E00AA80221159A11FB02039A
:104E10000A461946042003F087FB68460221149ACB
:104E200011FB02030A461946062003F07DFB19B068
:104E3000BDE8F08F0F0506000B060F0206030D03F9
:104E40000D0707000F070F03050F0006060B020FE3
:104E50000306030D070D0007070F030F0F0D0608CC
:104E60000B0E0F0A060B0D0B0D0F07080F0F0F0B84
:104E70000D0F08060E0B0A0F0B060B0D0F0D080782
:104E80000F0F0B0F57000020280100202DE9F04FD5
:104E900099B004460D4616461422AEA10FA8FCF7A1
:104EA000EFF81422B0A10AA8FCF7EAF81422B3A183
:104EB00005A8FCF7E5F81422B5A16846FCF7E0F870
:104EC00001211C2003F056FB01211F2003F052FB9F
:104ED0000C211A2003F04EFBB248007818B90021CB
:104EE000182003F047FBAF480078012803D10421C4
:104EF000182003F03FFBAB480078022803D10221C1
:104F0000182003F037FBA7480078032803D10121BC
:104F1000182003F02FFBA448007818B90A211F209D
:104F200003F028FBA0480078012803D10C211F20A2
:104F300003F020FB4FF47A7094FBF0F0C0B21890AD
:104F40004FF47A7094FBF0F100FB1140642190FB68
:104F5000F1F0C7B2642094FBF0F100FB11400A218C
:104F600090FBF1F000F0FF080A2094FBF0F100FB49
:104F7000114000F0FF091898002825DD0FA8022134
:104F8000189A11FB02030A461946162003F0CCFAC0
:104F90000FA8022111FB07030A461946142003F04B
:104FA000C3FA0FA8022111FB08030A461946122072
:104FB00003F0BAFA05A8022111FB09030A461946B3
:104FC000102003F0B1FA2FE0002F1BDD0FA8022103
:104FD00011FB07030A461946142003F0A5FA0FA88F
:104FE000022111FB08030A461946122003F09CFA1D
:104FF00005A8022111FB09030A461946102003F0F7
:1050000093FA11E00FA8022111FB08030A46194682
:10501000122003F089FA05A8022111FB09030A46B0
:105020001946102003F080FA642095FBF0F0C0B21E
:105030001790642095FBF0F100FB11500A2190FBC2
:10504000F1F000F0FF0A0A2095FBF0F100FB11508F
:1050500000F0FF0B179800281CDD0AA80221179A00
:1050600011FB02030A461946082003F05DFA0AA85C
:10507000022111FB0A030A4619460A2003F054FADA
:105080006846022111FB0B030A4619460C2003F067
:105090004BFA11E00AA8022111FB0A030A4619463D
:1050A0000A2003F041FA6846022111FB0B030A466D
:1050B00019460C2003F038FA642096FBF0F0C0B2D9
:1050C0001690642096FBF0F100FB11600A2190FB22
:1050D000F1F0C0B215900A2096FBF0F100FB1160D0
:1050E000C0B21490169800281DDD0AA90222169855
:1050F00012FB00131946104603F016FA0AA8022103
:10510000159A11FB02030A461946042003F00CFA13
:1051100068460221149A11FB02030A46194606202A
:1051200003F002FA13E00AA80221159A11FB020308
:105130000A461946042003F0F7F968460221149A3A
:1051400011FB02030A461946062003F0EDF919B0D7
:10515000BDE8F08F0F0506000B060F0206030D03D6
:105160000D0707000F070F03050F0006060B020FC0
:105170000306030D070D0007070F030F0F0D0608A9
:105180000B0E0F0A060B0D0B0D0F07080F0F0F0B61
:105190000D0F08060E0B0A0F0B060B0D0F0D08075F
:1051A0000F0F0B0F57000020280100201CB5012114
:1051B000022002F069FEE020009001208DF804003A
:1051C00000208DF8060002208DF8050069460E4883
:1051D000FCF7C4FD20210C48FCF713FE40210A48CF
:1051E000FCF70FFE80210848FCF70BFE022002F0BE
:1051F000C5FE292002F0C2FE012002F0BFFE0320FE
:1052000002F0BCFE1CBD00000004024000BFFEE72F
:105210001CB54FF400511348FCF7F1FD4FF48040EA
:10522000009001208DF8040002208DF805006946E9
:105230000C48FCF793FD4FF480410A48FCF7DFFD72
:10524000022008F07FF94FF400510648FCF7D9FD21
:10525000022008F077F94FF400510248FCF7CFFD27
:105260001CBD0000000402401CB50121022002F018
:105270000BFE4FF4E040009001208DF80400022066
:105280008DF8050069460948FCF768FD4FF4805128
:105290000648FCF7B4FD4FF400510448FCF7B1FD9B
:1052A0004FF480410148FCF7ACFD1CBD00040240F6
:1052B0001CB54FF400511348FCF7A1FD4FF480409A
:1052C000009001208DF8040002208DF80500694649
:1052D0000C48FCF743FD4FF480410A48FCF791FD70
:1052E000022008F02FF94FF400510648FCF789FD21
:1052F000022008F027F94FF400510248FCF77FFD27
:105300001CBD0000000402407CB5064600244FF49A
:105310008040009000208DF804008DF80700694659
:105320001548FCF71BFD00251BE04FF40051124807
:10533000FCF765FD022008F005F94FF400510E4816
:10534000FCF75FFD6006040E4FF480410A48FCF74D
:105350004DFD08B1601CC4B2012008F0F3F8681CD0
:10536000C5B2082DE1DB16B9FFF7A2FF01E0FFF798
:105370004FFF20467CBD0000000402407CB504467F
:105380004FF48040009001208DF8040002208DF839
:10539000050069461948FCF7E1FC4FF40051174835
:1053A000FCF72DFD002525E0E00904D14FF48041F4
:1053B0001248FCF724FD0120B0EBD41F03D1810378
:1053C0000E48FCF71EFD6006040E022008F0BAF835
:1053D0004FF400510948FCF714FD022008F0B2F820
:1053E0004FF400510548FCF70AFD022008F0AAF826
:1053F000681CC5B2082DD7DB7CBD0000000402404C
:105400001CB54FF48040009001208DF8040002206C
:105410008DF8050069460F48FCF7A0FC4FF4804169
:105420000C48FCF7EEFC4FF400510A48FCF7E9FC8D
:10543000032008F087F84FF480410648FCF7DFFCB2
:10544000032008F07FF84FF400510248FCF7D7FC26
:105450001CBD0000000402401CB54FF480400090C9
:1054600001208DF8040002208DF8050069460F48E0
:10547000FCF774FC4FF400510C48FCF7C0FC4FF4EF
:1054800080410A48FCF7BBFC032008F05BF84FF4AE
:1054900000510648FCF7B5FC4FF480410348FCF787
:1054A000B0FC032008F04EF81CBD000000040240D0
:1054B0001CB500244FF48040009000208DF80400BB
:1054C0008DF8070069461548FCF748FC4FF4804109
:1054D0001248FCF796FC012008F034F84FF4005114
:1054E0000E48FCF78EFC012008F02CF807E0601C49
:1054F000C4B2FA2C03DDFFF7AFFF01201CBD4FF44F
:1055000080410648FCF772FC0028F0D14FF40051AE
:105510000248FCF774FC0020F0E7000000040240A1
:105520004CF6CC4001490860704700000030004054
:1055300000B500F013F800BD00B503460A4645F279
:10554000555000F01FF8184600F010F8104600F013
:1055500013F800F003F8FFF7E3FF00BD4AF6AA20B6
:105560000149086070470000003000400149486070
:10557000704700000030004001498860704700001B
:1055800000300040014908607047000000300040D2
:1055900000B59BB00121744802F076FC01214FF464
:1055A000E06002F091FC4FF0806002906F48039041
:1055B0006F4804900020059001200690002007907D
:1055C00008904FF40060099080000A9040110B9001
:1055D00040020C9000200D9001200E9000200F90B2
:1055E000109002A96348FCF795F901216148FCF786
:1055F00085F90020029060480390604804900020E4
:105600000590012006900020079008904FF400605C
:10561000099080000A9040110B9040020C900020ED
:105620000D9001200E9000200F90109002A951487B
:105630001838FCF76FF901214E481838FCF75EF96D
:105640004FF0007002904E4803904E4804900020A6
:105650000590012006900020079008904FF400600C
:10566000099080000A9040110B9040020C9000209D
:105670000D9001200E9000200F90109002A93D483F
:105680001830FCF747F901213A481830FCF736F991
:105690000F20009003208DF8040000208DF80700F3
:1056A00069463948FCF75AFB9220009003208DF898
:1056B000040000208DF8070069463448FCF74EFBD3
:1056C0000020119012901390149011A8FBF7FAFD8E
:1056D000002015908DF8580001208DF85900002009
:1056E0001790199001208DF8680015A91F484C38B3
:1056F000FBF71AFE15A922484C38FBF715FE15A931
:105700001D484C38FBF710FE012118484C38FBF7B8
:1057100000FE01211A484C38FBF7FBFD0121164819
:105720004C38FBF7F6FD012110484C38FBF7E6FD3D
:10573000012113484C38FBF7E1FD01210E484C389C
:10574000FBF7DCFD012109484C38FBF7AFFD0121D7
:105750000B484C38FBF7AAFD012107484C38FBF7F2
:10576000A5FD1BB000BD0000050040004C2201401B
:1057700000000020286402404C200140020000206C
:105780004C210140040000200008024000000240BB
:105790001CB50121082002F077FB4FF4FE40009079
:1057A00000208DF8040069460848FCF7D7FA01216B
:1057B000102002F069FB4FF46070009000208DF81B
:1057C000040069460248FCF7C9FA1CBD000C0240FF
:1057D0000010024010B54FF400410248FCF70FFBE7
:1057E00010BD0000000C024010B54FF4004103480A
:1057F000FCF707FB64200249087010BD000C024052
:10580000620000202DE9F0418CB080460C46154620
:105810001E46129FFEA2D2E901311068D268CDE97E
:1058200009310B920890FEA3D3E90020D3E90213BB
:10583000CDE90613CDE90420FDA30FCB8DE80F00C1
:10584000B8F1000F7DD1012C7BDB102C79DC601EC0
:10585000C4B2A5B91DF8041041F4E0700121FBF7B2
:105860006FFF08A9095D41F4E0700121FBF768FFB3
:1058700004A9095D41F4E0700121FBF761FFA6B9BD
:105880001DF8041041F4E0700221FBF759FF08A94C
:10589000095D41F4E0700221FBF752FF04A9095DA4
:1058A00041F4E0700221FBF74BFFA7B91DF804108B
:1058B00041F4E0700321FBF743FF08A9095D41F4BF
:1058C000E0700321FBF73CFF04A9095D41F4E0709F
:1058D0000321FBF735FF012D14D104A9095D41F423
:1058E000E0700121FBF72CFF08A9095D41F4E0708D
:1058F0000121FBF725FF1DF8041041F4E0700121A0
:10590000FBF71EFF012E14D104A9095D41F4E070DC
:105910000221FBF715FF08A9095D41F4E07002219F
:10592000FBF70EFF1DF8041041F4E0700221FBF7B5
:1059300007FF012F16D104A9095D41F4E07003218E
:1059400000E054E0FBF7FCFE08A9095D41F4E070BB
:105950000321FBF7F5FE1DF8041041F4E07003216C
:10596000FBF7EEFE022D14D11DF8041041F4E07097
:105970000121FBF7E5FE04A9095D41F4E070012176
:10598000FBF7DEFE08A9095D41F4E0700121FBF799
:10599000D7FE022E14D11DF8041041F4E07002214C
:1059A000FBF7CEFE04A9095D41F4E0700221FBF78C
:1059B000C7FE08A9095D41F4E0700221FBF7C0FEB3
:1059C000022F14D11DF8041041F4E0700321FBF7FD
:1059D000B7FE04A9095D41F4E0700321FBF7B0FEB6
:1059E00008A9095D41F4E0700321FBF7A9FEB8F1B5
:1059F000010F7DD1012C7CDB102C7ADC601EC4B23F
:105A0000A5B91DF8041041F4E0700121FBF798FEE0
:105A100008A9095D41F4E0700121FBF791FE04A99A
:105A2000095D41F4E0700121FBF78AFEA6B91DF87B
:105A3000041041F4E0700221FBF782FE08A9095D21
:105A400041F4E0700221FBF77BFE04A9095D41F4FB
:105A5000E0700221FBF774FE012D14D104A9095D49
:105A600041F4E0700121FBF76BFE08A9095D41F4E8
:105A7000E0700121FBF764FE1DF8041041F4E070B2
:105A80000121FBF75DFE012E14D104A9095D41F44B
:105A9000E0700221FBF754FE08A9095D41F4E070B3
:105AA0000221FBF74DFE1DF8041041F4E0700221C5
:105AB000FBF746FE022D14D11DF8041041F4E070EE
:105AC0000121FBF73DFE04A9095D41F4E0700121CD
:105AD000FBF736FE08A9095D41F4E0700121FBF7F0
