:020000040800F2
:1000000090560020690200088158000869510008D4
:100010007D5800088D1600089F7D00080000000034
:1000200000000000000000000000000065770008EC
:10003000B118000800000000EB0200087579000804
:10004000830200088302000883020008830200087C
:10005000830200088302000883020008830200086C
:10006000830200088302000883020008830200085C
:10007000830200088302000883020008830200084C
:10008000830200088302000883020008830200083C
:10009000830200088302000883020008891900080F
:1000A000830200088302000883020008830200081C
:1000B000057A000883020008517B000883020008CB
:1000C00083020008830200088302000883020008FC
:1000D000830200088302000883020008C57C000830
:1000E000B518000883020008830200088302000894
:1000F00083020008830200088302000883020008CC
:1001000083020008830200088302000883020008BB
:1001100083020008830200088302000883020008AB
:10012000830200088302000883020008830200089B
:10013000830200088302000883020008830200088B
:10014000830200088302000883020008830200087B
:10015000830200088302000883020008830200086B
:10016000830200088302000883020008830200085B
:10017000830200088302000883020008830200084B
:10018000830200088302000800F002F800F05CF827
:100190000AA090E8000C82448344AAF10107DA45E2
:1001A00001D100F051F8AFF2090EBAE80F0013F0D8
:1001B000010F18BFFB1A43F0010318474441010027
:1001C000644101000A444FF0000C10F8013B13F0A9
:1001D000070408BF10F8014B1D1108BF10F8015BA0
:1001E000641E05D010F8016B641E01F8016BF9D193
:1001F00013F0080F1EBF10F8014BAD1C0C1B09D1EA
:100200006D1E58BF01F801CBFAD505E014F8016B5B
:1002100001F8016B6D1EF9D59142D6D370470000ED
:100220000023002400250026103A28BF78C1FBD8FF
:10023000520728BF30C148BF0B6070471FB50DF093
:1002400056FC1FBD10B510BD00F054FF1146FFF75E
:10025000F5FF0CF0EBFC00F072FF03B4FFF7F2FFC8
:1002600003BC00F073FF00000948804709480047BD
:10027000FEE7FEE7FEE7FEE7FEE7FEE7FEE7FEE756
:10028000FEE7FEE704480549054A064B70470000B3
:100290009D790008890100089050002090560020A8
:1002A0009052002090520020EFF3108072B67047F9
:1002B00080F3108870471D484FF0FF010170002047
:1002C00080F309881A48012101701A484FF08051C3
:1002D000016062B6FEE717484FF080510160704739
:1002E00014484FF080510160704772B6EFF30980F7
:1002F00028B1203880E8F00F0F490968086000B580
:100300000E4880475DF804EB0D480E490A780270EC
:1003100009480D490A680260106890E8F00F203023
:1003200080F309884EF0040E62B6704722ED00E0BB
:10033000B200002004ED00E0B80000202F5A0008B1
:10034000A7000020A8000020C000002072B670475F
:1003500062B67047EFF3108072B6704780F3108872
:100360007047B0FA80F0704790FAA0F0704730BF45
:10037000704720BF70470000DFED2E0AB5EEC00ABF
:1003800060EE200ABDEEE01A11EE100AF1EE10FA4E
:1003900038BF401E00EE100ADFED271AF7EE005AB4
:1003A000B8EEC00ADFED274A244930EEC01A21EE2C
:1003B000210AFCEEC00A10EE900A00EE900A01EB52
:1003C0008000B8EE600ADFED1E0AF0EC012A11EEA3
:1003D000210AF6EE001AB0EC013AF0EC013A20EEF8
:1003E000001A20EE216A40EE615A20EE245A21EED6
:1003F000212A90ED004A00EE602A66EE010A40EEE6
:10040000400A05EE412A70EEA55AF0EE400A41EE90
:10041000210A46EE410A25EE011A00EE641A22EE88
:10042000820A63EEA00A03EE250A44EE010A30EECA
:10043000200A704783F9223E0000804354DC000804
:10044000ABAAAA3EABAA2A3E9FED3A0A5FEA920CFB
:1004500053D000BFB0EC011A0B1DF0EC010A21EEE5
:10046000011A00EEA01AB5EEC01AF1EE10FAC6BFDE
:10047000F1EEC10AC1ED000A81ED000AF0EC010ABB
:10048000191DB0EC011A60EEA00A41EE010AF5EE6A
:10049000C00AF1EE10FAC6BFF1EEE00AC3ED000AA1
:1004A00083ED000AB0EC011A0B1DF0EC010A21EEFD
:1004B000011A00EEA01AB5EEC01AF1EE10FAC6BF8E
:1004C000F1EEC10AC1ED000A81ED000AB0EC011A9B
:1004D000191DF0EC010A21EE011A00EEA01AB5EE8A
:1004E000C01AF1EE10FAC6BFF1EEC10AC3ED000A60
:1004F00083ED000ABCF1010CACD112F0030208BF7D
:10050000704700BFF0EC010A0B46B0EC011A091D60
:1005100060EEA00A41EE010AF5EEC00AF1EE10FA13
:10052000C6BFF1EEE00AC3ED000A83ED000A521ED9
:10053000E8D17047000000002DE9F00700EBC10989
:10054000DDE90778D0F800A0C9F800A007EB011496
:10055000D0F804A0251FA9F10406C9F804A003EBF4
:10056000C80907F1080C00F1080402EBC8024B1E91
:1005700031D000BFF2EC011A96ED002A92ED001A7C
:1005800002EBC802B4EC010A121FF4EC012A60EE7F
:10059000210A20EE010A32EE823A02EEA10AD9EDDA
:1005A000001A43EE410A09EBC80902EE610A16ED92
:1005B000012A083E42EE210A02EE410AECEC010A51
:1005C000ACEC010AB1EE400A85ED000A45ED010AE6
:1005D000083D5B1ECED190ED000AD0ED010A07EB7D
:1005E000C10130EE600A81ED000A9FED5D0A81EDE8
:1005F000010AD0ED000A90ED011A70EE810AC7EDF4
:10060000000A87ED010ABDE8F007704770B400EBFF
:10061000C105DDE903C42D1D002904BF70BC70476E
:10062000F2EC011A95ED002A92ED001A02EBC402D9
:10063000B0EC010A121FF0EC012A60EE210A20EE54
:10064000410A32EE823A02EEA10AD3ED001A43EEDD
:10065000010A03EBC40302EE610A15ED012A083D0D
:10066000491E42EE210A02EE010AECEC010AACEC52
:10067000010AD5D170BC70472DE9F04305464469A5
:10068000807983B00F461646012809D0A3892188B6
:100690003846626800F036F9E87901284ED053E018
:1006A000AA88D5E9030307EBC20CD5F808803146C8
:1006B0000CF1040C5AB300BFB0EC011A9CED002AF7
:1006C000D0ED001A00EBC800B7EC010A001FF7ECF0
:1006D000012A521E60EE010A20EE610A32EE823AD1
:1006E00002EE810A93ED001A43EE210A03EBC803E0
:1006F00002EE410A1CED012AACF1080C42EE010A9F
:1007000002EE210AE1EC010AA1EC010AD4D194ED38
:10071000040AA38921883046626800F095FAE879D6
:1007200001281CBF03B0BDE8F083E2892188A368DB
:1007300003B03046BDE8F04300F08CB8E289218870
:100740003846A36800F086F8A868CDE90060D5E9CE
:100750000323A9883846FFF7EFFE03B0BDE8F08316
:100760000000000070B592B2DDF810C055080260BC
:100770008580184EC66006F50056DBB2066100247F
:10078000837180F807C0802A04BF102282600BD0DA
:10079000B2F5007F08BF042212D0B2F5006F14BF7B
:1007A0004FF0FF3401220BD0002B8C4641614FF0FB
:1007B000000307D001222946604600F015FC06E040
:1007C0008260F1E700222946604600F00DFC2046D9
:1007D00070BD000060E0000870B40025B0EC010AB4
:1007E000A1F1010CF0EC010AB4EEE00AF1EE10FA0E
:1007F0003CBFB0EE600A0125ACF10104A446B4F19F
:10080000004F0ED3F0EC010AB4EEE00AF1EE10FA5C
:100810003CBFB0EE600AA1EB0C05BCF1010CF1D1BC
:1008200013E0002CC8BF00260FDD00BFF0EC010A6A
:10083000B4EEE00AF1EE10FA04D2ACEB0605B0EE2D
:10084000600A4D1B761C641EF0D182ED000A1D600B
:1008500070BC70472DE9F0014E0801244FF0000CE8
:1008600004EB51076146A6F102082CE061452AD24B
:1008700000EBCC0500EBC104D5ED000A94ED000AB5
:10088000C4ED000A85ED000AD5ED010A94ED010AD8
:10089000C4ED010A85ED010A0CEB0705CC1900EB4C
:1008A000C50500EBC404D5ED000A94ED000AC4EDC3
:1008B000000A85ED000AD5ED010A94ED010AC4EDA8
:1008C000010A85ED010A00EBC104B44400EBCC0C35
:1008D00094ED020ADCED000A891CC4ED020A8CEDDD
:1008E000000A94ED030ADCF80450E5608CED010A7F
:1008F000B3F800C089B203EB42034145B6D9BDE865
:10090000F00170472DE9F04F4FEA910C4FF00008CD
:100910004746644608EB0C0505EB0C0909EB0C0691
:1009200000EBC80A00EBC9099AED000AD9ED000AEC
:1009300099ED012A00EBC50530EE201A30EE600A71
:10094000DAED010A00EBC60608F1010870EE821A22
:1009500070EEC20A95ED002AD6ED002A641E32EE32
:10096000222A71EE022A31EE421ACAED002A95EDD2
:10097000012AD6ED012A32EE222A71EE822A71EE88
:10098000C21ACAED012A95ED012AD6ED012A96ED8B
:10099000003A4FEA470A32EE622AD5ED002A02EB0E
:1009A000CA0B72EEC32A9BED003ADBED013A21EE51
:1009B000034A01EEA34A61EE831A41EE631A85ED04
:1009C000004A30EE021A30EE420AC5ED011A02EB7F
:1009D000C70570EEE21A95ED002A70EEA20AD5ED79
:1009E000012A21EE023A0AEB070502EBC5051F4476
:1009F00001EEA23A61EE821A41EE621A89ED003AE6
:100A0000C9ED011AD5ED001A95ED011A20EE212A43
:100A100000EE812A60EEA10A40EE410A86ED002A2E
:100A2000C6ED010A7FF476AF9B044FEA134BE6460E
:100A3000BCF1040F7DD9E0464FEA9C0C4FF0000951
:100A4000CA46BCF1000F75D94FEA490404EB09030B
:100A500002EBC90502EBC40402EBC30395ED001AD7
:100A6000D5ED011A94ED000AD4ED010A93ED002AA8
:100A7000D3ED012AD94453468A4573D203EB0C04C3
:100A800004EB0C0606EB0C0500EBC30700EBC606F7
:100A900097ED003AD6ED003A96ED015A00EBC4040A
:100AA00073EE234A33EE633AD7ED013A00EBC50506
:100AB00033EE854A73EEC53A94ED005AD5ED005AEF
:100AC00035EE255A74EE855A74EEC54AC7ED005AC4
:100AD00094ED015AD5ED015A35EE255A74EE055ABA
:100AE00034EE454AC7ED015A94ED015AD5ED015A4D
:100AF00095ED006A35EE655AD4ED005A75EEC65A8A
:100B000024EE806A04EE206A24EE004A04EEE04AF5
:100B100084ED006A73EEE54A73EEA53A84ED014A6E
:100B200033EE054A33EE453A24EE015A04EEA15A5B
:100B300001E026E01BE064EE814A86ED005A434462
:100B40008B4244EE614A23EE024A03EEA24A63EE70
:100B5000823AC6ED014A43EE623A85ED004AC5EDA0
:100B6000013A8BD30AF1010AE245FFF46DAF4FEA77
:100B70008B434FEA9E0E4FEA134BBEF1040F3FF634
:100B80005AAFA1EB0C0100224B1C4FEA9C04002B36
:100B90008CBF1F46BDE8F08F11190E19331900EBF9
:100BA000C20500EBC60695ED000AD6ED000A95EDEC
:100BB000012A96ED011A70EE201A70EE600A32EEEC
:100BC000010A00EBC10100EBC30332EE411A91EDC3
:100BD000002AD3ED002A6244974232EE222A71EEB7
:100BE000822A31EEC22AC5ED002AD1ED011AD3EDD9
:100BF000012A71EEA21A70EE212AC5ED012A70EECB
:100C0000612A91ED010AD3ED011A93ED003A70EEDD
:100C1000611A91ED000A81ED002AC1ED012A30EE42
:100C2000430A30EEA12A70EEE10A71EE401A31EE6D
:100C3000000A86ED002AC6ED011AC3ED000A83ED15
:100C4000010AA9D8BDE8F08F2DE9F04F4FEA910CC9
:100C50004FF000084746644608EB0C0505EB0C0A0C
:100C60000AEB0C0600EBC80900EBCA0AD9ED000A32
:100C70009AED001ADAED012A00EBC50570EE811A33
:100C800070EEC10A99ED011A00EBC60608F10108E1
:100C900031EE222A31EE621AD5ED002A96ED003AA5
:100CA000641E72EE832A31EEA23A71EEE21A89EDE9
:100CB000003AD5ED012A96ED013A72EE832A32EE22
:100CC000223A32EE622A89ED013AD5ED012A96EDFB
:100CD000013AD6ED003A4FEA470972EEC32A95ED84
:100CE000003A02EBC90B33EE633ADBED003A9BEDC1
:100CF000014A61EEA34A42EE444A22EE232A01EE63
:100D0000842AC5ED004A70EEE21A70EEA20A85ED63
:100D1000012A02EBC70531EE032AD5ED002A31EE98
:100D2000431A95ED013A61EEA23A09EB070502EB91
:100D3000C5051F4442EE433A22EE222A01EE832AE1
:100D4000CAED003A8AED012AD5ED001A95ED012A87
:100D500060EEA12A41EE422A21EE211A00EE821A0B
:100D6000C6ED002A86ED011A7FF476AF9B044FEAA8
:100D7000134BE646BCF1040F7DD9E0464FEA9C0CCC
:100D80004FF00009CA46BCF1000F75D94FEA49047B
:100D900004EB090302EBC90502EBC40402EBC30335
:100DA000D5ED001A95ED012AD4ED000A94ED011A53
:100DB000D3ED002A93ED013AD94453468A4573D2C4
:100DC00003EB0C0404EB0C0606EB0C0500EBC3076D
:100DD00000EBC606D7ED003A96ED004AD6ED015A73
:100DE00000EBC40433EE845A73EEC43A97ED014A23
:100DF00000EBC50574EE254A34EE654AD4ED005A81
:100E000095ED006A75EE865A35EE256A35EE655A1F
:100E100087ED006AD4ED015A95ED016A75EE865AA8
:100E200034EEA56A74EEE54A87ED016AD4ED015A05
:100E300095ED016AD5ED006A75EEC65A94ED006A2B
:100E400036EE666A65EE206A44EEC16A64EEA04A38
:100E500045EE014AC4ED006A34EE065A34EE464AC5
:100E6000C4ED014A73EEE54A73EEA53A64EEA15A69
:100E700045EE425A01E026E01BE025EE215AC6ED80
:100E8000005A43448B4204EE825A63EEA24A44EE77
:100E9000434A24EE224A86ED015A03EE834AC5ED09
:100EA000004A85ED014A8BD30AF1010AE245FFF4BD
:100EB0006DAF4FEA8B434FEA9E0E4FEA134BBEF1E4
:100EC000040F3FF65AAFA1EB0C0100224B1C4FEA76
:100ED0009C06002B8CBF1F46BDE8F08F91198D1921
:100EE000AB1900EBC20400EBC505D4ED000AD5ED4B
:100EF000001AD4ED012A95ED012A30EEA11A70EE08
:100F0000E11A72EE820A00EBC10100EBC30332EE7C
:100F1000C22AD1ED002A93ED003A6244974272EE64
:100F2000832A31EE223A71EE622A23EE003A62EE13
:100F3000802A84ED003A91ED011A93ED013A31EEE9
:100F4000031A30EE813A23EE003A84ED013A30EE96
:100F5000C13AD1ED010A93ED011AD3ED003A30EE1A
:100F6000C11AD1ED000AC1ED002A63EE002A70EE2D
:100F7000E30AC1ED012A71EEC12A31EE811A72EE47
:100F8000201A72EE600A22EE802A21EE001A61EE2B
:100F9000801A85ED002A60EE800AC5ED011A83ED06
:100FA000001AC3ED010A99D8BDE8F08F30B50446A8
:100FB0000D4680782188A389626801280DD02846D3
:100FC000FFF7A0FCE078012818BF30BDE289218836
:100FD0002846A368BDE830403CE494ED040A284666
:100FE000FFF732FEEEE7000010B401801B4C4460B6
:100FF00082704FF0000CC370102925D040291BD0FF
:10100000B1F5807F10D0B1F5806F18BF4FF0FF3C75
:1010100002D010BC6046704701218181C181104916
:101020009FED100A816016E004218181C1810E4983
:101030009FED0E0A81600EE010218181C1810C4973
:101040009FED0C0A816006E040218181C1810A493F
:101050009FED0A0A816080ED040ADAE7602001084A
:10106000604001080000803A664001080000803BB3
:101070007E4001080000803CDE4001080000803D09
:1010800010B5203AC0F00B80B1E81850203AA0E823
:101090001850B1E81850A0E81850BFF4F5AF5FEA57
:1010A000027C24BFB1E81850A0E8185044BF18C90A
:1010B00018C0BDE810405FEA827C24BF51F8043BB1
:1010C00040F8043B08BF7047D20728BF31F8023B05
:1010D00048BF11F8012B28BF20F8023B48BF00F899
:1010E000012B7047704770477047000000487047F9
:1010F0002C5000207546FFF7F9FFAE460500694603
:10110000534620F00700854618B020B5FFF7BAF81F
:10111000BDE820404FF000064FF000074FF00008F8
:101120004FF0000B21F00701AC46ACE8C009ACE879
:10113000C009ACE8C009ACE8C0098D467047044658
:10114000AFF300802046FFF788F870470149182068
:10115000ABBEFEE72600020010B5002301221146B7
:10116000034800F0FDF8024800F057F910BD0000F8
:101170000020014010B5002301220421034800F0A3
:10118000EFF8024800F049F910BD000000200140CE
:1011900010B5002301220721034800F0E1F80248BE
:1011A00000F03BF910BD00000020014000B58DB0FB
:1011B00001211F4806F0A6FA0120019003208DF8B6
:1011C000080000208DF80B0001A91A4800F074FDFA
:1011D0000020039004900590069003A800F064F8A6
:1011E000002007908DF8200001208DF821000020BC
:1011F00009900B9001208DF8300007A90E4800F0EF
:1012000085F80023012208210B4800F0A9F80121EC
:10121000094800F070F80121074800F061F8012149
:10122000054800F035F8044800F0F7F80DB000BDAF
:1012300002004000000402400021014010B50023DC
:1012400001220A21034800F08BF8024800F0E5F87B
:1012500010BD00000022014010B5002301220B2127
:10126000034800F07DF8024800F0D7F810BD0000F8
:101270000022014010B5002301220C21034800F098
:101280006FF8024800F0C9F810BD000000220140CC
:1012900021B1826842F00102826003E0826822F09C
:1012A000010282607047000000210A4A11680A4A60
:1012B00001EA0201D0E9002342EA0302836842EA1C
:1012C0000302C36842EA030242EA0101034AC2F888
:1012D0000413704704230140E030FCFF002001406C
:1012E00021B1826842F48072826003E0826822F455
:1012F00080728260704721B1826842F4007282601D
:1013000003E0826822F400728260704730B50246C2
:10131000002000235068104C20400D790C6844EAEE
:1013200005242043506090680C4C2040D1E90354C0
:101330002C438D682C434D7944EA4504204390604A
:10134000D06A20F470000C7D641EE4B2234340EAAE
:101350000350D06230BD0000FFFEFFFCFDF7FFC070
:1013600070B504468C4600200021BCF1090F11DD48
:10137000E068ACF10A0505EB4506072505FA06F11C
:101380008843ACF10A0505EB450503FA05F108436E
:10139000E0600CE020690CEB4C06072505FA06F12D
:1013A00088430CEB4C0503FA05F108432061072A3A
:1013B0000FDA606B551E05EB85061F2505FA06F151
:1013C0008843551E05EB85050CFA05F1084360635B
:1013D00022E00D2A0FDA206BD51F05EB85061F25AD
:1013E00005FA06F18843D51F05EB85050CFA05F1D2
:1013F0000843206310E0E06AA2F10D0505EB8506C5
:101400001F2505FA06F18843A2F10D0505EB8505B8
:101410000CFA05F10843E06270BD816841F080413B
:101420008160704710B503F0CDFE10BD70B5044665
:10143000002603F093FF2546E11704EB1161091222
:10144000A02202EB4101C8B203F046FF03F0DEFF29
:10145000E11704EB11610912A4EB0121C8B203F0FA
:101460003BFF03F0D3FF03F079FFA12003F034FF2B
:1014700003F0CCFF002003F0F5FE064603F09AFFD0
:10148000304670BD70B504460E4603F067FF254632
:10149000E11704EB11610912A02202EB4101C8B26D
:1014A00003F01AFF03F0B2FFE11704EB1161091218
:1014B000A4EB0121C8B203F00FFF03F0A7FF3046F1
:1014C00003F00AFF03F0A2FF03F074FF0A200BF001
:1014D000B7FA70BD70B504F08BFE63480078012840
:1014E00078D14103614800F02FFC00284BD16048BF
:1014F00001686048007807F06BF80546012D0BD1B4
:101500005C48007800EB40005B4A10444178594841
:10151000007804F025F904E000215648007804F032
:101520001FF954480078401C524908700AE051489D
:10153000007800EB4000504A104441784D48007854
:1015400004F00EF94FF40051484800F0FDFB00286C
:10155000EDD048480078202802DD01204549087078
:10156000444804780CE042480168204607F030F80F
:101570000546012D02D13F48047003E0601CC4B24F
:10158000202CF0DD00BF4FF40061384800F0DCFB98
:1015900000284CD1364801683648007807F018F822
:1015A0000546012D0BD13348007800EB4000324A4C
:1015B000104441782F48007804F0D2F804E000216C
:1015C0002C48007804F0CCF82A480078401E2949BD
:1015D00008700BE046E02748007800EB4000264A00
:1015E000104441782348007804F0BAF84FF40061C1
:1015F0001E4800F0A9FB0028EDD01E480078012805
:1016000002DA20201B4908701A4804780CE01848B8
:101610000168204606F0DCFF0546012D02D1154881
:10162000047003E0601EC4B2012CF0DA00BF012197
:101630001048007804F094F832200BF001FA0021F1
:101640000C48007804F08CF832200BF0F9F90948C6
:10165000007800EB4000084A1044417805480078C3
:1016600004F07EF870BD000028010020000C02404C
:1016700070000020680000204801002010B504F030
:1016800083FB10BD10B504F097FB10BD00BFFEE753
:1016900070B506460C46012C26DB062C24DC002502
:1016A00020E016F0010F05D04FF400713F4800F024
:1016B00056FB04E04FF400713C4800F04EFB4FF441
:1016C00080713A4800F049FB761004200BF0DCF9F9
:1016D0004FF48071354800F042FB04200BF0D4F940
:1016E000681CC5B20C2DDCDB012C0DD1012130486A
:1016F00000F035FB04200BF0C7F901212C4800F065
:101700002CFB04200BF0C0F9022C0DD1022128483B
:1017100000F025FB04200BF0B7F90221244800F06B
:101720001CFB04200BF0B0F9032C0DD10421204840
:1017300000F015FB04200BF0A7F904211C4800F071
:101740000CFB04200BF0A0F9042C0DD10821184843
:1017500000F005FB04200BF097F90821144800F075
:10176000FCFA04200BF090F9052C0DD11021104843
:1017700000F0F5FA04200BF087F910210C4800F076
:10178000ECFA04200BF080F9062C0DD1202108483A
:1017900000F0E5FA04200BF077F92021044800F06E
:1017A000DCFA04200BF070F970BD00000004024068
:1017B000000C02401CB50121022005F0A3FF4FF4EC
:1017C0004070009001208DF8040000208DF8060084
:1017D00002208DF8050069460D4800F06DFA0121E0
:1017E000082005F08FFF3F20009001208DF80400B5
:1017F00000208DF8060002208DF805006946054896
:1018000000F05AFA032140F20140FFF741FF1CBDEE
:1018100000040240000C024070B500250DE00024D9
:1018200007E00020A040C1B2284606F0E1FA601CA3
:10183000C4B2042CF5DB681CC5B2202DEFDB70BDF3
:1018400021B1026842F00102026003E0026822F066
:10185000010202607047000010B500220268134BBD
:101860001A40CC680B6823434C6923438C6923439B
:10187000CC6923430C6A23434C6A23438C6A234379
:101880004C6B23438C6B23431A430260426922F062
:101890000702D1E90B3423431A4342610B694360C9
:1018A0004B6883608B68C36010BD00003F801CF0F4
:1018B0007047000010B504F031F84FF4805000F08C
:1018C00019F918B32B48007801281FD12A4800784D
:1018D00001281BD14FF47A700BF0D6F84FF48051E9
:1018E000264800F031FA88B90021254800780BF02D
:1018F00067FA00212248007803F032FF00202049D7
:10190000097801EB41011F4A114448704FF480509F
:1019100000F05CF84FF4804000F0ECF818B3154884
:10192000007801281FD11448007801281BD14FF4FA
:101930007A700BF0A9F84FF48041104800F004FAD7
:1019400088B901210E4800780BF03AFA01210C48C1
:10195000007803F005FF01200949097801EB4101F6
:10196000084A114448704FF4804000F02FF803F00B
:10197000E7FF10BD2801002069000020000C024094
:10198000680000204801002010B503F0C7FF4FF4A5
:10199000807000F0AFF84FF4807000F017F84FF44B
:1019A000007000F0A7F840B14FF47A700BF06CF8BB
:1019B0004FF40071044800F0C7F94FF4007000F0D4
:1019C00005F803F0BDFF10BD000C0240014908609E
:1019D00070470000143C014000B585B00121880328
:1019E00005F0B0FE0121102005F08CFE4FF4807050
:1019F000039000208DF8100003A9394800F05CF92D
:101A00000821042005F0B0FE4FF480700190002002
:101A10008DF808000C208DF8090001208DF80A00CF
:101A200001A800F07BF817208DF8000002208DF847
:101A300001008DF8020001208DF80300684603F0D4
:101A400027FF4FF4807000F04DF80C21032005F0C3
:101A50008BFE4FF48050019000208DF808000C2080
:101A60008DF8090001208DF80A0001A800F056F851
:101A700028208DF8000001208DF801008DF802006B
:101A80008DF80300684603F003FF4FF4805000F028
:101A900029F80E21032005F067FE4FF480400190E5
:101AA00000208DF808000C208DF8090001208DF829
:101AB0000A0001A800F032F828208DF8000001206B
:101AC0008DF801008DF802008DF80300684603F0E0
:101AD000DFFE4FF4804000F005F805B000BD0000C7
:101AE00000100240024909680143014A1160704731
:101AF000103C0140014600200022074B1B6803EA0E
:101B00000102054B14331B680B4202D00AB10120BD
:101B100000E0002070470000003C01400021234904
:101B20008279002A3AD00A46126803689A430B4623
:101B30001A600A1D126803689A430B1D1A60027925
:101B400011440A6803681A430A60184A0832126886
:101B500003689A43154B08331A601A1D126803680C
:101B60009A43124B0C331A604279102A0ED11A1F75
:101B7000126803681A430D4B08331A601A1D126865
:101B800003681A43094B0C331A600DE00749427988
:101B900011440A6803681A430A6005E00279114497
:101BA0000A6803689A430A6070470000003C0140DD
:101BB0001CB50121082005F0A5FD4BF640700090F2
:101BC00001208DF8040000208DF8060003208DF818
:101BD000050001208DF807006946334800F06CF8D5
:101BE0000121042005F08EFD41F6F07000900120E7
:101BF0008DF8040002208DF8050069462B4800F09E
:101C00005BF80121084605F07DFD0C2000900120C5
:101C10008DF8040002208DF805006946244800F084
:101C20004BF80121022005F06DFD022000900120FB
:101C30008DF8040002208DF8050069461D4800F06B
:101C40003BF80420009001208DF8040002208DF85C
:101C500005006946174800F02FF808200090012081
:101C60008DF8040002208DF805006946114800F047
:101C700023F803F049FAFFF7D5FB03F037FDFFF730
:101C800099FD41F61F4141F2873005F075FF41F69D
:101C90001F4141F2873005F02BFFFFF79DFE03F057
:101CA00025FCFFF783FA1CBD000C0240000802402F
:101CB000000002400004024070B50A4600210023E3
:101CC0008C4600BF3DE0012404FA01F3146804EAE5
:101CD000030C9C4534D104684E000325B540AC4349
:101CE000046014794D00AC4005682C4304601479FD
:101CF000012C02D01479022C16D184684E000325E1
:101D0000B540AC43846054794D00AC4085682C43A9
:101D10008460446801258D40AC43446044689579F3
:101D20008D40ADB22C434460C4684E000325B540DD
:101D3000AC43C460D4794D00AC40C5682C43C4604A
:101D4000491C1029BFD370BD0246002013690B4205
:101D500001D0012000E000207047418370470183DB
:101D600070470000F0B58BB00446142226A106A8E7
:101D7000FFF786F9142229A101A8FFF781F90121B3
:101D80001C2006F035F801211F2006F031F8012152
:101D9000192006F02DF82648007818B90A211F20CE
:101DA00006F026F822480078012803D10C211F20D4
:101DB00006F01EF8642094FBF0F0C5B2642094FB9A
:101DC000F0F100FB11400A2190FBF1F0C6B20A20AD
:101DD00094FBF0F100FB1140C7B206A8022212FBEF
:101DE0000501082005F0DEFF06A8022212FB06010D
:101DF0000A2005F0D7FF01A8022212FB07010C20E0
:101E000005F0D0FF0BB0F0BD050F0006060B020F6A
:101E10000306030D070D0007070F030F0D0F08063C
:101E20000E0B0A0F0B060B0D0F0D08070F0F0B0FF4
:101E3000280100202DE9F04F9BB004460D461646C0
:101E40001422CCA10FA8FFF71BF91422CEA10AA8D7
:101E5000FFF716F91422D1A105A8FFF711F91422F2
:101E6000D3A16846FFF70CF901211C2005F0C0FF43
:101E700001211F2005F0BCFFD248007818B90821C5
:101E8000182005F0B5FFCF480078012803D10C21B8
:101E9000182005F0ADFFCB480078022803D10A21B5
:101EA000182005F0A5FFC7480078032803D10921B1
:101EB000182005F09DFF08211B2005F099FF4FF425
:101EC0007A7094FBF0F0C0B21A904FF47A7094FBE1
:101ED000F0F100FB1140642190FBF1F0C0B21990C9
:101EE000642094FBF0F100FB11400A2190FBF1F01B
:101EF000C0B218900A2094FBF0F100FB1140C0B270
:101F00001790B1480078012809D10FA802211A9A28
:101F100011FB02030A461946162005F043FFAA48A2
:101F2000007818B90221172005F062FF05A90222E6
:101F3000199812FB00131946142005F033FF0FA95E
:101F40000222189812FB00131946122005F02AFFEE
:101F50000FA90222179812FB00131946102005F052
:101F600021FF4FF47A7095FBF0F0C0B216904FF459
:101F70007A7095FBF0F100FB1150642190FBF1F0B9
:101F8000C7B2642095FBF0F100FB11500A2190FBD1
:101F9000F1F000F0FF080A2095FBF0F100FB115072
:101FA00000F0FF091698002825DD0FA80221169AD7
:101FB00011FB02030A4619460E2005F0F3FE0AA89B
:101FC000022111FB07030A461946082005F0EAFE24
:101FD0000AA8022111FB08030A4619460A2005F047
:101FE000E1FE6846022111FB09030A4619460C204E
:101FF00005F0D8FE2FE0002F1BDD0AA8022111FBFF
:1020000007030A461946082005F0CCFE0AA802215B
:1020100011FB08030A4619460A2005F0C3FE68466C
:10202000022111FB09030A4619460C2005F0BAFEED
:1020300011E00AA8022111FB08030A4619460A20EA
:1020400005F0B0FE6846022111FB09030A46194655
:102050000C2005F0A7FE4FF47A70B6FBF0F0C0B28A
:1020600015904FF47A70B6FBF0F100FB116064211B
:10207000B0FBF1F000F0FF0A6420B6FBF0F100FBCA
:1020800011600A21B0FBF1FB0A20B6FBF0F100FB66
:10209000116014904D48007818B90A211F2005F0EE
:1020A000A7FE4A480078012803D10C211F2005F023
:1020B0009FFE1598002826DD0AA80221159A11FB1B
:1020C00002030A461946002005F06CFE0AA8022108
:1020D00011FB0A030A461946022005F063FE0AA80E
:1020E000022111FB0B030A461946042005F05AFE93
:1020F0000AA80221149A11FB02030A461946062077
:1021000005F050FE32E0BAF1000F1CDD0AA80221F2
:1021100011FB0A030A461946022005F043FE0AA8ED
:10212000022111FB0B030A461946042005F03AFE72
:102130000AA80221149A11FB02030A461946062036
:1021400005F030FE12E00AA8022111FB0B030A463B
:102150001946042005F026FE0AA80221149A11FB54
:1021600002030A461946062005F01CFE1BB0BDE816
:10217000F08F00000F0506000B060F0206030D038B
:102180000D0707000F070F03050F0006060B020FD0
:102190000306030D070D0007070F030F0F0D0608B9
:1021A0000B0E0F0A060B0D0B0D0F07080F0F0F0B71
:1021B0000D0F08060E0B0A0F0B060B0D0F0D08076F
:1021C0000F0F0B0F570000205F0000202801002098
:1021D0002DE9F04F9BB004460D4616461422CCA1C3
:1021E0000FA8FEF74DFF1422CEA10AA8FEF748FF64
:1021F0001422D1A105A8FEF743FF1422D3A16846FB
:10220000FEF73EFF01211C2005F0F2FD01211F20F9
:1022100005F0EEFD0A211B2005F0EAFDD04800780C
:1022200018B90021182005F0E3FDCD4800780128F9
:1022300003D10421182005F0DBFDC94800780228ED
:1022400003D10221182005F0D3FDC54800780328EA
:1022500003D10121182005F0CBFD4FF47A7094FBD7
:10226000F0F0C0B21A904FF47A7094FBF0F100FBDA
:102270001140642190FBF1F0C0B21990642094FBEE
:10228000F0F100FB11400A2190FBF1F0C0B2189070
:102290000A2094FBF0F100FB1140C0B21790B14846
:1022A0000078012809D10FA802211A9A11FB020314
:1022B0000A461946162005F075FDAA48007818B997
:1022C0000221172005F094FD05A90222199812FB9E
:1022D00000131946142005F065FD0FA90222189875
:1022E00012FB00131946122005F05CFD0FA9022213
:1022F000179812FB00131946102005F053FD4FF4F8
:102300007A7095FBF0F0C0B216904FF47A7095FB9E
:10231000F0F100FB1150642190FBF1F0C7B2642092
:1023200095FBF0F100FB11500A2190FBF1F000F059
:10233000FF080A2095FBF0F100FB115000F0FF09A7
:102340001698002825DD0FA80221169A11FB02031A
:102350000A4619460E2005F025FD0AA8022111FBA8
:1023600007030A461946082005F01CFD0AA80221A9
:1023700011FB08030A4619460A2005F013FD6846BA
:10238000022111FB09030A4619460C2005F00AFD3B
:102390002FE0002F1BDD0AA8022111FB07030A46CC
:1023A0001946082005F0FEFC0AA8022111FB0803CB
:1023B0000A4619460A2005F0F5FC6846022111FB81
:1023C00009030A4619460C2005F0ECFC11E00AA8A6
:1023D000022111FB08030A4619460A2005F0E2FC17
:1023E0006846022111FB09030A4619460C2005F034
:1023F000D9FC4FF47A70B6FBF0F0C0B215904FF4F0
:102400007A70B6FBF0F100FB11606421B0FBF1F0D3
:1024100000F0FF0A6420B6FBF0F100FB11600A2116
:10242000B0FBF1FB0A20B6FBF0F100FB1160149049
:102430004D48007818B90A211F2005F0D9FC4A48F8
:102440000078012803D10C211F2005F0D1FC15983C
:10245000002826DD0AA80221159A11FB02030A466C
:102460001946002005F09EFC0AA8022111FB0A0370
:102470000A461946022005F095FC0AA8022111FB24
:102480000B030A461946042005F08CFC0AA8022119
:10249000149A11FB02030A461946062005F082FC35
:1024A00032E0BAF1000F1CDD0AA8022111FB0A0379
:1024B0000A461946022005F075FC0AA8022111FB04
:1024C0000B030A461946042005F06CFC0AA80221F9
:1024D000149A11FB02030A461946062005F062FC15
:1024E00012E00AA8022111FB0B030A461946042038
:1024F00005F058FC0AA80221149A11FB02030A46AF
:102500001946062005F04EFC1BB0BDE8F08F000018
:102510000F0506000B060F0206030D030D0707004B
:102520000F070F03050F0006060B020F0306030D2E
:10253000070D0007070F030F0F0D06080B0E0F0AFC
:10254000060B0D0B0D0F07080F0F0F0B0D0F0806D5
:102550000E0B0A0F0B060B0D0F0D08070F0F0B0FBD
:10256000570000205E000020280100202DE9F04FD8
:102570009BB004460D4616461422CCA10FA8FEF7C8
:102580007FFD1422CEA10AA8FEF77AFD1422D1A164
:1025900005A8FEF775FD1422D3A16846FEF770FD6D
:1025A00001211C2005F024FC01211F2005F020FC46
:1025B0000C211B2005F01CFCD048007818B9002124
:1025C000182005F015FCCD480078012803D104211E
:1025D000182005F00DFCC9480078022803D102211B
:1025E000182005F005FCC5480078032803D1012117
:1025F000182005F0FDFB4FF47A7094FBF0F0C0B2A8
:102600001A904FF47A7094FBF0F100FB11406421B2
:1026100090FBF1F0C0B21990642094FBF0F100FB44
:1026200011400A2190FBF1F0C0B218900A2094FBEF
:10263000F0F100FB1140C0B21790B14800780128BA
:1026400009D10FA802211A9A11FB02030A46194662
:10265000162005F0A7FBAA48007818B90221172018
:1026600005F0C6FB05A90222199812FB00131946B2
:10267000142005F097FB0FA90222189812FB0013F3
:102680001946122005F08EFB0FA90222179812FBA3
:1026900000131946102005F085FB4FF47A7095FB66
:1026A000F0F0C0B216904FF47A7095FBF0F100FB99
:1026B0001150642190FBF1F0C7B2642095FBF0F15A
:1026C00000FB11500A2190FBF1F000F0FF080A20F6
:1026D00095FBF0F100FB115000F0FF09169800285F
:1026E00025DD0FA80221169A11FB02030A4619469E
:1026F0000E2005F057FB0AA8022111FB07030A462A
:102700001946082005F04EFB0AA8022111FB080318
:102710000A4619460A2005F045FB6846022111FBCE
:1027200009030A4619460C2005F03CFB2FE0002F58
:102730001BDD0AA8022111FB07030A4619460820DF
:1027400005F030FB0AA8022111FB08030A461946CE
:102750000A2005F027FB6846022111FB09030A46FF
:1027600019460C2005F01EFB11E00AA8022111FBFE
:1027700008030A4619460A2005F014FB68460221A0
:1027800011FB09030A4619460C2005F00BFB4FF418
:102790007A70B6FBF0F0C0B215904FF47A70B6FBC9
:1027A000F0F100FB11606421B0FBF1F000F0FF0AD2
:1027B0006420B6FBF0F100FB11600A21B0FBF1FBD5
:1027C0000A20B6FBF0F100FB116014904D48007830
:1027D00018B90A211F2005F00BFB4A480078012890
:1027E00003D10C211F2005F003FB1598002826DDDE
:1027F0000AA80221159A11FB02030A461946002075
:1028000005F0D0FA0AA8022111FB0A030A4619466C
:10281000022005F0C7FA0AA8022111FB0B030A46A1
:102820001946042005F0BEFA0AA80221149A11FBE9
:1028300002030A461946062005F0B4FA32E0BAF15E
:10284000000F1CDD0AA8022111FB0A030A461946E3
:10285000022005F0A7FA0AA8022111FB0B030A4681
:102860001946042005F09EFA0AA80221149A11FBC9
:1028700002030A461946062005F094FA12E00AA857
:10288000022111FB0B030A461946042005F08AFABF
:102890000AA80221149A11FB02030A4619460620CF
:1028A00005F080FA1BB0BDE8F08F00000F050600B0
:1028B0000B060F0206030D030D0707000F070F039A
:1028C000050F0006060B020F0306030D070D000798
:1028D000070F030F0F0D06080B0E0F0A060B0D0B4B
:1028E0000D0F07080F0F0F0B0D0F08060E0B0A0F29
:1028F0000B060B0D0F0D08070F0F0B0F57000020D5
:102900005F000020280100202DE9F04F9BB0044615
:102910000D4616461422CEA10FA8FEF7B1FB1422D5
:10292000D0A10AA8FEF7ACFB1422D3A105A8FEF79C
:10293000A7FB1422D5A16846FEF7A2FB01211C20AB
:1029400005F056FA01211F2005F052FA04211A2041
:1029500005F04EFAD248007818B90021182005F089
:1029600047FACF480078012803D10421182005F048
:102970003FFACB480078022803D10221182005F045
:1029800037FAC7480078032803D10121182005F041
:102990002FFA08211B2005F02BFA4FF47A7094FBD4
:1029A000F0F0C0B21A904FF47A7094FBF0F100FB93
:1029B0001140642190FBF1F0C0B21990642094FBA7
:1029C000F0F100FB11400A2190FBF1F0C0B2189029
:1029D0000A2094FBF0F100FB1140C0B21790B148FF
:1029E0000078012809D10FA802211A9A11FB0203CD
:1029F0000A461946162005F0D5F9AA48007818B9F4
:102A00000221172005F0F4F905A90222199812FBFA
:102A100000131946142005F0C5F90FA902221898D1
:102A200012FB00131946122005F0BCF90FA902226F
:102A3000179812FB00131946102005F0B3F94FF454
:102A40007A7095FBF0F0C0B216904FF47A7095FB57
:102A5000F0F100FB1150642190FBF1F0C7B264204B
:102A600095FBF0F100FB11500A2190FBF1F000F012
:102A7000FF080A2095FBF0F100FB115000F0FF0960
:102A80001698002825DD0FA80221169A11FB0203D3
:102A90000A4619460E2005F085F90AA8022111FB05
:102AA00007030A461946082005F07CF90AA8022106
:102AB00011FB08030A4619460A2005F073F9684617
:102AC000022111FB09030A4619460C2005F06AF998
:102AD0002FE0002F1BDD0AA8022111FB07030A4685
:102AE0001946082005F05EF90AA8022111FB080327
:102AF0000A4619460A2005F055F96846022111FBDD
:102B000009030A4619460C2005F04CF911E00AA801
:102B1000022111FB08030A4619460A2005F042F972
:102B20006846022111FB09030A4619460C2005F0EC
:102B300039F94FF47A70B6FBF0F0C0B215904FF44B
:102B40007A70B6FBF0F100FB11606421B0FBF1F08C
:102B500000F0FF0A6420B6FBF0F100FB11600A21CF
:102B6000B0FBF1FB0A20B6FBF0F100FB1160149002
:102B70004D48007818B90A211F2005F039F94A4854
:102B80000078012803D10C211F2005F031F9159898
:102B9000002826DD0AA80221159A11FB02030A4625
:102BA0001946002005F0FEF80AA8022111FB0A03CD
:102BB0000A461946022005F0F5F80AA8022111FB81
:102BC0000B030A461946042005F0ECF80AA8022176
:102BD000149A11FB02030A461946062005F0E2F892
:102BE00032E0BAF1000F1CDD0AA8022111FB0A0332
:102BF0000A461946022005F0D5F80AA8022111FB61
:102C00000B030A461946042005F0CCF80AA8022155
:102C1000149A11FB02030A461946062005F0C2F871
:102C200012E00AA8022111FB0B030A4619460420F0
:102C300005F0B8F80AA80221149A11FB02030A460B
:102C40001946062005F0AEF81BB0BDE8F08F000075
:102C50000F0506000B060F0206030D030D07070004
:102C60000F070F03050F0006060B020F0306030DE7
:102C7000070D0007070F030F0F0D06080B0E0F0AB5
:102C8000060B0D0B0D0F07080F0F0F0B0D0F08068E
:102C90000E0B0A0F0B060B0D0F0D08070F0F0B0F76
:102CA0005700002060000020280100202DE9F04F8F
:102CB00091B004460D4616461422DCA105A8FEF785
:102CC000DFF91422DEA16846FEF7DAF901211C20A3
:102CD00005F08EF801211F2005F08AF8DD48007804
:102CE00018B90A211F2005F083F8DA480078012876
:102CF00003D10C211F2005F07BF84FF47A70B4FB50
:102D0000F0F0C0B210904FF47A70B4FBF0F100FB19
:102D100011406421B0FBF1F0C0B20F906420B4FB0D
:102D2000F0F100FB11400A21B0FBF1F70A20B4FBDF
:102D3000F0F100FB11484FF47A70B5FBF0F0C0B22F
:102D40000E904FF47A70B5FBF0F100FB1150642146
:102D5000B0FBF1F0C0B20D906420B5FBF0F100FBC8
:102D600011500A21B0FBF1F90A20B5FBF0F100FB8C
:102D7000115A4FF47A70B6FBF0F0C0B20C904FF4D9
:102D80007A70B6FBF0F100FB11606421B0FBF1F04A
:102D9000C0B20B906420B6FBF0F100FB11600A2179
:102DA000B0FBF1F00A900A20B6FBF0F100FB116BCA
:102DB0001098002825DD05A90222109812FB0013A7
:102DC0001946162004F0EEFF05A802210F9A11FB08
:102DD00002030A461946142004F0E4FF05A8022164
:102DE00011FB07030A461946122004F0DBFF05A871
:102DF000022111FB08030A461946102004F0D2FFF5
:102E00003DE00F9800281CDD05A802210F9A11FB58
:102E100002030A461946142004F0C4FF05A8022143
:102E200011FB07030A461946122004F0BBFF05A850
:102E3000022111FB08030A461946102004F0B2FFD4
:102E40001DE0002F12DD05A8022111FB07030A4631
:102E50001946122004F0A6FF05A8022111FB080361
:102E60000A461946102004F09DFF08E005A802213B
:102E700011FB08030A461946102004F093FF0E9830
:102E8000002825DD05A902220E9812FB0013194621
:102E90000E2004F087FF684602210D9A11FB020301
:102EA0000A461946082004F07DFF6846022111FBFE
:102EB00009030A4619460A2004F074FF68460221F5
:102EC00011FB0A030A4619460C2004F06BFF3EE092
:102ED0000D9800281CDD684602210D9A11FB0203A3
:102EE0000A461946082004F05DFF6846022111FBDE
:102EF00009030A4619460A2004F054FF68460221D5
:102F000011FB0A030A4619460C2004F04BFF1EE091
:102F1000B9F1000F12DD6846022111FB09030A46D0
:102F200019460A2004F03EFF6846022111FB0A03FD
:102F30000A4619460C2004F035FF08E068460221D5
:102F400011FB0A030A4619460C2004F02BFF0C98CB
:102F5000002826DD694602220C9812FB0013194650
:102F6000002004F01FFF684602210B9A11FB0203A8
:102F70000A461946022004F015FF684602210A9A03
:102F800011FB02030A461946042004F00BFF6846B1
:102F9000022111FB0B030A461946062004F002FF2A
:102FA00040E00B9800281DDD684602210B9A11FBBA
:102FB00002030A461946022004F0F4FE6846022184
:102FC0000A9A11FB02030A461946042004F0EAFE9D
:102FD0006846022111FB0B030A461946062004F03D
:102FE000E1FE1FE00A98002813DD684602210A9AD4
:102FF00011FB02030A461946042004F0D3FE68467A
:10300000022111FB0B030A461946062004F0CAFEF2
:1030100008E06846022111FB0B030A461946062008
:1030200004F0C0FE11B0BDE8F08F00000F050600EF
:103030000B060F0206030D030D0707000F070F0312
:10304000050F0006060B020F0306030D070D000710
:10305000070F030F2801002000B58BB01422F8A140
:1030600006A8FEF70DF81422FAA101A8FEF708F849
:10307000FD48007800283DDD4FF48051FB48FEF705
:1030800063FEC0B9FA48007830B9FA480078401CAD
:10309000F849087002F056FB00BF4FF48051F34826
:1030A000FEF752FE0028F8D0F2480078062802DD2C
:1030B0000120F04908704FF48041EC48FEF744FECF
:1030C000C0B9EB48007830B9EA480078401EE949B9
:1030D000087002F037FB00BF4FF48041E348FEF771
:1030E00033FE0028F8D0E3480078012802DA0620F1
:1030F000E0490870DF48007806287CD2DFE800F05D
:103100007B03DAFEFDFC8021DB48FEF71DFE80B963
:10311000FEF782FBD94A128802EB82025204110C9C
:10312000D74A127802EB82025000D64A1268FEF7A4
:1031300081FE8021D048FEF707FE01287ED14103A1
:10314000CA48FEF701FEC0B9C9480078A8B902F024
:10315000F9FACD480078401CCB49087000BF4FF405
:103160000051C248FEF7F0FD0028F8D0C6480078AC
:10317000032802DD0120C44908704FF40061BB48F8
:10318000FEF7E2FDC0B9BA480078A8B902F0DAFA51
:10319000BD480078401EBC49087000BF4FF4006174
:1031A000B248FEF7D1FD0028F8D0B74800780128D2
:1031B00002DA0320B4490870B348007801282ED100
:1031C000B248007890B9FEF727FBB14A128802EBAB
:1031D00082025204110CAF4A127802EB82025000B4
:1031E000AD4A1378AD4A1268FEF7F2FFA74800789F
:1031F000012814D100E055E2FEF70EFBA84A128820
:1032000002EB82025204110CA64A127802EB8202EF
:103210005000A54A1378A54A1268FFF775FB9A4833
:103220000078022814D1FEF7F7FAA14A128802EBBF
:1032300082025204110C9F4A127800E039E002EB3E
:10324000820250009C4A13789C4A1268FFF78EF95C
:103250008D48007803282CD18C480078012812D1A1
:10326000FEF7DAFA8A4A128802EB82025204110C43
:10327000884A127802EB82025000874A1378874A04
:103280001268FEF7A5FF8148007890B9FEF7C4FAEE
:10329000834A128802EB82025204110C814A12788E
:1032A00002EB82025000804A1378804A1268FFF7CE
:1032B0002BFB06E280217048FEF746FD48B9FEF779
:1032C000ABFA40F2F5127E4801887E48008800F093
:1032D0000FFA80216848FEF737FD012879D14103B4
:1032E0006248FEF731FDE0B961480078C8B902F0E4
:1032F00029FA7548007802E0DBE1D4E173E0401C74
:103300007149087000BF4FF400515848FEF71CFD8A
:103310000028F8D06C480078032802DD01206A49B3
:1033200008704FF400615148FEF70EFDC0B95048D7
:103330000078A8B902F006FA63480078401E624996
:10334000087000BF4FF400614848FEF7FDFC0028FC
:10335000F8D05D480078012802DA03205A49087045
:1033600059480078012815D1FEF756FA47480078E9
:1033700040B940F2F512554801885548008800F0E0
:1033800065FB07E040F2F512524801885248008878
:1033900000F0C0FE4C480078022809D1FEF73CFA44
:1033A00040F2F5124D4801884D48008800F000FDBC
:1033B00045480078032815D1FEF72EFA33480078E7
:1033C00040B940F2F512434801884348008800F0B4
:1033D000A1FE07E040F2F5123C4801883C48008815
:1033E00000F034FB6DE180212348FEF7ADFCE0B92D
:1033F000FEF712FA3B4890ED000AF2EE040A20EEC6
:10340000200ABCEEC00A10EE100A82B2364890EDD7
:10341000000AF2EE040A20EE200ABCEEC00A10EE0A
:10342000100A81B2002001F027F880211248FEF72F
:103430008BFC01287ED141030C48FEF785FC55E04A
:103440000F0506000B060F0206030D030D0707000C
:103450000F070F03050F0006060B020F0306030DEF
:10346000070D0007070F030F62000020000C024049
:103470002801002025010020001002400800002043
:1034800007000020300000202601002061000020FD
:1034900034000020540000205E000020480000207E
:1034A000380000205600002060000020500000205E
:1034B00036000020550000205F0000204C00002056
:1034C0000C0000200A0000202701002040000020FE
:1034D0003A000020440000203E000020420000206E
:1034E0003C0000201400002010000020C0B97648E5
:1034F0000078A8B902F026F974480078401C734996
:10350000087000BF4FF400517148FEF71DFC002801
:10351000F8D06E480078032802DD01206B4908705E
:103520004FF400616A48FEF70FFCD0B96648007896
:10353000B8B900E09AE002F005F964480078401E4E
:103540006249087000BF4FF400616148FEF7FCFB60
:103550000028F8D05D480078012802DA03205B4992
:1035600008705A48007801283BD1FEF755F95948B0
:103570000078D8B9584890ED000AF2EE040A20EE1F
:10358000200ABCEEC00A10EE100A82B2534890ED39
:10359000000AF2EE040A20EE200ABCEEC00A10EE89
:1035A000100A81B2002001F0F7F81AE04C4890EDC3
:1035B000000AF2EE040A20EE200ABCEEC00A10EE69
:1035C000100A82B2474890ED000AF2EE040A20EE9B
:1035D000200ABCEEC00A10EE100A81B2002001F0F1
:1035E00003FC3A48007802281CD1FEF715F93E4842
:1035F00090ED000AF2EE040A20EE200ABCEEC00AAA
:1036000010EE100A82B2394890ED000AF2EE040A78
:1036100020EE200ABCEEC00A10EE100A81B2002093
:1036200001F04EFA2948007803283BD1FEF7F4F860
:1036300028480078D8B92A4890ED000AF2EE040A2A
:1036400020EE200ABCEEC00A10EE100A82B2254815
:1036500090ED000AF2EE040A20EE200ABCEEC00A49
:1036600010EE100A81B2002001F0BEFB1AE01A48E9
:1036700090ED000AF2EE040A20EE200ABCEEC00A29
:1036800010EE100A82B2154890ED000AF2EE040A1C
:1036900020EE200ABCEEC00A10EE100A81B2002013
:1036A00001F07AF80DE0FEF7B7F80220FEF75AFBBA
:1036B00007E0FEF7B1F8002211461046FFF7F6FAD0
:1036C00000BF00BF0BB000BD280100202701002073
:1036D000000C0240610000201C00002018000020A7
:1036E0002C000020280000202400002020000020C2
:1036F0002DE9F04F9BB004460D4616461422BDA19D
:1037000010A8FDF7BDFC1422BFA10BA8FDF7B8FC63
:103710001422C2A106A8FDF7B3FC1422C4A101A87B
:10372000FDF7AEFC01211C2004F062FB01211F20EB
:1037300004F05EFBC348007818B90821182004F093
:1037400057FBC0480078012803D10C21182004F051
:103750004FFBBC480078022803D10A21182004F04E
:1037600047FBB8480078032803D10921182004F04A
:103770003FFB0821192004F03BFBB348007818B93F
:103780000A211F2004F034FBAF480078012803D140
:103790000C211F2004F02CFB4FF47A7094FBF0F006
:1037A000C0B21A904FF47A7094FBF0F100FB114014
:1037B000642190FBF1F0C7B2642094FBF0F100FBB0
:1037C00011400A2190FBF1F000F0FF080A2094FB61
:1037D000F0F100FB114000F0FF091A98002825DDE8
:1037E00010A802211A9A11FB02030A461946162054
:1037F00004F0D8FA10A8022111FB07030A46194663
:10380000142004F0CFFA10A8022111FB08030A4685
:103810001946122004F0C6FA10A8022111FB090370
:103820000A461946102004F0BDFA2FE0002F1BDDD8
:1038300010A8022111FB07030A461946142004F0C0
:10384000B1FA10A8022111FB08030A4619461220FA
:1038500004F0A8FA10A8022111FB09030A46194630
:10386000102004F09FFA11E010A8022111FB0803B8
:103870000A461946122004F095FA10A8022111FBFD
:1038800009030A461946102004F08CFA4FF47A70A6
:1038900095FBF0F0C0B219904FF47A7095FBF0F1FF
:1038A00000FB1150642190FBF1F000F0FF0A64204E
:1038B00095FBF0F100FB11500A2190FBF1F000F0B4
:1038C000FF0B0A2095FBF0F100FB1150C0B21890DD
:1038D0001998002826DD10A80221199A11FB02036D
:1038E0000A4619460E2004F05DFA0BA8022111FBCE
:1038F0000A030A461946082004F054FA0BA80221CC
:1039000011FB0B030A4619460A2004F04BFA0BA8D8
:103910000221189A11FB02030A4619460C2004F0F2
:1039200041FA32E0BAF1000F1CDD0BA8022111FBB5
:103930000A030A461946082004F034FA0BA80221AB
:1039400011FB0B030A4619460A2004F02BFA0BA8B8
:103950000221189A11FB02030A4619460C2004F0B2
:1039600021FA12E00BA8022111FB0B030A461946AB
:103970000A2004F017FA0BA80221189A11FB02037F
:103980000A4619460C2004F00DFA642096FBF0F06C
:10399000C2B21792642096FBF0F100FB11600A217D
:1039A00090FBF1F0C0B216900A2096FBF0F100FBFC
:1039B0001160C0B215900BA80221179A11FB0203E7
:1039C0000A461946022004F0EDF90BA902221698C6
:1039D00012FB00131946042004F0E4F901A90222A5
:1039E000159812FB00131946062004F0DBF91BB0F2
:1039F000BDE8F08F0F0506000B060F0206030D034E
:103A00000D0707000F070F03050F0006060B020F37
:103A10000306030D070D0007070F030F0F0D060820
:103A20000B0E0F0A060B0D0B0D0F07080F0F0F0BD8
:103A30000D0F08060E0B0A0F0B060B0D0F0D0807D6
:103A40000F0F0B0F57000020280100202DE9F04F29
:103A50009BB004460D4616461422BFA110A8FDF7E0
:103A60000FFB1422C1A10BA8FDF70AFB1422C4A16D
:103A700006A8FDF705FB1422C6A101A8FDF700FB6F
:103A800001211C2004F0B4F901211F2004F0B0F939
:103A900002211B2004F0ACF9C348007818B90021BA
:103AA000182004F0A5F9C0480078012803D10421AA
:103AB000182004F09DF9BC480078022803D10221A7
:103AC000182004F095F9B8480078032803D10121A3
:103AD000182004F08DF90821192004F089F9B34861
:103AE000007818B90A211F2004F082F9AF48007845
:103AF000012803D10C211F2004F07AF94FF47A70C9
:103B000094FBF0F0C0B21A904FF47A7094FBF0F18D
:103B100000FB1140642190FBF1F0C7B2642094FBDC
:103B2000F0F100FB11400A2190FBF1F000F0FF08DA
:103B30000A2094FBF0F100FB114000F0FF091A98F5
:103B4000002825DD10A802211A9A11FB02030A465B
:103B50001946162004F026F910A8022111FB0703CC
:103B60000A461946142004F01DF910A8022111FB81
:103B700008030A461946122004F014F910A802217D
:103B800011FB09030A461946102004F00BF92FE037
:103B9000002F1BDD10A8022111FB07030A4619465E
:103BA000142004F0FFF810A8022111FB08030A46B4
:103BB0001946122004F0F6F810A8022111FB09039F
:103BC0000A461946102004F0EDF811E010A8022171
:103BD00011FB08030A461946122004F0E3F810A866
:103BE000022111FB09030A461946102004F0DAF8F5
:103BF0004FF47A7095FBF0F0C0B219904FF47A70E0
:103C000095FBF0F100FB1150642190FBF1F000F006
:103C1000FF0A642095FBF0F100FB11500A2190FB94
:103C2000F1F000F0FF0B0A2095FBF0F100FB1150C2
:103C3000C0B218901998002826DD10A80221199A00
:103C400011FB02030A4619460E2004F0ABF80BA83C
:103C5000022111FB0A030A461946082004F0A2F8C3
:103C60000BA8022111FB0B030A4619460A2004F097
:103C700099F80BA80221189A11FB02030A4619466B
:103C80000C2004F08FF832E0BAF1000F1CDD0BA815
:103C9000022111FB0A030A461946082004F082F8A3
:103CA0000BA8022111FB0B030A4619460A2004F057
:103CB00079F80BA80221189A11FB02030A4619464B
:103CC0000C2004F06FF812E00BA8022111FB0B038B
:103CD0000A4619460A2004F065F80BA80221189A32
:103CE00011FB02030A4619460C2004F05BF864201D
:103CF00096FBF0F0C2B21792642096FBF0F100FB45
:103D000011600A2190FBF1F0C0B216900A2096FBD8
:103D1000F0F100FB1160C0B215900BA80221179AB8
:103D200011FB02030A461946022004F03BF80BA9D6
:103D30000222169812FB00131946042004F032F8F0
:103D400001A90222159812FB00131946062004F05F
:103D500029F81BB0BDE8F08F0F0506000B060F0217
:103D600006030D030D0707000F070F03050F0006DD
:103D7000060B020F0306030D070D0007070F030FC5
:103D80000F0D06080B0E0F0A060B0D0B0D0F070883
:103D90000F0F0F0B0D0F08060E0B0A0F0B060B0D66
:103DA0000F0D08070F0F0B0F5700002028010020F0
:103DB0002DE9F04F9BB004460D4616461422BFA1D4
:103DC00010A8FDF75DF91422C1A10BA8FDF758F961
:103DD0001422C4A106A8FDF753F91422C6A101A814
:103DE000FDF74EF901211C2004F002F801211F20EB
:103DF00003F0FEFF04211B2003F0FAFFC348007804
:103E000018B90021182003F0F3FFC04800780128FA
:103E100003D10421182003F0EBFFBC4800780228EE
:103E200003D10221182003F0E3FFB84800780328EB
:103E300003D10121182003F0DBFF0821192003F032
:103E4000D7FFB348007818B90A211F2003F0D0FF2C
:103E5000AF480078012803D10C211F2003F0C8FFD0
:103E60004FF47A7094FBF0F0C0B21A904FF47A706D
:103E700094FBF0F100FB1140642190FBF1F0C7B21C
:103E8000642094FBF0F100FB11400A2190FBF1F05B
:103E900000F0FF080A2094FBF0F100FB114000F055
:103EA000FF091A98002825DD10A802211A9A11FB93
:103EB00002030A461946162003F074FF10A80221D7
:103EC00011FB07030A461946142003F06BFF10A8E4
:103ED000022111FB08030A461946122003F062FF73
:103EE00010A8022111FB09030A461946102003F00D
:103EF00059FF2FE0002F1BDD10A8022111FB070343
:103F00000A461946142003F04DFF10A8022111FBA8
:103F100008030A461946122003F044FF10A80221A4
:103F200011FB09030A461946102003F03BFF11E07C
:103F300010A8022111FB08030A461946122003F0BB
:103F400031FF10A8022111FB09030A46194610206F
:103F500003F028FF4FF47A7095FBF0F0C0B219908F
:103F60004FF47A7095FBF0F100FB1150642190FB47
:103F7000F1F000F0FF0A642095FBF0F100FB115016
:103F80000A2190FBF1F000F0FF0B0A2095FBF0F105
:103F900000FB1150C0B218901998002826DD10A817
:103FA0000221199A11FB02030A4619460E2003F05A
:103FB000F9FE0BA8022111FB0A030A461946082044
:103FC00003F0F0FE0BA8022111FB0B030A46194671
:103FD0000A2003F0E7FE0BA80221189A11FB020346
:103FE0000A4619460C2003F0DDFE32E0BAF1000F5C
:103FF0001CDD0BA8022111FB0A030A461946082002
:1040000003F0D0FE0BA8022111FB0B030A46194650
:104010000A2003F0C7FE0BA80221189A11FB020325
:104020000A4619460C2003F0BDFE12E00BA802213F
:1040300011FB0B030A4619460A2003F0B3FE0BA836
:104040000221189A11FB02030A4619460C2003F0BC
:10405000A9FE642096FBF0F0C2B21792642096FB92
:10406000F0F100FB11600A2190FBF1F0C0B2169054
:104070000A2096FBF0F100FB1160C0B215900BA86E
:104080000221179A11FB02030A461946022003F087
:1040900089FE0BA90222169812FB00131946042070
:1040A00003F080FE01A90222159812FB00131946A5
:1040B000062003F077FE1BB0BDE8F08F0F05060069
:1040C0000B060F0206030D030D0707000F070F0372
:1040D000050F0006060B020F0306030D070D000770
:1040E000070F030F0F0D06080B0E0F0A060B0D0B23
:1040F0000D0F07080F0F0F0B0D0F08060E0B0A0F01
:104100000B060B0D0F0D08070F0F0B0F57000020AC
:10411000280100202DE9F04F9BB004460D461646BD
:104120001422BFA110A8FCF7ABFF1422C1A10BA859
:10413000FCF7A6FF1422C4A106A8FCF7A1FF1422D5
:10414000C6A101A8FCF79CFF01211C2003F050FE32
:1041500001211F2003F04CFE04211A2003F048FE29
:10416000C348007818B90021182003F041FEC04868
:104170000078012803D10421182003F039FEBC483F
:104180000078022803D10221182003F031FEB8483C
:104190000078032803D10121182003F029FE08210B
:1041A000192003F025FEB348007818B90A211F2012
:1041B00003F01EFEAF480078012803D10C211F2018
:1041C00003F016FE4FF47A7094FBF0F0C0B21A9030
:1041D0004FF47A7094FBF0F100FB1140642190FBE6
:1041E000F1F0C7B2642094FBF0F100FB11400A210A
:1041F00090FBF1F000F0FF080A2094FBF0F100FBC7
:10420000114000F0FF091A98002825DD10A80221AE
:104210001A9A11FB02030A461946162003F0C2FD42
:1042200010A8022111FB07030A461946142003F0C7
:10423000B9FD10A8022111FB08030A4619461220F5
:1042400003F0B0FD10A8022111FB09030A4619462C
:10425000102003F0A7FD2FE0002F1BDD10A8022186
:1042600011FB07030A461946142003F09BFD10A812
:10427000022111FB08030A461946122003F092FDA1
:1042800010A8022111FB09030A461946102003F069
:1042900089FD11E010A8022111FB08030A46194606
:1042A000122003F07FFD10A8022111FB09030A462A
:1042B0001946102003F076FD4FF47A7095FBF0F06C
:1042C000C0B219904FF47A7095FBF0F100FB1150D9
:1042D000642190FBF1F000F0FF0A642095FBF0F1FF
:1042E00000FB11500A2190FBF1F000F0FF0B0A20B7
:1042F00095FBF0F100FB1150C0B2189019980028FE
:1043000026DD10A80221199A11FB02030A4619465C
:104310000E2003F047FD0BA8022111FB0A030A46F9
:104320001946082003F03EFD0BA8022111FB0B03E8
:104330000A4619460A2003F035FD0BA80221189AF7
:1043400011FB02030A4619460C2003F02BFD32E054
:10435000BAF1000F1CDD0BA8022111FB0A030A466B
:104360001946082003F01EFD0BA8022111FB0B03C8
:104370000A4619460A2003F015FD0BA80221189AD7
:1043800011FB02030A4619460C2003F00BFD12E054
:104390000BA8022111FB0B030A4619460A2003F061
:1043A00001FD0BA80221189A11FB02030A461946C7
:1043B0000C2003F0F7FC642096FBF0F0C2B21792D9
:1043C000642096FBF0F100FB11600A2190FBF1F0F4
:1043D000C0B216900A2096FBF0F100FB1160C0B24B
:1043E00015900BA80221179A11FB02030A461946E1
:1043F000022003F0D7FC0BA90222169812FB00132F
:104400001946042003F0CEFC01A90222159812FBE4
:1044100000131946062003F0C5FC1BB0BDE8F08F61
:104420000F0506000B060F0206030D030D0707001C
:104430000F070F03050F0006060B020F0306030DFF
:10444000070D0007070F030F0F0D06080B0E0F0ACD
:10445000060B0D0B0D0F07080F0F0F0B0D0F0806A6
:104460000E0B0A0F0B060B0D0F0D08070F0F0B0F8E
:1044700057000020280100202DE9F04F99B0044694
:104480000D4616461422AEA10FA8FCF7F9FD142222
:10449000B0A10AA8FCF7F4FD1422B3A105A8FCF70B
:1044A000EFFD1422B5A16846FCF7EAFD01211C20AE
:1044B00003F09EFC01211F2003F09AFCB448007811
:1044C00018B90821182003F093FCB148007801289E
:1044D00003D10C21182003F08BFCAD480078022892
:1044E00003D10A21182003F083FCA948007803288F
:1044F00003D10921182003F07BFC08211A2003F0C6
:1045000077FCA448007818B90A211F2003F070FC3A
:10451000A0480078012803D10C211F2003F068FC7B
:104520004FF47A7094FBF0F0C0B218904FF47A70A8
:1045300094FBF0F100FB1140642190FBF1F0C7B255
:10454000642094FBF0F100FB11400A2190FBF1F094
:1045500000F0FF080A2094FBF0F100FB114000F08E
:10456000FF091898002825DD0FA80221189A11FBD1
:1045700002030A461946162003F014FC0FA8022174
:1045800011FB07030A461946142003F00BFC0FA881
:10459000022111FB08030A461946122003F002FC0F
:1045A00005A8022111FB09030A461946102003F051
:1045B000F9FB2FE0002F1BDD0FA8022111FB0703E1
:1045C0000A461946142003F0EDFB0FA8022111FB47
:1045D00008030A461946122003F0E4FB05A802214D
:1045E00011FB09030A461946102003F0DBFB11E01A
:1045F0000FA8022111FB08030A461946122003F0F6
:10460000D1FB05A8022111FB09030A461946102017
:1046100003F0C8FB642095FBF0F0C0B21790642053
:1046200095FBF0F100FB11500A2190FBF1F000F036
:10463000FF0A0A2095FBF0F100FB115000F0FF0B80
:10464000179800281CDD0AA80221179A11FB020303
:104650000A461946082003F0A5FB0AA8022111FB0F
:104660000A030A4619460A2003F09CFB6846022109
:1046700011FB0B030A4619460C2003F093FB11E0D3
:104680000AA8022111FB0A030A4619460A2003F070
:1046900089FB6846022111FB0B030A4619460C20D0
:1046A00003F080FB642096FBF0F0C0B2169064200B
:1046B00096FBF0F100FB11600A2190FBF1F0C0B213
:1046C00015900A2096FBF0F100FB1160C0B2149027
:1046D000169800281DDD0AA90222169812FB001365
:1046E0001946104603F05EFB0AA80221159A11FB39
:1046F00002030A461946042003F054FB68460221CF
:10470000149A11FB02030A461946062003F04AFBDD
:1047100013E00AA80221159A11FB02030A46194662
:10472000042003F03FFB68460221149A11FB0203A8
:104730000A461946062003F035FB19B0BDE8F08F94
:104740000F0506000B060F0206030D030D070700F9
:104750000F070F03050F0006060B020F0306030DDC
:10476000070D0007070F030F0F0D06080B0E0F0AAA
:10477000060B0D0B0D0F07080F0F0F0B0D0F080683
:104780000E0B0A0F0B060B0D0F0D08070F0F0B0F6B
:1047900057000020280100202DE9F04F99B0044671
:1047A0000D4616461422B0A10FA8FCF769FC14228E
:1047B000B2A10AA8FCF764FC1422B5A105A8FCF775
:1047C0005FFC1422B7A16846FCF75AFC01211C20AB
:1047D00003F00EFB01211F2003F00AFB02211B2026
:1047E00003F006FBB448007818B90021182003F044
:1047F000FFFAB1480078012803D10421182003F002
:10480000F7FAAD480078022803D10221182003F0FE
:10481000EFFAA9480078032803D10121182003F0FA
:10482000E7FA08211A2003F0E3FAA448007818B93F
:104830000A211F2003F0DCFAA0480078012803D1E8
:104840000C211F2003F0D4FA4FF47A7094FBF0F09F
:10485000C0B218904FF47A7094FBF0F100FB114055
:10486000642190FBF1F0C7B2642094FBF0F100FBEF
:1048700011400A2190FBF1F000F0FF080A2094FBA0
:10488000F0F100FB114000F0FF091898002825DD29
:104890000FA80221189A11FB02030A461946162096
:1048A00003F080FA0FA8022111FB07030A461946FC
:1048B000142003F077FA0FA8022111FB08030A461F
:1048C0001946122003F06EFA05A8022111FB090314
:1048D0000A461946102003F065FA2FE0002F1BDD71
:1048E0000FA8022111FB07030A461946142003F002
:1048F00059FA0FA8022111FB08030A461946122093
:1049000003F050FA05A8022111FB09030A461946D3
:10491000102003F047FA11E00FA8022111FB080351
:104920000A461946122003F03DFA05A8022111FBA0
:1049300009030A461946102003F034FA642095FB57
:10494000F0F0C0B21790642095FBF0F100FB11501D
:104950000A2190FBF1F000F0FF0A0A2095FBF0F12C
:1049600000FB115000F0FF0B179800281CDD0AA86F
:104970000221179A11FB02030A461946082003F088
:1049800011FA0AA8022111FB0A030A4619460A2055
:1049900003F008FA6846022111FB0B030A46194688
:1049A0000C2003F0FFF911E00AA8022111FB0A0311
:1049B0000A4619460A2003F0F5F96846022111FB60
:1049C0000B030A4619460C2003F0ECF9642096FB11
:1049D000F0F0C0B21690642096FBF0F100FB11607D
:1049E0000A2190FBF1F0C0B215900A2096FBF0F17D
:1049F00000FB1160C0B21490169800281DDD0AA9B2
:104A00000222169812FB00131946104603F0CAF949
:104A10000AA80221159A11FB02030A46194604202E
:104A200003F0C0F968460221149A11FB02030A46FA
:104A30001946062003F0B6F913E00AA80221159AD8
:104A400011FB02030A461946042003F0ABF968463D
:104A50000221149A11FB02030A461946062003F0AC
:104A6000A1F919B0BDE8F08F0F0506000B060F0283
:104A700006030D030D0707000F070F03050F0006C0
:104A8000060B020F0306030D070D0007070F030FA8
:104A90000F0D06080B0E0F0A060B0D0B0D0F070866
:104AA0000F0F0F0B0D0F08060E0B0A0F0B060B0D49
:104AB0000F0D08070F0F0B0F5700002028010020D3
:104AC0002DE9F04F99B004460D4616461422B0A1C8
:104AD0000FA8FCF7D5FA1422B2A10AA8FCF7D0FA65
:104AE0001422B5A105A8FCF7CBFA1422B7A1684699
:104AF000FCF7C6FA01211C2003F07AF901211F20DE
:104B000003F076F904211B2003F072F9B448007811
:104B100018B90021182003F06BF9B148007801287A
:104B200003D10421182003F063F9AD48007802286E
:104B300003D10221182003F05BF9A948007803286B
:104B400003D10121182003F053F908211A2003F0A2
:104B50004FF9A448007818B90A211F2003F048F93A
:104B6000A0480078012803D10C211F2003F040F950
:104B70004FF47A7094FBF0F0C0B218904FF47A7052
:104B800094FBF0F100FB1140642190FBF1F0C7B2FF
:104B9000642094FBF0F100FB11400A2190FBF1F03E
:104BA00000F0FF080A2094FBF0F100FB114000F038
:104BB000FF091898002825DD0FA80221189A11FB7B
:104BC00002030A461946162003F0ECF80FA802214A
:104BD00011FB07030A461946142003F0E3F80FA857
:104BE000022111FB08030A461946122003F0DAF8E5
:104BF00005A8022111FB09030A461946102003F0FB
:104C0000D1F82FE0002F1BDD0FA8022111FB0703B5
:104C10000A461946142003F0C5F80FA8022111FB1B
:104C200008030A461946122003F0BCF805A8022121
:104C300011FB09030A461946102003F0B3F811E0EE
:104C40000FA8022111FB08030A461946122003F09F
:104C5000A9F805A8022111FB09030A4619461020EC
:104C600003F0A0F8642095FBF0F0C0B21790642028
:104C700095FBF0F100FB11500A2190FBF1F000F0E0
:104C8000FF0A0A2095FBF0F100FB115000F0FF0B2A
:104C9000179800281CDD0AA80221179A11FB0203AD
:104CA0000A461946082003F07DF80AA8022111FBE4
:104CB0000A030A4619460A2003F074F868460221DE
:104CC00011FB0B030A4619460C2003F06BF811E0A8
:104CD0000AA8022111FB0A030A4619460A2003F01A
:104CE00061F86846022111FB0B030A4619460C20A5
:104CF00003F058F8642096FBF0F0C0B216906420E0
:104D000096FBF0F100FB11600A2190FBF1F0C0B2BC
:104D100015900A2096FBF0F100FB1160C0B21490D0
:104D2000169800281DDD0AA90222169812FB00130E
:104D30001946104603F036F80AA80221159A11FB0D
:104D400002030A461946042003F02CF868460221A3
:104D5000149A11FB02030A461946062003F022F8B2
:104D600013E00AA80221159A11FB02030A4619460C
:104D7000042003F017F868460221149A11FB02037D
:104D80000A461946062003F00DF819B0BDE8F08F69
:104D90000F0506000B060F0206030D030D070700A3
:104DA0000F070F03050F0006060B020F0306030D86
:104DB000070D0007070F030F0F0D06080B0E0F0A54
:104DC000060B0D0B0D0F07080F0F0F0B0D0F08062D
:104DD0000E0B0A0F0B060B0D0F0D08070F0F0B0F15
:104DE00057000020280100202DE9F04F99B004461B
:104DF0000D4616461422AEA10FA8FCF741F9142265
:104E0000B0A10AA8FCF73CF91422B3A105A8FCF74D
:104E100037F91422B5A16846FCF732F901211C20AC
:104E200002F0E6FF01211F2002F0E2FF0C211A2010
:104E300002F0DEFFB248007818B90021182002F015
:104E4000D7FFAF480078012803D10421182002F0D1
:104E5000CFFFAB480078022803D10221182002F0CE
:104E6000C7FFA7480078032803D10121182002F0CA
:104E7000BFFFA448007818B90A211F2002F0B8FF2C
:104E8000A0480078012803D10C211F2002F0B0FFB8
:104E90004FF47A7094FBF0F0C0B218904FF47A702F
:104EA00094FBF0F100FB1140642190FBF1F0C7B2DC
:104EB000642094FBF0F100FB11400A2190FBF1F01B
:104EC00000F0FF080A2094FBF0F100FB114000F015
:104ED000FF091898002825DD0FA80221189A11FB58
:104EE00002030A461946162002F05CFF0FA80221B1
:104EF00011FB07030A461946142002F053FF0FA8BE
:104F0000022111FB08030A461946122002F04AFF4B
:104F100005A8022111FB09030A461946102002F0D8
:104F200041FF2FE0002F1BDD0FA8022111FB07031B
:104F30000A461946142002F035FF0FA8022111FB82
:104F400008030A461946122002F02CFF05A8022188
:104F500011FB09030A461946102002F023FF11E055
:104F60000FA8022111FB08030A461946122002F07D
:104F700019FF05A8022111FB09030A461946102052
:104F800002F010FF642095FBF0F0C0B2179064208F
:104F900095FBF0F100FB11500A2190FBF1F000F0BD
:104FA000FF0A0A2095FBF0F100FB115000F0FF0B07
:104FB000179800281CDD0AA80221179A11FB02038A
:104FC0000A461946082002F0EDFE0AA8022111FB4C
:104FD0000A030A4619460A2002F0E4FE6846022146
:104FE00011FB0B030A4619460C2002F0DBFE11E010
:104FF0000AA8022111FB0A030A4619460A2002F0F8
:10500000D1FE6846022111FB0B030A4619460C200B
:1050100002F0C8FE642096FBF0F0C0B21690642047
:1050200096FBF0F100FB11600A2190FBF1F0C0B299
:1050300015900A2096FBF0F100FB1160C0B21490AD
:10504000169800281DDD0AA90222169812FB0013EB
:105050001946104602F0A6FE0AA80221159A11FB75
:1050600002030A461946042002F09CFE684602210B
:10507000149A11FB02030A461946062002F092FE1A
:1050800013E00AA80221159A11FB02030A461946E9
:10509000042002F087FE68460221149A11FB0203E5
:1050A0000A461946062002F07DFE19B0BDE8F08FD1
:1050B0000F0506000B060F0206030D030D07070080
:1050C0000F070F03050F0006060B020F0306030D63
:1050D000070D0007070F030F0F0D06080B0E0F0A31
:1050E000060B0D0B0D0F07080F0F0F0B0D0F08060A
:1050F0000E0B0A0F0B060B0D0F0D08070F0F0B0FF2
:1051000057000020280100201CB50121022002F0D8
:10511000F9FAE020009001208DF8040000208DF8BD
:10512000060002208DF8050069460E48FCF7C4FD14
:1051300020210C48FCF713FE40210A48FCF70FFE23
:1051400080210848FCF70BFE022002F055FB2920C5
:1051500002F052FB012002F04FFB032002F04CFB57
:105160001CBD00000004024000BFFEE71CB54FF468
:1051700000511348FCF7F1FD4FF4804000900120EE
:105180008DF8040002208DF8050069460C48FCF7F4
:1051900093FD4FF480410A48FCF7DFFD022007F041
:1051A00073FC4FF400510648FCF7D9FD022007F0CC
:1051B0006BFC4FF400510248FCF7CFFD1CBD000012
:1051C000000402401CB50121022002F09BFA4FF4BA
:1051D000E040009001208DF8040002208DF80500C9
:1051E00069460948FCF768FD4FF480510648FCF712
:1051F000B4FD4FF400510448FCF7B1FD4FF4804179
:105200000148FCF7ACFD1CBD000402401CB54FF486
:1052100000511348FCF7A1FD4FF48040009001209D
:105220008DF8040002208DF8050069460C48FCF753
:1052300043FD4FF480410A48FCF791FD022007F03E
:1052400023FC4FF400510648FCF789FD022007F0CB
:105250001BFC4FF400510248FCF77FFD1CBD000011
:10526000000402407CB5064600244FF480400090C4
:1052700000208DF804008DF8070069461548FCF7FA
:105280001BFD00251BE04FF400511248FCF765FDA3
:10529000022007F0F9FB4FF400510E48FCF75FFDC8
:1052A0006006040E4FF480410A48FCF74DFD08B13A
:1052B000601CC4B2012007F0E7FB681CC5B2082DD2
:1052C000E1DB16B9FFF7A2FF01E0FFF74FFF204631
:1052D0007CBD0000000402407CB504464FF48040D1
:1052E000009001208DF8040002208DF80500694629
:1052F0001948FCF7E1FC4FF400511748FCF72DFD6D
:10530000002525E0E00904D14FF480411248FCF764
:1053100024FD0120B0EBD41F03D181030E48FCF71C
:105320001EFD6006040E022007F0AEFB4FF4005194
:105330000948FCF714FD022007F0A6FB4FF40051CA
:105340000548FCF70AFD022007F09EFB681CC5B269
:10535000082DD7DB7CBD0000000402401CB54FF4D3
:105360008040009001208DF8040002208DF8050097
:1053700069460F48FCF7A0FC4FF480410C48FCF74D
:10538000EEFC4FF400510A48FCF7E9FC032007F05B
:105390007BFB4FF480410648FCF7DFFC032007F05D
:1053A00073FB4FF400510248FCF7D7FC1CBD000012
:1053B000000402401CB54FF48040009001208DF89D
:1053C000040002208DF8050069460F48FCF774FCC4
:1053D0004FF400510C48FCF7C0FC4FF480410A48E0
:1053E000FCF7BBFC032007F04FFB4FF400510648CD
:1053F000FCF7B5FC4FF480410348FCF7B0FC0320F8
:1054000007F042FB1CBD0000000402401CB5002454
:105410004FF48040009000208DF804008DF80700C4
:1054200069461548FCF748FC4FF480411248FCF7E8
:1054300096FC012007F028FB4FF400510E48FCF7C2
:105440008EFC012007F020FB07E0601CC4B2FA2CA0
:1054500003DDFFF7AFFF01201CBD4FF4804106487C
:10546000FCF772FC0028F0D14FF400510248FCF721
:1054700074FC0020F0E70000000402404CF6CC4031
:1054800001490860704700000030004000B500F09E
:1054900013F800BD00B503460A4645F2555000F02A
:1054A0001FF8184600F010F8104600F013F800F04E
:1054B00003F8FFF7E3FF00BD4AF6AA2001490860A0
:1054C000704700000030004001494860704700000C
:1054D0000030004001498860704700000030004003
:1054E00001490860704700000030004000B59BB0E3
:1054F0000121744802F006F901214FF4E06002F046
:1055000021F94FF0806002906F4803906F4804903B
:1055100000200590012006900020079008904FF48D
:105520000060099080000A9040110B9040020C909E
:1055300000200D9001200E9000200F90109002A9E5
:105540006348FCF789F901216148FCF779F90020EB
:10555000029060480390604804900020059001206C
:1055600006900020079008904FF40060099080009A
:105570000A9040110B9040020C9000200D900120E9
:105580000E9000200F90109002A951481838FCF797
:1055900063F901214E481838FCF752F94FF00070BA
:1055A00002904E4803904E48049000200590012040
:1055B00006900020079008904FF40060099080004A
:1055C0000A9040110B9040020C9000200D90012099
:1055D0000E9000200F90109002A93D481830FCF763
:1055E0003BF901213A481830FCF72AF90F200090C6
:1055F00003208DF8040000208DF807006946394823
:10560000FCF75AFB9220009003208DF80400002044
:105610008DF8070069463448FCF74EFB00201190D6
:1056200012901390149011A8FBF73EFE00201590E5
:105630008DF8580001208DF859000020179019901E
:1056400001208DF8680015A91F484C38FBF75EFE55
:1056500015A922484C38FBF759FE15A91D484C38AE
:10566000FBF754FE012118484C38FBF744FE01219A
:105670001A484C38FBF73FFE012116484C38FBF71F
:105680003AFE012110484C38FBF72AFE012113484D
:105690004C38FBF725FE01210E484C38FBF720FE65
:1056A000012109484C38FBF7F3FD01210B484C3828
:1056B000FBF7EEFD012107484C38FBF7E9FD1BB075
:1056C00000BD0000050040004C2201400000002009
:1056D000286402404C200140020000204C2101407F
:1056E0000400002000080240000002401CB5012117
:1056F000082002F007F84FF4FE40009000208DF8DB
:10570000040069460848FCF7D7FA0121102001F08F
:10571000F9FF4FF46070009000208DF80400694696
:105720000248FCF7C9FA1CBD000C02400010024000
:1057300010B54FF400410248FCF70FFB10BD00000C
:10574000000C024010B54FF400410348FCF707FB82
:1057500064200249087010BD000C02406200002065
:1057600070B504460D46082C19DC012D07D1601ECA
:1057700001FA00F03D49097808433C4908703DB9F9
:10578000601E0121814039480078884337490870FC
:105790003649097841F400600321FBF779FF082CB2
:1057A0001FDD102C1DDCA4F10800C4B2012D08D1AE
:1057B000601E012101FA00F02D49097808432C49A7
:1057C00008703DB9601E0121814029480078884356
:1057D000274908702649097841F410600321FBF736
:1057E00057FF102C1FDD182C1DDCA4F11000C4B2D3
:1057F000012D08D1601E012101FA00F01D49097830
:1058000008431C4908703DB9601E012181401948B8
:1058100000788843174908701649097841F42060D8
:105820000321FBF735FF182C1FDD202C1DDCA4F114
:105830001800C4B2012D08D1601E012101FA00F048
:105840000D49097808430C4908703DB9601E0121D3
:10585000814009480078884307490870064909785B
:1058600041F430600321FBF713FF70BD2E010020CF
:105870002F010020300100203101002000BFFEE791
:10588000704710B54FF4A06000F03EF810BD000066
:1058900070B5002100230F22C47824B3174C24686C
:1058A00004F4E064C4F5E064C4F30721C1F1040426
:1058B000E3B20A4144789C40E1B284781440214329
:1058C0000C07210E0E4C05786155047804F01F0575
:1058D0000124AC4005786D114FF0E02606EB8505FC
:1058E000C5F8004109E0047804F01F050124AC402C
:1058F000044D0678761145F8264070BD0CED00E0A9
:1059000000E400E080E100E002490143024A116046
:10591000704700000000FA050CED00E00648007832
:10592000012808D105480078FF2804D203480078F0
:10593000401C024908707047B2000020A5000020FA
:1059400010B500241A480078012830D1FAF7ACFCD1
:1059500004461848007820B116480078401E1549C2
:10596000087014480078F8B913480078E0B900F0DE
:1059700029FC12481249097850F8210011490860A1
:105980000F4800781049097888420DD00D4800680A
:10599000C06B401C0B490968C8630C480068401C78
:1059A0000A490860FAF79CFC2046FAF781FC10BD12
:1059B000B2000020A5000020A6000020603D0020CD
:1059C000A8000020C0000020A70000208C000020BC
:1059D00070B5044600250CB9042070BD207803285A
:1059E00001D00120F9E7FAF75FFC0546A07A60B123
:1059F000002301221946204600F01AFB2846FAF738
:105A000057FC00F0A5FB0020E7E720894FF6FF7167
:105A1000884207D22089401C20812846FAF748FC9A
:105A20000020DAE72846FAF743FC3320D5E710B523
:105A3000FBF724FE10BD000070B50546002619488E
:105A4000007800B170BD1848007800B1FAE73DB3A6
:105A5000FAF72AFC06461548006890F838401448C2
:105A6000005D1249096891F83910C943C9B208406C
:105A70000F4908550846005D50B90C48006890F879
:105A80003A00C043C0B20B49097808400949087080
:105A90000648006805633046FAF70AFC00F058FB38
:105AA00000BFCFE7A5000020A6000020B80000201E
:105AB000AA000020A900002070B5002600F076F8AA
:105AC000FAF7F2FB064633480068401C314908608B
:105AD0003046FAF7EDFB30480078012857D12F48BF
