:020000040800F2
:1000000088560020690200084F6400086D550008FA
:100010004B6400083D17000833830008000000000F
:10002000000000000000000000000000F97C000853
:100030006D19000800000000EB020008097F0008AD
:10004000830200088302000883020008830200087C
:10005000830200088302000883020008830200086C
:10006000830200088302000883020008830200085C
:10007000830200088302000883020008830200084C
:10008000830200088302000883020008830200083C
:100090008302000883020008830200082D1A00086A
:1000A000830200088302000883020008830200081C
:1000B000997F000883020008E58000088302000899
:1000C00083020008830200088302000883020008FC
:1000D0008302000883020008830200085982000896
:1000E00071190008830200088302000883020008D7
:1000F00083020008830200088302000883020008CC
:1001000083020008830200088302000883020008BB
:1001100083020008830200088302000883020008AB
:10012000830200088302000883020008830200089B
:10013000830200088302000883020008830200088B
:10014000830200088302000883020008830200087B
:10015000830200088302000883020008830200086B
:10016000830200088302000883020008830200085B
:10017000830200088302000883020008830200084B
:10018000830200088302000800F002F800F05CF827
:100190000AA090E8000C82448344AAF10107DA45E2
:1001A00001D100F051F8AFF2090EBAE80F0013F0D8
:1001B000010F18BFFB1A43F001031847B44A0100AE
:1001C000D44A01000A444FF0000C10F8013B13F030
:1001D000070408BF10F8014B1D1108BF10F8015BA0
:1001E000641E05D010F8016B641E01F8016BF9D193
:1001F00013F0080F1EBF10F8014BAD1C0C1B09D1EA
:100200006D1E58BF01F801CBFAD505E014F8016B5B
:1002100001F8016B6D1EF9D59142D6D370470000ED
:100220000023002400250026103A28BF78C1FBD8FF
:10023000520728BF30C148BF0B6070471FB50EF092
:100240000EF91FBD10B510BD00F054FF1146FFF7A9
:10025000F5FF0DF0E3F800F072FF03B4FFF7F2FFD3
:1002600003BC00F073FF00000948804709480047BD
:10027000FEE7FEE7FEE7FEE7FEE7FEE7FEE7FEE756
:10028000FEE7FEE704480549054A064B70470000B3
:10029000317F00088901000888500020885600201E
:1002A0008852002088520020EFF3108072B6704709
:1002B00080F3108870471D484FF0FF010170002047
:1002C00080F309881A48012101701A484FF08051C3
:1002D000016062B6FEE717484FF080510160704739
:1002E00014484FF080510160704772B6EFF30980F7
:1002F00028B1203880E8F00F0F490968086000B580
:100300000E4880475DF804EB0D480E490A780270EC
:1003100009480D490A680260106890E8F00F203023
:1003200080F309884EF0040E62B6704722ED00E0BB
:10033000B200002004ED00E0B8000020FB650008DA
:10034000A7000020A8000020C000002072B670475F
:1003500062B67047EFF3108072B6704780F3108872
:100360007047B0FA80F0704790FAA0F0704730BF45
:10037000704720BF70470000DFED2E0AB5EEC00ABF
:1003800060EE200ABDEEE01A11EE100AF1EE10FA4E
:1003900038BF401E00EE100ADFED271AF7EE005AB4
:1003A000B8EEC00ADFED274A244930EEC01A21EE2C
:1003B000210AFCEEC00A10EE900A00EE900A01EB52
:1003C0008000B8EE600ADFED1E0AF0EC012A11EEA3
:1003D000210AF6EE001AB0EC013AF0EC013A20EEF8
:1003E000001A20EE216A40EE615A20EE245A21EED6
:1003F000212A90ED004A00EE602A66EE010A40EEE6
:10040000400A05EE412A70EEA55AF0EE400A41EE90
:10041000210A46EE410A25EE011A00EE641A22EE88
:10042000820A63EEA00A03EE250A44EE010A30EECA
:10043000200A704783F9223E00008043C4E500088B
:10044000ABAAAA3EABAA2A3E9FED3A0A5FEA920CFB
:1004500053D000BFB0EC011A0B1DF0EC010A21EEE5
:10046000011A00EEA01AB5EEC01AF1EE10FAC6BFDE
:10047000F1EEC10AC1ED000A81ED000AF0EC010ABB
:10048000191DB0EC011A60EEA00A41EE010AF5EE6A
:10049000C00AF1EE10FAC6BFF1EEE00AC3ED000AA1
:1004A00083ED000AB0EC011A0B1DF0EC010A21EEFD
:1004B000011A00EEA01AB5EEC01AF1EE10FAC6BF8E
:1004C000F1EEC10AC1ED000A81ED000AB0EC011A9B
:1004D000191DF0EC010A21EE011A00EEA01AB5EE8A
:1004E000C01AF1EE10FAC6BFF1EEC10AC3ED000A60
:1004F00083ED000ABCF1010CACD112F0030208BF7D
:10050000704700BFF0EC010A0B46B0EC011A091D60
:1005100060EEA00A41EE010AF5EEC00AF1EE10FA13
:10052000C6BFF1EEE00AC3ED000A83ED000A521ED9
:10053000E8D17047000000002DE9F00700EBC10989
:10054000DDE90778D0F800A0C9F800A007EB011496
:10055000D0F804A0251FA9F10406C9F804A003EBF4
:10056000C80907F1080C00F1080402EBC8024B1E91
:1005700031D000BFF2EC011A96ED002A92ED001A7C
:1005800002EBC802B4EC010A121FF4EC012A60EE7F
:10059000210A20EE010A32EE823A02EEA10AD9EDDA
:1005A000001A43EE410A09EBC80902EE610A16ED92
:1005B000012A083E42EE210A02EE410AECEC010A51
:1005C000ACEC010AB1EE400A85ED000A45ED010AE6
:1005D000083D5B1ECED190ED000AD0ED010A07EB7D
:1005E000C10130EE600A81ED000A9FED5D0A81EDE8
:1005F000010AD0ED000A90ED011A70EE810AC7EDF4
:10060000000A87ED010ABDE8F007704770B400EBFF
:10061000C105DDE903C42D1D002904BF70BC70476E
:10062000F2EC011A95ED002A92ED001A02EBC402D9
:10063000B0EC010A121FF0EC012A60EE210A20EE54
:10064000410A32EE823A02EEA10AD3ED001A43EEDD
:10065000010A03EBC40302EE610A15ED012A083D0D
:10066000491E42EE210A02EE010AECEC010AACEC52
:10067000010AD5D170BC70472DE9F04305464469A5
:10068000807983B00F461646012809D0A3892188B6
:100690003846626800F036F9E87901284ED053E018
:1006A000AA88D5E9030307EBC20CD5F808803146C8
:1006B0000CF1040C5AB300BFB0EC011A9CED002AF7
:1006C000D0ED001A00EBC800B7EC010A001FF7ECF0
:1006D000012A521E60EE010A20EE610A32EE823AD1
:1006E00002EE810A93ED001A43EE210A03EBC803E0
:1006F00002EE410A1CED012AACF1080C42EE010A9F
:1007000002EE210AE1EC010AA1EC010AD4D194ED38
:10071000040AA38921883046626800F095FAE879D6
:1007200001281CBF03B0BDE8F083E2892188A368DB
:1007300003B03046BDE8F04300F08CB8E289218870
:100740003846A36800F086F8A868CDE90060D5E9CE
:100750000323A9883846FFF7EFFE03B0BDE8F08316
:100760000000000070B592B2DDF810C055080260BC
:100770008580184EC66006F50056DBB2066100247F
:10078000837180F807C0802A04BF102282600BD0DA
:10079000B2F5007F08BF042212D0B2F5006F14BF7B
:1007A0004FF0FF3401220BD0002B8C4641614FF0FB
:1007B000000307D001222946604600F015FC06E040
:1007C0008260F1E700222946604600F00DFC2046D9
:1007D00070BD0000D0E9000870B40025B0EC010A3B
:1007E000A1F1010CF0EC010AB4EEE00AF1EE10FA0E
:1007F0003CBFB0EE600A0125ACF10104A446B4F19F
:10080000004F0ED3F0EC010AB4EEE00AF1EE10FA5C
:100810003CBFB0EE600AA1EB0C05BCF1010CF1D1BC
:1008200013E0002CC8BF00260FDD00BFF0EC010A6A
:10083000B4EEE00AF1EE10FA04D2ACEB0605B0EE2D
:10084000600A4D1B761C641EF0D182ED000A1D600B
:1008500070BC70472DE9F0014E0801244FF0000CE8
:1008600004EB51076146A6F102082CE061452AD24B
:1008700000EBCC0500EBC104D5ED000A94ED000AB5
:10088000C4ED000A85ED000AD5ED010A94ED010AD8
:10089000C4ED010A85ED010A0CEB0705CC1900EB4C
:1008A000C50500EBC404D5ED000A94ED000AC4EDC3
:1008B000000A85ED000AD5ED010A94ED010AC4EDA8
:1008C000010A85ED010A00EBC104B44400EBCC0C35
:1008D00094ED020ADCED000A891CC4ED020A8CEDDD
:1008E000000A94ED030ADCF80450E5608CED010A7F
:1008F000B3F800C089B203EB42034145B6D9BDE865
:10090000F00170472DE9F04F4FEA910C4FF00008CD
:100910004746644608EB0C0505EB0C0909EB0C0691
:1009200000EBC80A00EBC9099AED000AD9ED000AEC
:1009300099ED012A00EBC50530EE201A30EE600A71
:10094000DAED010A00EBC60608F1010870EE821A22
:1009500070EEC20A95ED002AD6ED002A641E32EE32
:10096000222A71EE022A31EE421ACAED002A95EDD2
:10097000012AD6ED012A32EE222A71EE822A71EE88
:10098000C21ACAED012A95ED012AD6ED012A96ED8B
:10099000003A4FEA470A32EE622AD5ED002A02EB0E
:1009A000CA0B72EEC32A9BED003ADBED013A21EE51
:1009B000034A01EEA34A61EE831A41EE631A85ED04
:1009C000004A30EE021A30EE420AC5ED011A02EB7F
:1009D000C70570EEE21A95ED002A70EEA20AD5ED79
:1009E000012A21EE023A0AEB070502EBC5051F4476
:1009F00001EEA23A61EE821A41EE621A89ED003AE6
:100A0000C9ED011AD5ED001A95ED011A20EE212A43
:100A100000EE812A60EEA10A40EE410A86ED002A2E
:100A2000C6ED010A7FF476AF9B044FEA134BE6460E
:100A3000BCF1040F7DD9E0464FEA9C0C4FF0000951
:100A4000CA46BCF1000F75D94FEA490404EB09030B
:100A500002EBC90502EBC40402EBC30395ED001AD7
:100A6000D5ED011A94ED000AD4ED010A93ED002AA8
:100A7000D3ED012AD94453468A4573D203EB0C04C3
:100A800004EB0C0606EB0C0500EBC30700EBC606F7
:100A900097ED003AD6ED003A96ED015A00EBC4040A
:100AA00073EE234A33EE633AD7ED013A00EBC50506
:100AB00033EE854A73EEC53A94ED005AD5ED005AEF
:100AC00035EE255A74EE855A74EEC54AC7ED005AC4
:100AD00094ED015AD5ED015A35EE255A74EE055ABA
:100AE00034EE454AC7ED015A94ED015AD5ED015A4D
:100AF00095ED006A35EE655AD4ED005A75EEC65A8A
:100B000024EE806A04EE206A24EE004A04EEE04AF5
:100B100084ED006A73EEE54A73EEA53A84ED014A6E
:100B200033EE054A33EE453A24EE015A04EEA15A5B
:100B300001E026E01BE064EE814A86ED005A434462
:100B40008B4244EE614A23EE024A03EEA24A63EE70
:100B5000823AC6ED014A43EE623A85ED004AC5EDA0
:100B6000013A8BD30AF1010AE245FFF46DAF4FEA77
:100B70008B434FEA9E0E4FEA134BBEF1040F3FF634
:100B80005AAFA1EB0C0100224B1C4FEA9C04002B36
:100B90008CBF1F46BDE8F08F11190E19331900EBF9
:100BA000C20500EBC60695ED000AD6ED000A95EDEC
:100BB000012A96ED011A70EE201A70EE600A32EEEC
:100BC000010A00EBC10100EBC30332EE411A91EDC3
:100BD000002AD3ED002A6244974232EE222A71EEB7
:100BE000822A31EEC22AC5ED002AD1ED011AD3EDD9
:100BF000012A71EEA21A70EE212AC5ED012A70EECB
:100C0000612A91ED010AD3ED011A93ED003A70EEDD
:100C1000611A91ED000A81ED002AC1ED012A30EE42
:100C2000430A30EEA12A70EEE10A71EE401A31EE6D
:100C3000000A86ED002AC6ED011AC3ED000A83ED15
:100C4000010AA9D8BDE8F08F2DE9F04F4FEA910CC9
:100C50004FF000084746644608EB0C0505EB0C0A0C
:100C60000AEB0C0600EBC80900EBCA0AD9ED000A32
:100C70009AED001ADAED012A00EBC50570EE811A33
:100C800070EEC10A99ED011A00EBC60608F10108E1
:100C900031EE222A31EE621AD5ED002A96ED003AA5
:100CA000641E72EE832A31EEA23A71EEE21A89EDE9
:100CB000003AD5ED012A96ED013A72EE832A32EE22
:100CC000223A32EE622A89ED013AD5ED012A96EDFB
:100CD000013AD6ED003A4FEA470972EEC32A95ED84
:100CE000003A02EBC90B33EE633ADBED003A9BEDC1
:100CF000014A61EEA34A42EE444A22EE232A01EE63
:100D0000842AC5ED004A70EEE21A70EEA20A85ED63
:100D1000012A02EBC70531EE032AD5ED002A31EE98
:100D2000431A95ED013A61EEA23A09EB070502EB91
:100D3000C5051F4442EE433A22EE222A01EE832AE1
:100D4000CAED003A8AED012AD5ED001A95ED012A87
:100D500060EEA12A41EE422A21EE211A00EE821A0B
:100D6000C6ED002A86ED011A7FF476AF9B044FEAA8
:100D7000134BE646BCF1040F7DD9E0464FEA9C0CCC
:100D80004FF00009CA46BCF1000F75D94FEA49047B
:100D900004EB090302EBC90502EBC40402EBC30335
:100DA000D5ED001A95ED012AD4ED000A94ED011A53
:100DB000D3ED002A93ED013AD94453468A4573D2C4
:100DC00003EB0C0404EB0C0606EB0C0500EBC3076D
:100DD00000EBC606D7ED003A96ED004AD6ED015A73
:100DE00000EBC40433EE845A73EEC43A97ED014A23
:100DF00000EBC50574EE254A34EE654AD4ED005A81
:100E000095ED006A75EE865A35EE256A35EE655A1F
:100E100087ED006AD4ED015A95ED016A75EE865AA8
:100E200034EEA56A74EEE54A87ED016AD4ED015A05
:100E300095ED016AD5ED006A75EEC65A94ED006A2B
:100E400036EE666A65EE206A44EEC16A64EEA04A38
:100E500045EE014AC4ED006A34EE065A34EE464AC5
:100E6000C4ED014A73EEE54A73EEA53A64EEA15A69
:100E700045EE425A01E026E01BE025EE215AC6ED80
:100E8000005A43448B4204EE825A63EEA24A44EE77
:100E9000434A24EE224A86ED015A03EE834AC5ED09
:100EA000004A85ED014A8BD30AF1010AE245FFF4BD
:100EB0006DAF4FEA8B434FEA9E0E4FEA134BBEF1E4
:100EC000040F3FF65AAFA1EB0C0100224B1C4FEA76
:100ED0009C06002B8CBF1F46BDE8F08F91198D1921
:100EE000AB1900EBC20400EBC505D4ED000AD5ED4B
:100EF000001AD4ED012A95ED012A30EEA11A70EE08
:100F0000E11A72EE820A00EBC10100EBC30332EE7C
:100F1000C22AD1ED002A93ED003A6244974272EE64
:100F2000832A31EE223A71EE622A23EE003A62EE13
:100F3000802A84ED003A91ED011A93ED013A31EEE9
:100F4000031A30EE813A23EE003A84ED013A30EE96
:100F5000C13AD1ED010A93ED011AD3ED003A30EE1A
:100F6000C11AD1ED000AC1ED002A63EE002A70EE2D
:100F7000E30AC1ED012A71EEC12A31EE811A72EE47
:100F8000201A72EE600A22EE802A21EE001A61EE2B
:100F9000801A85ED002A60EE800AC5ED011A83ED06
:100FA000001AC3ED010A99D8BDE8F08F30B50446A8
:100FB0000D4680782188A389626801280DD02846D3
:100FC000FFF7A0FCE078012818BF30BDE289218836
:100FD0002846A368BDE830403CE494ED040A284666
:100FE000FFF732FEEEE7000010B401801B4C4460B6
:100FF00082704FF0000CC370102925D040291BD0FF
:10100000B1F5807F10D0B1F5806F18BF4FF0FF3C75
:1010100002D010BC6046704701218181C181104916
:101020009FED100A816016E004218181C1810E4983
:101030009FED0E0A81600EE010218181C1810C4973
:101040009FED0C0A816006E040218181C1810A493F
:101050009FED0A0A816080ED040ADAE7D0290108D1
:10106000D04901080000803AD64901080000803BC1
:10107000EE4901080000803C4E4A01080000803D16
:1010800010B5203AC0F00B80B1E81850203AA0E823
:101090001850B1E81850A0E81850BFF4F5AF5FEA57
:1010A000027C24BFB1E81850A0E8185044BF18C90A
:1010B00018C0BDE810405FEA827C24BF51F8043BB1
:1010C00040F8043B08BF7047D20728BF31F8023B05
:1010D00048BF11F8012B28BF20F8023B48BF00F899
:1010E000012B7047704770477047000000487047F9
:1010F000285000207546FFF7F9FFAE460500694607
:10110000534620F00700854618B020B5FFF7BAF81F
:10111000BDE820404FF000064FF000074FF00008F8
:101120004FF0000B21F00701AC46ACE8C009ACE879
:10113000C009ACE8C009ACE8C0098D467047044658
:10114000AFF300802046FFF788F870470149182068
:10115000ABBEFEE72600020010B5002301221146B7
:10116000034800F00BF9024800F065F910BD0000DB
:101170000020014010B5002301220C21034800F09B
:10118000FDF8024800F057F910BD000000200140B2
:1011900010B5002301220421034800F0EFF80248B3
:1011A00000F049F910BD00000020014010B50023F7
:1011B00001220721034800F0E1F8024800F03BF962
:1011C00010BD00000020014000B58DB001211F4876
:1011D00006F062FD0120019003208DF80800002038
:1011E0008DF80B0001A91A4800F0B8FD002003900B
:1011F00004900590069003A800F064F80020079082
:101200008DF8200001208DF82100002009900B901E
:1012100001208DF8300007A90E4800F085F8002362
:10122000012208210B4800F0A9F80121094800F02B
:1012300070F80121074800F061F80121054800F02D
:1012400035F8044800F0F7F80DB000BD020040008A
:10125000000402400021014010B5002301220A21B0
:10126000034800F08BF8024800F0E5F810BD0000DC
:101270000022014010B5002301220B21034800F099
:101280007DF8024800F0D7F810BD000000220140B0
:1012900010B5002301220C21034800F06FF802482A
:1012A00000F0C9F810BD00000022014021B18268A1
:1012B00042F00102826003E0826822F00102826053
:1012C0007047000000210A4A11680A4A01EA020137
:1012D000D0E9002342EA0302836842EA0302C368BA
:1012E00042EA030242EA0101034AC2F804137047CA
:1012F00004230140E030FCFF0020014021B182685E
:1013000042F48072826003E0826822F4807282601C
:10131000704721B1826842F40072826003E0826803
:1013200022F400728260704730B50246002000232C
:101330005068104C20400D790C6844EA0524204385
:10134000506090680C4C2040D1E903542C438D68C8
:101350002C434D7944EA450420439060D06A20F440
:1013600070000C7D641EE4B2234340EA0350D06257
:1013700030BD0000FFFEFFFCFDF7FFC070B5044666
:101380008C4600200021BCF1090F11DDE068ACF1B2
:101390000A0505EB4506072505FA06F18843ACF179
:1013A0000A0505EB450503FA05F10843E0600CE08A
:1013B00020690CEB4C06072505FA06F188430CEB77
:1013C0004C0503FA05F108432061072A0FDA606B28
:1013D000551E05EB85061F2505FA06F18843551EA7
:1013E00005EB85050CFA05F10843606322E00D2A40
:1013F0000FDA206BD51F05EB85061F2505FA06F1D0
:101400008843D51F05EB85050CFA05F108432063D9
:1014100010E0E06AA2F10D0505EB85061F2505FA2F
:1014200006F18843A2F10D0505EB85050CFA05F1DF
:101430000843E06270BD816841F08041816070477F
:1014400010B504F0C1F810BD70B50446002604F0D4
:1014500087F92546E11704EB11610912A02202EB7E
:101460004101C8B204F03AF904F0D2F9E11704EBF3
:1014700011610912A4EB0121C8B204F02FF904F0A4
:10148000C7F904F06DF9A12004F028F904F0C0F9BF
:10149000002004F0E9F8064604F08EF9304670BDED
:1014A00070B504460E4604F05BF92546E11704EBDF
:1014B00011610912A02202EB4101C8B204F00EF939
:1014C00004F0A6F9E11704EB11610912A4EB012164
:1014D000C8B204F003F904F09BF9304604F0FEF8BA
:1014E00004F096F904F068F90A200BF075FE70BD5F
:1014F0002DE9F84305F062FC8648007801287CD18C
:101500004103854800F072FC002861D183480168DE
:101510008348007807F028FB0646012E31D1814828
:1015200001697F48007807F01FFB0546EDB97D484B
:1015300041687B48007807F017FB8046794881684E
:101540007748007807F010FB81467648C1687448F8
:10155000007807F009FB07464B4642467048009763
:1015600001787148007804F033FD012D09D1022083
:101570000346024600906A4801786B48007804F000
:1015800027FD67480078401C6549087000BF4FF48C
:101590000051614800F02AFC0028F8D0604800782B
:1015A000202802DD01205E4908705D4804780CE0C7
:1015B0005A480168204607F0D7FA0646012E02D1A4
:1015C0005748047003E0601CC4B2202CF0DD00BF5B
:1015D0004FF40061504800F009FC002863D14F48E7
:1015E00001684F48007807F0BFFA0646012E33D154
:1015F0004C4801694A48007800E088E007F0B4FAF6
:101600000546EDB9474841684548007807F0ACFA0F
:101610008046444881684248007807F0A5FA814630
:101620004048C1683E48007807F09EFA07464B469E
:1016300042463B48009701783B48007804F0C8FCDC
:10164000012D09D10220034602460090344801785A
:101650003548007804F0BCFC31480078401E304921
:10166000087000BF4FF400612B4800F0BFFB00285A
:10167000F8D02B480078012802DA20202849087089
:10168000274804780CE025480168204607F06CFAEA
:101690000646012E02D12248047003E0601EC4B247
:1016A000012CF0DA00BF1F4801691D48007807F0DF
:1016B0005BFA05461B4841681948007807F054FA60
:1016C0008046184881681648007807F04DFA814630
:1016D0001448C1681248007807F046FA07464B469E
:1016E00042460F48009701780F48007804F070FCDC
:1016F00032200BF071FD4B464246094800970178B5
:101700000948007804F02EFA32200BF065FDBDE8A0
:10171000F883000028010020000C02407000002027
:1017200068000020300100206900002010B505F09D
:1017300011F910BD10B505F025F910BD00BFFEE789
:1017400070B506460C46012C26DB062C24DC002551
:1017500020E016F0010F05D04FF400713F4800F073
:1017600050FB04E04FF400713C4800F048FB4FF49C
:1017700080713A4800F043FB761004200BF050FDD6
:101780004FF48071354800F03CFB04200BF048FD1D
:10179000681CC5B20C2DDCDB012C0DD101213048B9
:1017A00000F02FFB04200BF03BFD01212C4800F042
:1017B00026FB04200BF034FD022C0DD10221284819
:1017C00000F01FFB04200BF02BFD0221244800F049
:1017D00016FB04200BF024FD032C0DD1042120481E
:1017E00000F00FFB04200BF01BFD04211C4800F04F
:1017F00006FB04200BF014FD042C0DD10821184821
:1018000000F0FFFA04200BF00BFD0821144800F053
:10181000F6FA04200BF004FD052C0DD11021104820
:1018200000F0EFFA04200BF0FBFC10210C4800F054
:10183000E6FA04200BF0F4FC062C0DD12021084818
:1018400000F0DFFA04200BF0EBFC2021044800F04C
:10185000D6FA04200BF0E4FC70BD00000004024046
:10186000000C02401CB50121022006F015FA4FF4CD
:101870004070009001208DF8040000208DF80600D3
:1018800002208DF805006946104800F067FA012132
:10189000082006F001FA3F20009001208DF8040096
:1018A00000208DF8060002208DF8050069460848E2
:1018B00000F054FA012406E0214640F20140FFF70F
:1018C0003FFF601CC4B2052CF6DD1CBD00040240C5
:1018D000000C024070B500250DE0002407E0002058
:1018E000A040C1B2284606F04DFD601CC4B2042CD5
:1018F000F5DB681CC5B2202DEFDB70BD21B102689D
:1019000042F00102026003E0026822F0010202607C
:101910007047000010B500220268134B1A40CC68D3
:101920000B6823434C6923438C692343CC692343CD
:101930000C6A23434C6A23438C6A23434C6B234336
:101940008C6B23431A430260426922F00702D1E9FB
:101950000B3423431A4342610B6943604B68836035
:101960008B68C36010BD00003F801CF07047000012
:1019700008B504F0B9FD4FF4805000F00DF9F0B156
:101980002648007801281AD125480078012816D168
:101990000021244800780BF079FE002001231A462C
:1019A0000090204801781E48007804F011FB0020C8
:1019B0001C49097801EB41011B4A114448704FF45E
:1019C000805000F055F84FF4804000F0E5F8F0B199
:1019D0001248007801281AD111480078012816D140
:1019E0000121104800780BF051FE002001231A4617
:1019F00000900C4801780A48007804F0E9FA0120C8
:101A00000849097801EB4101074A114448704FF435
:101A1000804000F02DF804F079FD08BD2801002079
:101A200069000020680000204401002010B504F087
:101A30005BFD4FF4807000F0AFF84FF4807000F061
:101A400017F84FF4007000F0A7F840B14FF47A7027
:101A50000BF0E6FB4FF40071044800F0C7F94FF4B7
:101A6000007000F005F804F051FD10BD000C0240BC
:101A70000149086070470000143C014000B585B082
:101A80000121880306F028F90121102006F004F94D
:101A90004FF48070039000208DF8100003A939489E
:101AA00000F05CF90821042006F028F94FF480705A
:101AB000019000208DF808000C208DF8090001200D
:101AC0008DF80A0001A800F07BF817208DF80000BF
:101AD00002208DF801008DF8020001208DF803002E
:101AE000684604F0BBFC4FF4807000F04DF80C2108
:101AF000032006F003F94FF48050019000208DF888
:101B000008000C208DF8090001208DF80A0001A8BA
:101B100000F056F828208DF8000001208DF8010013
:101B20008DF802008DF80300684604F097FC4FF42E
:101B3000805000F029F80E21032006F0DFF84FF462
:101B40008040019000208DF808000C208DF80900DD
:101B500001208DF80A0001A800F032F828208DF845
:101B6000000001208DF801008DF802008DF80300BF
:101B7000684604F073FC4FF4804000F005F805B0AF
:101B800000BD000000100240024909680143014AFB
:101B900011607047103C0140014600200022074BB5
:101BA0001B6803EA0102054B14331B680B4202D089
:101BB0000AB1012000E0002070470000003C014015
:101BC000002123498279002A3AD00A461268036824
:101BD0009A430B461A600A1D126803689A430B1D4C
:101BE0001A60027911440A6803681A430A60184AA5
:101BF0000832126803689A43154B08331A601A1D9D
:101C0000126803689A43124B0C331A604279102A07
:101C10000ED11A1F126803681A430D4B08331A605D
:101C20001A1D126803681A43094B0C331A600DE041
:101C30000749427911440A6803681A430A6005E0BB
:101C4000027911440A6803689A430A6070470000E9
:101C5000003C01401CB50121082006F01DF84BF6A0
:101C60004070009001208DF8040000208DF80600DF
:101C700003208DF8050001208DF8070069463348E0
:101C800000F06CF80121042006F006F841F6F0702F
:101C9000009001208DF8040002208DF805006946AF
:101CA0002B4800F05BF80121084605F0F5FF0C20F9
:101CB000009001208DF8040002208DF8050069468F
:101CC000244800F04BF80121022005F0E5FF022036
:101CD000009001208DF8040002208DF8050069466F
:101CE0001D4800F03BF80420009001208DF804000E
:101CF00002208DF805006946174800F02FF80820EB
:101D0000009001208DF8040002208DF8050069463E
:101D1000114800F023F803F0F9FBFFF791FB03F003
:101D2000E7FEFFF79FFD41F61F4141F2873006F0C5
:101D3000EDF941F61F4141F2873006F0A3F9FFF7B4
:101D40009DFE03F0D5FDFFF73FFA1CBD000C0240DD
:101D500000080240000002400004024070B50A463C
:101D6000002100238C4600BF3DE0012404FA01F36A
:101D7000146804EA030C9C4534D104684E00032522
:101D8000B540AC43046014794D00AC4005682C4369
:101D900004601479012C02D01479022C16D18468C5
:101DA0004E000325B540AC43846054794D00AC40EF
:101DB00085682C438460446801258D40AC434460B1
:101DC000446895798D40ADB22C434460C4684E00A0
:101DD0000325B540AC43C460D4794D00AC40C56820
:101DE0002C43C460491C1029BFD370BD024600209B
:101DF00013690B4201D0012000E0002070474183AD
:101E00007047018370470000F0B58BB00446142280
:101E100026A106A8FFF734F9142229A101A8FFF78B
:101E20002FF901211C2006F0ADFA01211F2006F038
:101E3000A9FA0121192006F0A5FA2648007818B958
:101E40000A211F2006F09EFA22480078012803D1BB
:101E50000C211F2006F096FA642094FBF0F0C5B226
:101E6000642094FBF0F100FB11400A2190FBF1F09B
:101E7000C6B20A2094FBF0F100FB1140C7B206A8DD
:101E8000022212FB0501082006F056FA06A80222DB
:101E900012FB06010A2006F04FFA01A8022212FBEB
:101EA00007010C2006F048FA0BB0F0BD050F000644
:101EB000060B020F0306030D070D0007070F030FA4
:101EC0000D0F08060E0B0A0F0B060B0D0F0D080762
:101ED0000F0F0B0F280100202DE9F04F9BB0044697
:101EE0000D4616461422CCA10FA8FFF7C9F81422FC
:101EF000CEA10AA8FFF7C4F81422D1A105A8FFF7C4
:101F0000BFF81422D3A16846FFF7BAF801211C20BC
:101F100006F038FA01211F2006F034FAD248007882
:101F200018B90821182006F02DFACF4800780128AA
:101F300003D10C21182006F025FACB48007802289E
:101F400003D10A21182006F01DFAC748007803289B
:101F500003D10921182006F015FA08211B2006F0EC
:101F600011FA4FF47A7094FBF0F0C0B21A904FF46B
:101F70007A7094FBF0F100FB1140642190FBF1F0CA
:101F8000C0B21990642094FBF0F100FB11400A21CB
:101F900090FBF1F0C0B218900A2094FBF0F100FB26
:101FA0001140C0B21790B1480078012809D10FA89C
:101FB00002211A9A11FB02030A461946162006F05E
:101FC000BBF9AA48007818B90221172006F0DAF9FF
:101FD00005A90222199812FB00131946142006F0D5
:101FE000ABF90FA90222189812FB00131946122010
:101FF00006F0A2F90FA90222179812FB0013194646
:10200000102006F099F94FF47A7095FBF0F0C0B209
:1020100016904FF47A7095FBF0F100FB115064219B
:1020200090FBF1F0C7B2642095FBF0F100FB11507A
:102030000A2190FBF1F000F0FF080A2095FBF0F177
:1020400000FB115000F0FF091698002825DD0FA8AD
:102050000221169A11FB02030A4619460E2006F0C9
:102060006BF90AA8022111FB07030A46194608204A
:1020700006F062F90AA8022111FB08030A46194674
:102080000A2006F059F96846022111FB09030A46A5
:1020900019460C2006F050F92FE0002F1BDD0AA88E
:1020A000022111FB07030A461946082006F044F9ED
:1020B0000AA8022111FB08030A4619460A2006F065
:1020C0003BF96846022111FB09030A4619460C2018
:1020D00006F032F911E00AA8022111FB08030A46B2
:1020E00019460A2006F028F96846022111FB090367
:1020F0000A4619460C2006F01FF94FF47A70B6FB19
:10210000F0F0C0B215904FF47A70B6FBF0F100FB1E
:1021100011606421B0FBF1F000F0FF0A6420B6FB0F
:10212000F0F100FB11600A21B0FBF1FB0A20B6FBC5
:10213000F0F100FB116014904D48007818B90A21A5
:102140001F2006F01FF94A480078012803D10C210E
:102150001F2006F017F91598002826DD0AA802218D
:10216000159A11FB02030A461946002006F0E4F80E
:102170000AA8022111FB0A030A461946022006F0AA
:10218000DBF80AA8022111FB0B030A4619460420BA
:1021900006F0D2F80AA80221149A11FB02030A469B
:1021A0001946062006F0C8F832E0BAF1000F1CDD2F
:1021B0000AA8022111FB0A030A461946022006F06A
:1021C000BBF80AA8022111FB0B030A46194604209A
:1021D00006F0B2F80AA80221149A11FB02030A467B
:1021E0001946062006F0A8F812E00AA8022111FB01
:1021F0000B030A461946042006F09EF80AA802219D
:10220000149A11FB02030A461946062006F094F8B8
:102210001BB0BDE8F08F00000F0506000B060F0293
:1022200006030D030D0707000F070F03050F000638
:10223000060B020F0306030D070D0007070F030F20
:102240000F0D06080B0E0F0A060B0D0B0D0F0708DE
:102250000F0F0F0B0D0F08060E0B0A0F0B060B0DC1
:102260000F0D08070F0F0B0F570000205F00002015
:10227000280100202DE9F04F9BB004460D4616467C
:102280001422CCA10FA8FEF7FBFE1422CEA10AA8AF
:10229000FEF7F6FE1422D1A105A8FEF7F1FE1422E6
:1022A000D3A16846FEF7ECFE01211C2006F06AF877
:1022B00001211F2006F066F80A211B2006F062F8B3
:1022C000D048007818B90021182006F05BF8CD48F6
:1022D0000078012803D10421182006F053F8C948DA
:1022E0000078022803D10221182006F04BF8C548D7
:1022F0000078032803D10121182006F043F84FF499
:102300007A7094FBF0F0C0B21A904FF47A7094FB9C
:10231000F0F100FB1140642190FBF1F0C0B2199084
:10232000642094FBF0F100FB11400A2190FBF1F0D6
:10233000C0B218900A2094FBF0F100FB1140C0B22B
:102340001790B1480078012809D10FA802211A9AE4
:1023500011FB02030A461946162005F0EDFFAA48B4
:10236000007818B90221172006F00CF805A90222FE
:10237000199812FB00131946142005F0DDFF0FA970
:102380000222189812FB00131946122005F0D4FF00
:102390000FA90222179812FB00131946102005F00E
:1023A000CBFF4FF47A7095FBF0F0C0B216904FF46B
:1023B0007A7095FBF0F100FB1150642190FBF1F075
:1023C000C7B2642095FBF0F100FB11500A2190FB8D
:1023D000F1F000F0FF080A2095FBF0F100FB11502E
:1023E00000F0FF091698002825DD0FA80221169A93
:1023F00011FB02030A4619460E2005F09DFF0AA8AC
:10240000022111FB07030A461946082005F094FF34
:102410000AA8022111FB08030A4619460A2005F002
:102420008BFF6846022111FB09030A4619460C205E
:1024300005F082FF2FE0002F1BDD0AA8022111FB0F
:1024400007030A461946082005F076FF0AA802216C
:1024500011FB08030A4619460A2005F06DFF68467D
:10246000022111FB09030A4619460C2005F064FFFE
:1024700011E00AA8022111FB08030A4619460A20A6
:1024800005F05AFF6846022111FB09030A46194666
:102490000C2005F051FF4FF47A70B6FBF0F0C0B29B
:1024A00015904FF47A70B6FBF0F100FB11606421D7
:1024B000B0FBF1F000F0FF0A6420B6FBF0F100FB86
:1024C00011600A21B0FBF1FB0A20B6FBF0F100FB22
:1024D000116014904D48007818B90A211F2005F0AA
:1024E00051FF4A480078012803D10C211F2005F034
:1024F00049FF1598002826DD0AA80221159A11FB2C
:1025000002030A461946002005F016FF0AA8022118
:1025100011FB0A030A461946022005F00DFF0AA81E
:10252000022111FB0B030A461946042005F004FFA3
:102530000AA80221149A11FB02030A461946062032
:1025400005F0FAFE32E0BAF1000F1CDD0AA8022104
:1025500011FB0A030A461946022005F0EDFE0AA8FF
:10256000022111FB0B030A461946042005F0E4FE84
:102570000AA80221149A11FB02030A4619460620F2
:1025800005F0DAFE12E00AA8022111FB0B030A464D
:102590001946042005F0D0FE0AA80221149A11FB66
:1025A00002030A461946062005F0C6FE1BB0BDE828
:1025B000F08F00000F0506000B060F0206030D0347
:1025C0000D0707000F070F03050F0006060B020F8C
:1025D0000306030D070D0007070F030F0F0D060875
:1025E0000B0E0F0A060B0D0B0D0F07080F0F0F0B2D
:1025F0000D0F08060E0B0A0F0B060B0D0F0D08072B
:102600000F0F0B0F570000205F0000202801002053
:102610002DE9F04F9BB004460D4616461422CCA17E
:102620000FA8FEF72DFD1422CEA10AA8FEF728FD63
:102630001422D1A105A8FEF723FD1422D3A16846D8
:10264000FEF71EFD01211C2005F09CFE01211F202C
:1026500005F098FE0C211B2005F094FED048007870
:1026600018B90021182005F08DFECD48007801280A
:1026700003D10421182005F085FEC94800780228FE
:1026800003D10221182005F07DFEC54800780328FB
:1026900003D10121182005F075FE4FF47A7094FBE8
:1026A000F0F0C0B21A904FF47A7094FBF0F100FB96
:1026B0001140642190FBF1F0C0B21990642094FBAA
:1026C000F0F100FB11400A2190FBF1F0C0B218902C
:1026D0000A2094FBF0F100FB1140C0B21790B14802
:1026E0000078012809D10FA802211A9A11FB0203D0
:1026F0000A461946162005F01FFEAA48007818B9A8
:102700000221172005F03EFE05A90222199812FBAE
:1027100000131946142005F00FFE0FA90222189885
:1027200012FB00131946122005F006FE0FA9022223
:10273000179812FB00131946102005F0FDFD4FF409
:102740007A7095FBF0F0C0B216904FF47A7095FB5A
:10275000F0F100FB1150642190FBF1F0C7B264204E
:1027600095FBF0F100FB11500A2190FBF1F000F015
:10277000FF080A2095FBF0F100FB115000F0FF0963
:102780001698002825DD0FA80221169A11FB0203D6
:102790000A4619460E2005F0CFFD0AA8022111FBBA
:1027A00007030A461946082005F0C6FD0AA80221BB
:1027B00011FB08030A4619460A2005F0BDFD6846CC
:1027C000022111FB09030A4619460C2005F0B4FD4D
:1027D0002FE0002F1BDD0AA8022111FB07030A4688
:1027E0001946082005F0A8FD0AA8022111FB0803DC
:1027F0000A4619460A2005F09FFD6846022111FB92
:1028000009030A4619460C2005F096FD11E00AA8B6
:10281000022111FB08030A4619460A2005F08CFD27
:102820006846022111FB09030A4619460C2005F0EF
:1028300083FD4FF47A70B6FBF0F0C0B215904FF400
:102840007A70B6FBF0F100FB11606421B0FBF1F08F
:1028500000F0FF0A6420B6FBF0F100FB11600A21D2
:10286000B0FBF1FB0A20B6FBF0F100FB1160149005
:102870004D48007818B90A211F2005F083FD4A4809
:102880000078012803D10C211F2005F07BFD15984D
:10289000002826DD0AA80221159A11FB02030A4628
:1028A0001946002005F048FD0AA8022111FB0A0381
:1028B0000A461946022005F03FFD0AA8022111FB35
:1028C0000B030A461946042005F036FD0AA802212A
:1028D000149A11FB02030A461946062005F02CFD46
:1028E00032E0BAF1000F1CDD0AA8022111FB0A0335
:1028F0000A461946022005F01FFD0AA8022111FB15
:102900000B030A461946042005F016FD0AA8022109
:10291000149A11FB02030A461946062005F00CFD25
:1029200012E00AA8022111FB0B030A4619460420F3
:1029300005F002FD0AA80221149A11FB02030A46BF
:102940001946062005F0F8FC1BB0BDE8F08F00002A
:102950000F0506000B060F0206030D030D07070007
:102960000F070F03050F0006060B020F0306030DEA
:10297000070D0007070F030F0F0D06080B0E0F0AB8
:10298000060B0D0B0D0F07080F0F0F0B0D0F080691
:102990000E0B0A0F0B060B0D0F0D08070F0F0B0F79
:1029A000570000205F000020280100202DE9F04F93
:1029B0009BB004460D4616461422CEA10FA8FEF782
:1029C0005FFB1422D0A10AA8FEF75AFB1422D3A160
:1029D00005A8FEF755FB1422D5A16846FEF750FB6B
:1029E00001211C2005F0CEFC01211F2005F0CAFCAE
:1029F00004211A2005F0C6FCD248007818B900213D
:102A0000182005F0BFFCCF480078012803D104212D
:102A1000182005F0B7FCCB480078022803D102212A
:102A2000182005F0AFFCC7480078032803D1012126
:102A3000182005F0A7FC08211B2005F0A3FC4FF48B
:102A40007A7094FBF0F0C0B21A904FF47A7094FB55
:102A5000F0F100FB1140642190FBF1F0C0B219903D
:102A6000642094FBF0F100FB11400A2190FBF1F08F
:102A7000C0B218900A2094FBF0F100FB1140C0B2E4
:102A80001790B1480078012809D10FA802211A9A9D
:102A900011FB02030A461946162005F04DFCAA4810
:102AA000007818B90221172005F06CFC05A9022254
:102AB000199812FB00131946142005F03DFC0FA9CC
:102AC0000222189812FB00131946122005F034FC5C
:102AD0000FA90222179812FB00131946102005F0C7
:102AE0002BFC4FF47A7095FBF0F0C0B216904FF4C7
:102AF0007A7095FBF0F100FB1150642190FBF1F02E
:102B0000C7B2642095FBF0F100FB11500A2190FB45
:102B1000F1F000F0FF080A2095FBF0F100FB1150E6
:102B200000F0FF091698002825DD0FA80221169A4B
:102B300011FB02030A4619460E2005F0FDFB0AA808
:102B4000022111FB07030A461946082005F0F4FB91
:102B50000AA8022111FB08030A4619460A2005F0BB
:102B6000EBFB6846022111FB09030A4619460C20BB
:102B700005F0E2FB2FE0002F1BDD0AA8022111FB6C
:102B800007030A461946082005F0D6FB0AA80221C9
:102B900011FB08030A4619460A2005F0CDFB6846DA
:102BA000022111FB09030A4619460C2005F0C4FB5B
:102BB00011E00AA8022111FB08030A4619460A205F
:102BC00005F0BAFB6846022111FB09030A461946C3
:102BD0000C2005F0B1FB4FF47A70B6FBF0F0C0B2F8
:102BE00015904FF47A70B6FBF0F100FB1160642190
:102BF000B0FBF1F000F0FF0A6420B6FBF0F100FB3F
:102C000011600A21B0FBF1FB0A20B6FBF0F100FBDA
:102C1000116014904D48007818B90A211F2005F062
:102C2000B1FB4A480078012803D10C211F2005F090
:102C3000A9FB1598002826DD0AA80221159A11FB88
:102C400002030A461946002005F076FB0AA8022175
:102C500011FB0A030A461946022005F06DFB0AA87B
:102C6000022111FB0B030A461946042005F064FB00
:102C70000AA80221149A11FB02030A4619460620EB
:102C800005F05AFB32E0BAF1000F1CDD0AA8022160
:102C900011FB0A030A461946022005F04DFB0AA85B
:102CA000022111FB0B030A461946042005F044FBE0
:102CB0000AA80221149A11FB02030A4619460620AB
:102CC00005F03AFB12E00AA8022111FB0B030A46A9
:102CD0001946042005F030FB0AA80221149A11FBC2
:102CE00002030A461946062005F026FB1BB0BDE884
:102CF000F08F00000F0506000B060F0206030D0300
:102D00000D0707000F070F03050F0006060B020F44
:102D10000306030D070D0007070F030F0F0D06082D
:102D20000B0E0F0A060B0D0B0D0F07080F0F0F0BE5
:102D30000D0F08060E0B0A0F0B060B0D0F0D0807E3
:102D40000F0F0B0F570000205F000020280100200C
:102D50002DE9F04F91B004460D4616461422DCA131
:102D600005A8FEF78DF91422DEA16846FEF788F962
:102D700001211C2005F006FB01211F2005F002FBAC
:102D8000DD48007818B90A211F2005F0FBFADA485F
:102D90000078012803D10C211F2005F0F3FA4FF42D
:102DA0007A70B4FBF0F0C0B210904FF47A70B4FBBC
:102DB000F0F100FB11406421B0FBF1F0C0B20F90C4
:102DC0006420B4FBF0F100FB11400A21B0FBF1F7E5
:102DD0000A20B4FBF0F100FB11484FF47A70B5FB08
:102DE000F0F0C0B20E904FF47A70B5FBF0F100FB3A
:102DF00011506421B0FBF1F0C0B20D906420B5FB1E
:102E0000F0F100FB11500A21B0FBF1F90A20B5FBEB
:102E1000F0F100FB115A4FF47A70B6FBF0F0C0B23B
:102E20000C904FF47A70B6FBF0F100FB1160642156
:102E3000B0FBF1F0C0B20B906420B6FBF0F100FBE8
:102E400011600A21B0FBF1F00A900A20B6FBF0F104
:102E500000FB116B1098002825DD05A902221098AF
:102E600012FB00131946162005F066FA05A8022188
:102E70000F9A11FB02030A461946142005F05CFA6A
:102E800005A8022111FB07030A461946122005F086
:102E900053FA05A8022111FB08030A46194610201F
:102EA00005F04AFA3DE00F9800281CDD05A8022134
:102EB0000F9A11FB02030A461946142005F03CFA4A
:102EC00005A8022111FB07030A461946122005F046
:102ED00033FA05A8022111FB08030A4619461020FF
:102EE00005F02AFA1DE0002F12DD05A8022111FBD2
:102EF00007030A461946122005F01EFA05A802210A
:102F000011FB08030A461946102005F015FA08E0DF
:102F100005A8022111FB08030A461946102005F0F6
:102F20000BFA0E98002825DD05A902220E9812FB47
:102F3000001319460E2005F0FFF9684602210D9A8C
:102F400011FB02030A461946082005F0F5F9684608
:102F5000022111FB09030A4619460A2005F0ECF983
:102F60006846022111FB0A030A4619460C2005F0A7
:102F7000E3F93EE00D9800281CDD684602210D9A19
:102F800011FB02030A461946082005F0D5F96846E8
:102F9000022111FB09030A4619460A2005F0CCF963
:102FA0006846022111FB0A030A4619460C2005F067
:102FB000C3F91EE0B9F1000F12DD6846022111FBD2
:102FC00009030A4619460A2005F0B6F968460221A7
:102FD00011FB0A030A4619460C2005F0ADF908E07A
:102FE0006846022111FB0A030A4619460C2005F027
:102FF000A3F90C98002826DD694602220C9812FBE2
:1030000000131946002005F097F9684602210B9A33
:1030100011FB02030A461946022005F08DF96846A5
:1030200002210A9A11FB02030A461946042005F000
:1030300083F96846022111FB0B030A461946062054
:1030400005F07AF940E00B9800281DDD6846022162
:103050000B9A11FB02030A461946022005F06CF98F
:10306000684602210A9A11FB02030A461946042007
:1030700005F062F96846022111FB0B030A46194666
:10308000062005F059F91FE00A98002813DD68466C
:1030900002210A9A11FB02030A461946042005F090
:1030A0004BF96846022111FB0B030A46194606201C
:1030B00005F042F908E06846022111FB0B030A46BD
:1030C0001946062005F038F911B0BDE8F08F000070
:1030D0000F0506000B060F0206030D030D07070080
:1030E0000F070F03050F0006060B020F0306030D63
:1030F000070D0007070F030F280100202DE9F043FB
:103100008BB0FAA000680A901422F9A105A8FDF777
:10311000B7FF1422FBA16846FDF7B2FFFE48007816
:1031200000283DDD4FF48051FC48FEF75FFEC0B93A
:10313000FB48007830B9FB480078401CF94908701A
:1031400002F002FD00BF4FF48051F448FEF74EFE3E
:103150000028F8D0F3480078062802DD0120F14964
:1031600008704FF48041ED48FEF740FEC0B9EC48CE
:10317000007830B9EB480078401EEA49087002F048
:10318000E3FC00BF4FF48041E448FEF72FFE002827
:10319000F8D0E4480078012802DA0620E1490870F6
:1031A000E048007807287DD2DFE800F07C04DBFCF3
:1031B000FBFAF9008021DC48FEF718FE80B9FEF723
:1031C00089FBDA4A128802EB82025204110CD84AB7
:1031D000127802EB82025000D64A1268FEF77CFE9B
:1031E0008021D148FEF702FE01287DD14103CB4862
:1031F000FEF7FCFDC0B9CA480078A8B902F0A4FCEB
:10320000CD480078401CCC49087000BF4FF40051F5
:10321000C248FEF7EBFD0028F8D0C7480078032825
:1032200002DD0120C44908704FF40061BB48FEF77D
:10323000DDFDC0B9BA480078A8B902F085FCBE48E7
:103240000078401EBC49087000BF4FF40061B348CD
:10325000FEF7CCFD0028F8D0B7480078012802DA44
:103260000320B5490870B448007801282ED1B3482E
:10327000007890B9FEF72EFBB14A128802EB820269
:103280005204110CAF4A127802EB82025000AE4A8F
:103290001378AE4A1268FEF7EDFFA84800780128BF
:1032A00014D100E058E2FEF715FBA94A128802EBA0
:1032B00082025204110CA74A127802EB82025000DB
:1032C000A54A1378A54A1268FFF770FB9A48007860
:1032D000022814D1FEF7FEFAA14A128802EB8202FC
:1032E0005204110C9F4A00E03AE0127802EB82028D
:1032F00050009D4A13789D4A1268FFF789F98E485D
:10330000007803282CD18D480078012812D1FEF7CF
:10331000E1FA8B4A128802EB82025204110C894AAC
:10332000127802EB82025000874A1378874A1268AB
:10333000FEF7A0FF8148007890B9FEF7CBFA844AE7
:10334000128802EB82025204110C824A127802EBBC
:1033500082025000804A1378804A1268FFF726FBE9
:10336000B7E380217048FEF741FD48B9FEF7B2FA95
:1033700040F2F5127E4801887E48008800F0BAFBD2
:1033800080216948FEF732FD01287AD14103634864
:10339000FEF72CFDE8B962480078D0B903E090E36D
:1033A000E1E1DAE177E002F0CFFB73480078401CFE
:1033B0007149087000BF4FF400515848FEF716FDE0
:1033C0000028F8D06C480078032802DD01206A4903
:1033D00008704FF400615148FEF708FDC0B950482D
:1033E0000078A8B902F0B0FB63480078401E62493B
:1033F000087000BF4FF400614848FEF7F7FC002852
:10340000F8D05D480078012802DA03205A49087094
:1034100059480078012815D1FEF75CFA4748007832
:1034200040B940F2F512554801885548008800F02F
:103430000FFD07E040F2F51252480188524800881B
:1034400001F06AF84C480078022809D1FEF742FAE8
:1034500040F2F5124D4801884D48008800F0AAFE60
:1034600045480078032815D1FEF734FA3348007830
:1034700040B940F2F512434801884348008801F002
:103480004BF807E040F2F5123C4801883C480088C0
:1034900000F0DEFC1DE380212348FEF7A7FCE0B925
:1034A000FEF718FA3B4890ED000AF2EE040A20EE0F
:1034B000200ABCEEC00A10EE100A82B2364890ED27
:1034C000000AF2EE040A20EE200ABCEEC00A10EE5A
:1034D000100A81B2002001F0D1F980211248FEF7D4
:1034E00085FC01287ED141030C4857E00002090504
:1034F0000F0506000B060F0206030D030D0707005C
:103500000F070F03050F0006060B020F0306030D3E
:10351000070D0007070F030F62000020000C024098
:103520002801002025010020001002400800002092
:10353000070000203000002026010020610000204C
:1035400034000020540000205E00002048000020CD
:1035500038000020560000206000002050000020AD
:1035600036000020550000205F0000204C000020A5
:103570000C0000200A00002027010020400000204D
:103580003A000020440000203E00002042000020BD
:103590003C0000201400002010000020FEF726FC54
:1035A000C0B9FE480078A8B902F0CEFAFC4800780D
:1035B000401CFB49087000BF4FF40051F948FEF76A
:1035C00015FC0028F8D0F6480078032802DD012019
:1035D000F34908704FF40061F248FEF707FCD0B9D8
:1035E000EE4800E09CE00078A8B902F0ADFAEC48A3
:1035F0000078401EEA49087000BF4FF40061E948B6
:10360000FEF7F4FB0028F8D0E5480078012802DA3C
:103610000320E3490870E248007801283BD1FEF717
:1036200059F9E1480078D8B9E04890ED000AF2EE87
:10363000040A20EE200ABCEEC00A10EE100A82B284
:10364000DB4890ED000AF2EE040A20EE200ABCEE00
:10365000C00A10EE100A81B2002001F09FFA1AE0B1
:10366000D44890ED000AF2EE040A20EE200ABCEEE7
:10367000C00A10EE100A82B2CF4890ED000AF2EEB6
:10368000040A20EE200ABCEEC00A10EE100A81B235
:10369000002001F0ABFDC248007802281CD1FEF7E3
:1036A00019F9C64890ED000AF2EE040A20EE200A4D
:1036B000BCEEC00A10EE100A82B2C14890ED000ABA
:1036C000F2EE040A20EE200ABCEEC00A10EE100A48
:1036D00081B2002001F0F6FBB148007803283BD10D
:1036E000FEF7F8F8B0480078D8B9B24890ED000A73
:1036F000F2EE040A20EE200ABCEEC00A10EE100A18
:1037000082B2AD4890ED000AF2EE040A20EE200AE3
:10371000BCEEC00A10EE100A81B2002001F066FD76
:103720001AE0A24890ED000AF2EE040A20EE200A08
:10373000BCEEC00A10EE100A82B29D4890ED000A5D
:10374000F2EE040A20EE200ABCEEC00A10EE100AC7
:1037500081B2002001F022FABBE1FEF7BBF80220A3
:10376000FEF752FBB5E1FEF7B5F801211C2004F08D
:1037700009FE01211F2004F005FE8848007818B9D1
:103780000A211F2004F0FEFD84480078012803D19F
:103790000C211F2004F0F6FD4FF400718148FEF764
:1037A00025FB88B902F0D0F98648007800EB40008C
:1037B0008549085C401C8349097801EB4101824A34
:1037C0005054962009F008FD95E080480088401C80
:1037D0007E49088008460088C8287CD101200880DE
:1037E00002F0B2F9FEF776F801211C2004F0CAFDC0
:1037F00001211F2004F0C6FD6848007818B90A218D
:103800001F2004F0BFFD65480078012803D10C217A
:103810001F2004F0B7FD6B48007800EB40006A49B8
:10382000085C401C6749097801EB4101664A505425
:103830006448007800EB40001146085C3C2805DD38
:1038400000206049097801EB410150545D4800783F
:1038500000EB40005C49085C5D49087004220AA93D
:10386000142004F069FD574800780A2190FBF1F01C
:10387000C4B25448007890FBF1F201FB1200C5B2CB
:103880005348007890FBF1F0C6B25148007890FBA5
:10389000F1F201FB1200C7B24D48007890FBF1F045
:1038A00000F0FF084A48007890FBF1F201FB12009B
:1038B00000F0FF0905A8022212FB0401122004F007
:1038C0003BFD05A8022212FB0501102004F034FD87
:1038D0006846022200E00EE012FB06010A2004F016
:1038E0002BFD6846022212FB07010C2004F024FD88
:1038F000962009F071FC4FF400712A48FEF776FA21
:1039000000283FF462AF0120304908802D4800783C
:1039100000EB40002C49085C3C2806DD00202949CA
:10392000097801EB4101284A50542648007800EB01
:1039300040002549085C26490870224A127802EBAB
:103940004202214B995C1F4A1278521E102303EB4E
:10395000420290B2FDF7A4FD04220AA9142004F04B
:10396000EBFC184800780A2190FBF1F0C4B215482E
:10397000007890FBF1F201FB1200C5B21448007808
:1039800090FBF1F0C6B21248007890FBF1F201FB17
:103990001200C7B20E4800781CE000002801002089
:1039A00027010020000C0240610000201C000020C4
:1039B000180000202C0000202800002024000020F7
:1039C0002000002029010020440100202A010020BD
:1039D0002C01002090FBF1F000F0FF083F48007838
:1039E00090FBF1F201FB120000F0FF0905A8022292
:1039F00012FB0401122004F09FFC05A8022212FB16
:103A00000501102004F098FC6846022212FB060112
:103A10000A2004F091FC6846022212FB07010C20E8
:103A200004F08AFC4FF400512D48FEF7DFF9C0B9CD
:103A30002C480078A8B902F087F82B480078401C81
:103A40002949087000BF4FF400512548FEF7CEF910
:103A50000028F8D024480078202802DD01202249DF
:103A600008704FF400611E48FEF7C0F940BB1D48C6
:103A7000007828BB02F068F81B480078401E1A49FD
:103A8000087000BF4FF400611548FEF7AFF9002839
:103A9000F8D015480078012802DA20201249087071
:103AA0001148007800EB40001049085C0B49087091
:103AB0000D48007800EB40000C49085C0C49087088
:103AC00007E0FDF707FF002211461046FFF740F917
:103AD00000BF00BF0BB0BDE8F08300002C01002048
:103AE000000C024028010020290100204401002090
:103AF0002D0100202DE9F04F9BB004460D461646DF
:103B00001422BDA110A8FDF7BBFA1422BFA10BA877
:103B1000FDF7B6FA1422C2A106A8FDF7B1FA1422E5
:103B2000C4A101A8FDF7ACFA01211C2004F02AFC75
:103B300001211F2004F026FCC348007818B9082191
:103B4000182004F01FFCC0480078012803D10C2184
:103B5000182004F017FCBC480078022803D10A2181
:103B6000182004F00FFCB8480078032803D109217D
:103B7000182004F007FC0821192004F003FCB348C6
:103B8000007818B90A211F2004F0FCFBAF48007828
:103B9000012803D10C211F2004F0F4FB4FF47A70AC
:103BA00094FBF0F0C0B21A904FF47A7094FBF0F1ED
:103BB00000FB1140642190FBF1F0C7B2642094FB3C
:103BC000F0F100FB11400A2190FBF1F000F0FF083A
:103BD0000A2094FBF0F100FB114000F0FF091A9855
:103BE000002825DD10A802211A9A11FB02030A46BB
:103BF0001946162004F0A0FB10A8022111FB0703B0
:103C00000A461946142004F097FB10A8022111FB64
:103C100008030A461946122004F08EFB10A8022160
:103C200011FB09030A461946102004F085FB2FE01A
:103C3000002F1BDD10A8022111FB07030A461946BD
:103C4000142004F079FB10A8022111FB08030A4696
:103C50001946122004F070FB10A8022111FB090381
:103C60000A461946102004F067FB11E010A8022153
:103C700011FB08030A461946122004F05DFB10A848
:103C8000022111FB09030A461946102004F054FBD7
:103C90004FF47A7095FBF0F0C0B219904FF47A703F
:103CA00095FBF0F100FB1150642190FBF1F000F066
:103CB000FF0A642095FBF0F100FB11500A2190FBF4
:103CC000F1F000F0FF0B0A2095FBF0F100FB115022
:103CD000C0B218901998002826DD10A80221199A60
:103CE00011FB02030A4619460E2004F025FB0BA81F
:103CF000022111FB0A030A461946082004F01CFBA6
:103D00000BA8022111FB0B030A4619460A2004F0F6
:103D100013FB0BA80221189A11FB02030A4619464D
:103D20000C2004F009FB32E0BAF1000F1CDD0BA8F7
:103D3000022111FB0A030A461946082004F0FCFA86
:103D40000BA8022111FB0B030A4619460A2004F0B6
:103D5000F3FA0BA80221189A11FB02030A4619462E
:103D60000C2004F0E9FA12E00BA8022111FB0B036E
:103D70000A4619460A2004F0DFFA0BA80221189A15
:103D800011FB02030A4619460C2004F0D5FA642000
:103D900096FBF0F0C2B21792642096FBF0F100FBA4
:103DA00011600A2190FBF1F0C0B216900A2096FB38
:103DB000F0F100FB1160C0B215900BA80221179A18
:103DC00011FB02030A461946022004F0B5FA0BA9BA
:103DD0000222169812FB00131946042004F0ACFAD4
:103DE00001A90222159812FB00131946062004F0BF
:103DF000A3FA1BB0BDE8F08F0F0506000B060F02FB
:103E000006030D030D0707000F070F03050F00063C
:103E1000060B020F0306030D070D0007070F030F24
:103E20000F0D06080B0E0F0A060B0D0B0D0F0708E2
:103E30000F0F0F0B0D0F08060E0B0A0F0B060B0DC5
:103E40000F0D08070F0F0B0F57000020280100204F
:103E50002DE9F04F9BB004460D4616461422BFA133
:103E600010A8FDF70DF91422C1A10BA8FDF708F960
:103E70001422C4A106A8FDF703F91422C6A101A8C3
:103E8000FDF7FEF801211C2004F07CFA01211F201F
:103E900004F078FA02211B2004F074FAC348007879
:103EA00018B90021182004F06DFAC04800780128E4
:103EB00003D10421182004F065FABC4800780228D8
:103EC00003D10221182004F05DFAB84800780328D5
:103ED00003D10121182004F055FA0821192004F01B
:103EE00051FAB348007818B90A211F2004F04AFAA1
:103EF000AF480078012803D10C211F2004F042FABA
:103F00004FF47A7094FBF0F0C0B21A904FF47A70CC
:103F100094FBF0F100FB1140642190FBF1F0C7B27B
:103F2000642094FBF0F100FB11400A2190FBF1F0BA
:103F300000F0FF080A2094FBF0F100FB114000F0B4
:103F4000FF091A98002825DD10A802211A9A11FBF2
:103F500002030A461946162004F0EEF910A80221C1
:103F600011FB07030A461946142004F0E5F910A8CE
:103F7000022111FB08030A461946122004F0DCF95D
:103F800010A8022111FB09030A461946102004F06B
:103F9000D3F92FE0002F1BDD10A8022111FB07032E
:103FA0000A461946142004F0C7F910A8022111FB93
:103FB00008030A461946122004F0BEF910A802218F
:103FC00011FB09030A461946102004F0B5F911E067
:103FD00010A8022111FB08030A461946122004F01A
:103FE000ABF910A8022111FB09030A46194610205B
:103FF00004F0A2F94FF47A7095FBF0F0C0B219907A
:104000004FF47A7095FBF0F100FB1150642190FBA6
:10401000F1F000F0FF0A642095FBF0F100FB115075
:104020000A2190FBF1F000F0FF0B0A2095FBF0F164
:1040300000FB1150C0B218901998002826DD10A876
:104040000221199A11FB02030A4619460E2004F0B8
:1040500073F90BA8022111FB0A030A46194608202E
:1040600004F06AF90BA8022111FB0B030A4619465A
:104070000A2004F061F90BA80221189A11FB02032F
:104080000A4619460C2004F057F932E0BAF1000F45
:104090001CDD0BA8022111FB0A030A461946082061
:1040A00004F04AF90BA8022111FB0B030A4619463A
:1040B0000A2004F041F90BA80221189A11FB02030F
:1040C0000A4619460C2004F037F912E00BA8022129
:1040D00011FB0B030A4619460A2004F02DF90BA820
:1040E0000221189A11FB02030A4619460C2004F01B
:1040F00023F9642096FBF0F0C2B21792642096FB7D
:10410000F0F100FB11600A2190FBF1F0C0B21690B3
:104110000A2096FBF0F100FB1160C0B215900BA8CD
:104120000221179A11FB02030A461946022004F0E5
:1041300003F90BA90222169812FB0013194604205A
:1041400004F0FAF801A90222159812FB001319468F
:10415000062004F0F1F81BB0BDE8F08F0F05060053
:104160000B060F0206030D030D0707000F070F03D1
:10417000050F0006060B020F0306030D070D0007CF
:10418000070F030F0F0D06080B0E0F0A060B0D0B82
:104190000D0F07080F0F0F0B0D0F08060E0B0A0F60
:1041A0000B060B0D0F0D08070F0F0B0F570000200C
:1041B000280100202DE9F04F9BB004460D4616461D
:1041C0001422BFA110A8FCF75BFF1422C1A10BA809
:1041D000FCF756FF1422C4A106A8FCF751FF1422D5
:1041E000C6A101A8FCF74CFF01211C2004F0CAF86D
:1041F00001211F2004F0C6F804211B2004F0C2F89E
:10420000C348007818B90021182004F0BBF8C04852
:104210000078012803D10421182004F0B3F8BC4829
:104220000078022803D10221182004F0ABF8B84826
:104230000078032803D10121182004F0A3F80821F5
:10424000192004F09FF8B348007818B90A211F20FC
:1042500004F098F8AF480078012803D10C211F2002
:1042600004F090F84FF47A7094FBF0F0C0B21A901A
:104270004FF47A7094FBF0F100FB1140642190FB45
:10428000F1F0C7B2642094FBF0F100FB11400A2169
:1042900090FBF1F000F0FF080A2094FBF0F100FB26
:1042A000114000F0FF091A98002825DD10A802210E
:1042B0001A9A11FB02030A461946162004F03CF82C
:1042C00010A8022111FB07030A461946142004F026
:1042D00033F810A8022111FB08030A4619461220E0
:1042E00004F02AF810A8022111FB09030A46194616
:1042F000102004F021F82FE0002F1BDD10A8022170
:1043000011FB07030A461946142004F015F810A8FB
:10431000022111FB08030A461946122004F00CF88A
:1043200010A8022111FB09030A461946102004F0C7
:1043300003F811E010A8022111FB08030A461946F0
:10434000122003F0F9FF10A8022111FB09030A460D
:104350001946102003F0F0FF4FF47A7095FBF0F04F
:10436000C0B219904FF47A7095FBF0F100FB115038
:10437000642190FBF1F000F0FF0A642095FBF0F15E
:1043800000FB11500A2190FBF1F000F0FF0B0A2016
:1043900095FBF0F100FB1150C0B21890199800285D
:1043A00026DD10A80221199A11FB02030A461946BC
:1043B0000E2003F0C1FF0BA8022111FB0A030A46DD
:1043C0001946082003F0B8FF0BA8022111FB0B03CC
:1043D0000A4619460A2003F0AFFF0BA80221189ADB
:1043E00011FB02030A4619460C2003F0A5FF32E038
:1043F000BAF1000F1CDD0BA8022111FB0A030A46CB
:104400001946082003F098FF0BA8022111FB0B03AB
:104410000A4619460A2003F08FFF0BA80221189ABA
:1044200011FB02030A4619460C2003F085FF12E037
:104430000BA8022111FB0B030A4619460A2003F0C0
:104440007BFF0BA80221189A11FB02030A461946AA
:104450000C2003F071FF642096FBF0F0C2B21792BB
:10446000642096FBF0F100FB11600A2190FBF1F053
:10447000C0B216900A2096FBF0F100FB1160C0B2AA
:1044800015900BA80221179A11FB02030A46194640
:10449000022003F051FF0BA90222169812FB001311
:1044A0001946042003F048FF01A90222159812FBC7
:1044B00000131946062003F03FFF1BB0BDE8F08F44
:1044C0000F0506000B060F0206030D030D0707007C
:1044D0000F070F03050F0006060B020F0306030D5F
:1044E000070D0007070F030F0F0D06080B0E0F0A2D
:1044F000060B0D0B0D0F07080F0F0F0B0D0F080606
:104500000E0B0A0F0B060B0D0F0D08070F0F0B0FED
:1045100057000020280100202DE9F04F9BB00446F1
:104520000D4616461422BFA110A8FCF7A9FD1422BF
:10453000C1A10BA8FCF7A4FD1422C4A106A8FCF796
:104540009FFD1422C6A101A8FCF79AFD01211C20A1
:1045500003F018FF01211F2003F014FF04211A208B
:1045600003F010FFC348007818B90021182003F0A9
:1045700009FFC0480078012803D10421182003F066
:1045800001FFBC480078022803D10221182003F063
:10459000F9FEB8480078032803D10121182003F060
:1045A000F1FE0821192003F0EDFEB348007818B998
:1045B0000A211F2003F0E6FEAF480078012803D14E
:1045C0000C211F2003F0DEFE4FF47A7094FBF0F014
:1045D000C0B21A904FF47A7094FBF0F100FB1140D6
:1045E000642190FBF1F0C7B2642094FBF0F100FB72
:1045F00011400A2190FBF1F000F0FF080A2094FB23
:10460000F0F100FB114000F0FF091A98002825DDA9
:1046100010A802211A9A11FB02030A461946162015
:1046200003F08AFE10A8022111FB07030A4619466F
:10463000142003F081FE10A8022111FB08030A4692
:104640001946122003F078FE10A8022111FB09037D
:104650000A461946102003F06FFE2FE0002F1BDDE5
:1046600010A8022111FB07030A461946142003F083
:1046700063FE10A8022111FB08030A461946122006
:1046800003F05AFE10A8022111FB09030A4619463D
:10469000102003F051FE11E010A8022111FB0803C5
:1046A0000A461946122003F047FE10A8022111FB0A
:1046B00009030A461946102003F03EFE4FF47A70B3
:1046C00095FBF0F0C0B219904FF47A7095FBF0F1C1
:1046D00000FB1150642190FBF1F000F0FF0A642010
:1046E00095FBF0F100FB11500A2190FBF1F000F076
:1046F000FF0B0A2095FBF0F100FB1150C0B218909F
:104700001998002826DD10A80221199A11FB02032E
:104710000A4619460E2003F00FFE0BA8022111FBDA
:104720000A030A461946082003F006FE0BA80221D8
:1047300011FB0B030A4619460A2003F0FDFD0BA8E6
:104740000221189A11FB02030A4619460C2003F0B5
:10475000F3FD32E0BAF1000F1CDD0BA8022111FBC2
:104760000A030A461946082003F0E6FD0BA80221B9
:1047700011FB0B030A4619460A2003F0DDFD0BA8C6
:104780000221189A11FB02030A4619460C2003F075
:10479000D3FD12E00BA8022111FB0B030A461946B8
:1047A0000A2003F0C9FD0BA80221189A11FB02038D
:1047B0000A4619460C2003F0BFFD642096FBF0F07A
:1047C000C2B21792642096FBF0F100FB11600A213F
:1047D00090FBF1F0C0B216900A2096FBF0F100FBBE
:1047E0001160C0B215900BA80221179A11FB0203A9
:1047F0000A461946022003F09FFD0BA902221698D3
:1048000012FB00131946042003F096FD01A90222B1
:10481000159812FB00131946062003F08DFD1BB0FE
:10482000BDE8F08F0F0506000B060F0206030D030F
:104830000D0707000F070F03050F0006060B020FF9
:104840000306030D070D0007070F030F0F0D0608E2
:104850000B0E0F0A060B0D0B0D0F07080F0F0F0B9A
:104860000D0F08060E0B0A0F0B060B0D0F0D080798
:104870000F0F0B0F57000020280100202DE9F04FEB
:1048800099B004460D4616461422AEA10FA8FCF7B7
:10489000F7FB1422B0A10AA8FCF7F2FB1422B3A183
:1048A00005A8FCF7EDFB1422B5A16846FCF7E8FB70
:1048B00001211C2003F066FD01211F2003F062FD91
:1048C000B448007818B90821182003F05BFDB148FE
:1048D0000078012803D10C21182003F053FDAD48C6
:1048E0000078022803D10A21182003F04BFDA948C3
:1048F0000078032803D10921182003F043FD082183
:104900001A2003F03FFDA448007818B90A211F209F
:1049100003F038FDA0480078012803D10C211F20A6
:1049200003F030FD4FF47A7094FBF0F0C0B21890B1
:104930004FF47A7094FBF0F100FB1140642190FB7E
:10494000F1F0C7B2642094FBF0F100FB11400A21A2
:1049500090FBF1F000F0FF080A2094FBF0F100FB5F
:10496000114000F0FF091898002825DD0FA802214A
:10497000189A11FB02030A461946162003F0DCFCC4
:104980000FA8022111FB07030A461946142003F061
:10499000D3FC0FA8022111FB08030A461946122076
:1049A00003F0CAFC05A8022111FB09030A461946B7
:1049B000102003F0C1FC2FE0002F1BDD0FA8022107
:1049C00011FB07030A461946142003F0B5FC0FA893
:1049D000022111FB08030A461946122003F0ACFC21
:1049E00005A8022111FB09030A461946102003F00D
:1049F000A3FC11E00FA8022111FB08030A46194687
:104A0000122003F099FC05A8022111FB09030A46B4
:104A10001946102003F090FC642095FBF0F0C0B222
:104A20001790642095FBF0F100FB11500A2190FBD8
:104A3000F1F000F0FF0A0A2095FBF0F100FB1150A5
:104A400000F0FF0B179800281CDD0AA80221179A16
:104A500011FB02030A461946082003F06DFC0AA860
:104A6000022111FB0A030A4619460A2003F064FCDE
:104A70006846022111FB0B030A4619460C2003F07D
:104A80005BFC11E00AA8022111FB0A030A46194641
:104A90000A2003F051FC6846022111FB0B030A4671
:104AA00019460C2003F048FC642096FBF0F0C0B2DD
:104AB0001690642096FBF0F100FB11600A2190FB38
:104AC000F1F0C0B215900A2096FBF0F100FB1160E6
:104AD000C0B21490169800281DDD0AA9022216986B
:104AE00012FB00131946104603F026FC0AA8022107
:104AF000159A11FB02030A461946042003F01CFC18
:104B000068460221149A11FB02030A461946062040
:104B100003F012FC13E00AA80221159A11FB02030C
:104B20000A461946042003F007FC68460221149A3D
:104B300011FB02030A461946062003F0FDFB19B0DB
:104B4000BDE8F08F0F0506000B060F0206030D03EC
:104B50000D0707000F070F03050F0006060B020FD6
:104B60000306030D070D0007070F030F0F0D0608BF
:104B70000B0E0F0A060B0D0B0D0F07080F0F0F0B77
:104B80000D0F08060E0B0A0F0B060B0D0F0D080775
:104B90000F0F0B0F57000020280100202DE9F04FC8
:104BA00099B004460D4616461422B0A10FA8FCF792
:104BB00067FA1422B2A10AA8FCF762FA1422B5A17E
:104BC00005A8FCF75DFA1422B7A16846FCF758FA6D
:104BD00001211C2003F0D6FB01211F2003F0D2FB92
:104BE00002211B2003F0CEFBB448007818B9002145
:104BF000182003F0C7FBB1480078012803D1042135
:104C0000182003F0BFFBAD480078022803D1022131
:104C1000182003F0B7FBA9480078032803D101212D
:104C2000182003F0AFFB08211A2003F0ABFBA448C7
:104C3000007818B90A211F2003F0A4FBA0480078CF
:104C4000012803D10C211F2003F09CFB4FF47A7044
:104C500094FBF0F0C0B218904FF47A7094FBF0F12E
:104C600000FB1140642190FBF1F0C7B2642094FB7B
:104C7000F0F100FB11400A2190FBF1F000F0FF0879
:104C80000A2094FBF0F100FB114000F0FF09189896
:104C9000002825DD0FA80221189A11FB02030A46FD
:104CA0001946162003F048FB0FA8022111FB070349
:104CB0000A461946142003F03FFB0FA8022111FBFE
:104CC00008030A461946122003F036FB05A8022104
:104CD00011FB09030A461946102003F02DFB2FE0B3
:104CE000002F1BDD0FA8022111FB07030A461946FE
:104CF000142003F021FB0FA8022111FB08030A4630
:104D00001946122003F018FB05A8022111FB090324
:104D10000A461946102003F00FFB11E00FA80221EC
:104D200011FB08030A461946122003F005FB05A8EB
:104D3000022111FB09030A461946102003F0FCFA70
:104D4000642095FBF0F0C0B21790642095FBF0F161
:104D500000FB11500A2190FBF1F000F0FF0A0A203D
:104D600095FBF0F100FB115000F0FF0B17980028A5
:104D70001CDD0AA80221179A11FB02030A461946F4
:104D8000082003F0D9FA0AA8022111FB0A030A46F7
:104D900019460A2003F0D0FA6846022111FB0B03E2
:104DA0000A4619460C2003F0C7FA11E00AA80221AE
:104DB00011FB0A030A4619460A2003F0BDFA6846A9
:104DC000022111FB0B030A4619460C2003F0B4FA2A
:104DD000642096FBF0F0C0B21690642096FBF0F1D0
:104DE00000FB11600A2190FBF1F0C0B215900A207F
:104DF00096FBF0F100FB1160C0B2149016980028E9
:104E00001DDD0AA90222169812FB0013194610464E
:104E100003F092FA0AA80221159A11FB02030A462E
:104E20001946042003F088FA68460221149A11FBFF
:104E300002030A461946062003F07EFA13E00AA888
:104E40000221159A11FB02030A461946042003F0B9
:104E500073FA68460221149A11FB02030A461946A6
:104E6000062003F069FA19B0BDE8F08F0F050600BF
:104E70000B060F0206030D030D0707000F070F03B4
:104E8000050F0006060B020F0306030D070D0007B2
:104E9000070F030F0F0D06080B0E0F0A060B0D0B65
:104EA0000D0F07080F0F0F0B0D0F08060E0B0A0F43
:104EB0000B060B0D0F0D08070F0F0B0F57000020EF
:104EC000280100202DE9F04F99B004460D46164602
:104ED0001422B0A10FA8FCF7D3F81422B2A10AA89B
:104EE000FCF7CEF81422B5A105A8FCF7C9F81422E6
:104EF000B7A16846FCF7C4F801211C2003F042FA70
:104F000001211F2003F03EFA04211B2003F03AFA8E
:104F1000B448007818B90021182003F033FAB148DA
:104F20000078012803D10421182003F02BFAAD48A2
:104F30000078022803D10221182003F023FAA9489F
:104F40000078032803D10121182003F01BFA08215F
:104F50001A2003F017FAA448007818B90A211F2074
:104F600003F010FAA0480078012803D10C211F207B
:104F700003F008FA4FF47A7094FBF0F0C0B2189086
:104F80004FF47A7094FBF0F100FB1140642190FB28
:104F9000F1F0C7B2642094FBF0F100FB11400A214C
:104FA00090FBF1F000F0FF080A2094FBF0F100FB09
:104FB000114000F0FF091898002825DD0FA80221F4
:104FC000189A11FB02030A461946162003F0B4F999
:104FD0000FA8022111FB07030A461946142003F00B
:104FE000ABF90FA8022111FB08030A46194612204B
:104FF00003F0A2F905A8022111FB09030A4619468C
:10500000102003F099F92FE0002F1BDD0FA80221DB
:1050100011FB07030A461946142003F08DF90FA867
:10502000022111FB08030A461946122003F084F9F5
:1050300005A8022111FB09030A461946102003F0B6
:105040007BF911E00FA8022111FB08030A4619465B
:10505000122003F071F905A8022111FB09030A4689
:105060001946102003F068F9642095FBF0F0C0B2F7
:105070001790642095FBF0F100FB11500A2190FB82
:10508000F1F000F0FF0A0A2095FBF0F100FB11504F
:1050900000F0FF0B179800281CDD0AA80221179AC0
:1050A00011FB02030A461946082003F045F90AA835
:1050B000022111FB0A030A4619460A2003F03CF9B3
:1050C0006846022111FB0B030A4619460C2003F027
:1050D00033F911E00AA8022111FB0A030A46194616
:1050E0000A2003F029F96846022111FB0B030A4646
:1050F00019460C2003F020F9642096FBF0F0C0B2B2
:105100001690642096FBF0F100FB11600A2190FBE1
:10511000F1F0C0B215900A2096FBF0F100FB11608F
:10512000C0B21490169800281DDD0AA90222169814
:1051300012FB00131946104603F0FEF80AA80221DC
:10514000159A11FB02030A461946042003F0F4F8ED
:1051500068460221149A11FB02030A4619460620EA
:1051600003F0EAF813E00AA80221159A11FB0203E2
:105170000A461946042003F0DFF868460221149A13
:1051800011FB02030A461946062003F0D5F819B0B0
:10519000BDE8F08F0F0506000B060F0206030D0396
:1051A0000D0707000F070F03050F0006060B020F80
:1051B0000306030D070D0007070F030F0F0D060869
:1051C0000B0E0F0A060B0D0B0D0F07080F0F0F0B21
:1051D0000D0F08060E0B0A0F0B060B0D0F0D08071F
:1051E0000F0F0B0F57000020280100202DE9F04F72
:1051F00099B004460D4616461422AEA10FA8FBF73F
:105200003FFF1422B0A10AA8FBF73AFF1422B3A172
:1052100005A8FBF735FF1422B5A16846FBF730FF60
:1052200001211C2003F0AEF801211F2003F0AAF891
:105230000C211A2003F0A6F8B248007818B9002112
:10524000182003F09FF8AF480078012803D104210B
:10525000182003F097F8AB480078022803D1022108
:10526000182003F08FF8A7480078032803D1012104
:10527000182003F087F8A448007818B90A211F20E5
:1052800003F080F8A0480078012803D10C211F20EA
:1052900003F078F84FF47A7094FBF0F0C0B21890F5
:1052A0004FF47A7094FBF0F100FB1140642190FB05
:1052B000F1F0C7B2642094FBF0F100FB11400A2129
:1052C00090FBF1F000F0FF080A2094FBF0F100FBE6
:1052D000114000F0FF091898002825DD0FA80221D1
:1052E000189A11FB02030A461946162003F024F807
:1052F0000FA8022111FB07030A461946142003F0E8
:105300001BF80FA8022111FB08030A4619461220B8
:1053100003F012F805A8022111FB09030A461946F9
:10532000102003F009F82FE0002F1BDD0FA8022149
:1053300011FB07030A461946142002F0FDFF0FA8CF
:10534000022111FB08030A461946122002F0F4FF5D
:1053500005A8022111FB09030A461946102002F094
:10536000EBFF11E00FA8022111FB08030A461946C2
:10537000122002F0E1FF05A8022111FB09030A46F1
:105380001946102002F0D8FF642095FBF0F0C0B25F
:105390001790642095FBF0F100FB11500A2190FB5F
:1053A000F1F000F0FF0A0A2095FBF0F100FB11502C
:1053B00000F0FF0B179800281CDD0AA80221179A9D
:1053C00011FB02030A461946082002F0B5FF0AA89D
:1053D000022111FB0A030A4619460A2002F0ACFF1B
:1053E0006846022111FB0B030A4619460C2002F005
:1053F000A3FF11E00AA8022111FB0A030A4619467D
:105400000A2002F099FF6846022111FB0B030A46AD
:1054100019460C2002F090FF642096FBF0F0C0B219
:105420001690642096FBF0F100FB11600A2190FBBE
:10543000F1F0C0B215900A2096FBF0F100FB11606C
:10544000C0B21490169800281DDD0AA902221698F1
:1054500012FB00131946104602F06EFF0AA8022143
:10546000159A11FB02030A461946042002F064FF54
:1054700068460221149A11FB02030A4619460620C7
:1054800002F05AFF13E00AA80221159A11FB020349
:105490000A461946042002F04FFF68460221149A7A
:1054A00011FB02030A461946062002F045FF19B017
:1054B000BDE8F08F0F0506000B060F0206030D0373
:1054C0000D0707000F070F03050F0006060B020F5D
:1054D0000306030D070D0007070F030F0F0D060846
:1054E0000B0E0F0A060B0D0B0D0F07080F0F0F0BFE
:1054F0000D0F08060E0B0A0F0B060B0D0F0D0807FC
:105500000F0F0B0F57000020280100201CB50121B0
:10551000022002F0C1FBE020009001208DF8040081
:1055200000208DF8060002208DF8050069460E481F
:10553000FCF714FC20210C48FCF763FC40210A48CE
:10554000FCF75FFC80210848FCF75BFC022002F0BE
:105550001DFC292002F01AFC012002F017FC032098
:1055600002F014FC1CBD00000004024000BFFEE776
:105570001CB54FF400511348FCF741FC4FF4804038
:10558000009001208DF8040002208DF80500694686
:105590000C48FCF7E3FB4FF480410A48FCF72FFC72
:1055A000022007F03DFE4FF400510648FCF729FCAD
:1055B000022007F035FE4FF400510248FCF71FFCB3
:1055C0001CBD0000000402401CB50121022002F0B5
:1055D00063FB4FF4E040009001208DF804000220AE
:1055E0008DF8050069460948FCF7B8FB4FF4805177
:1055F0000648FCF704FC4FF400510448FCF701FC9A
:105600004FF480410148FCF7FCFB1CBD0004024044
:105610001CB54FF400511348FCF7F1FB4FF48040E8
:10562000009001208DF8040002208DF805006946E5
:105630000C48FCF793FB4FF480410A48FCF7E1FB70
:10564000022007F0EDFD4FF400510648FCF7D9FBAE
:10565000022007F0E5FD4FF400510248FCF7CFFBB4
:105660001CBD0000000402407CB5064600244FF437
:105670008040009000208DF804008DF807006946F6
:105680001548FCF76BFB00251BE04FF40051124856
:10569000FCF7B5FB022007F0C3FD4FF400510E48A4
:1056A000FCF7AFFB6006040E4FF480410A48FCF79C
:1056B0009DFB08B1601CC4B2012007F0B1FD681C5D
:1056C000C5B2082DE1DB16B9FFF7A2FF01E0FFF735
:1056D0004FFF20467CBD0000000402407CB504461C
:1056E0004FF48040009001208DF8040002208DF8D6
:1056F000050069461948FCF731FB4FF40051174883
:10570000FCF77DFB002525E0E00904D14FF4804142
:105710001248FCF774FB0120B0EBD41F03D18103C6
:105720000E48FCF76EFB6006040E022007F078FDC1
:105730004FF400510948FCF764FB022007F070FDAC
:105740004FF400510548FCF75AFB022007F068FDB2
:10575000681CC5B2082DD7DB7CBD000000040240E8
:105760001CB54FF48040009001208DF80400022009
:105770008DF8050069460F48FCF7F0FA4FF48041B8
:105780000C48FCF73EFB4FF400510A48FCF739FB8C
:10579000032007F045FD4FF480410648FCF72FFB3E
:1057A000032007F03DFD4FF400510248FCF727FBB2
:1057B0001CBD0000000402401CB54FF48040009066
:1057C00001208DF8040002208DF8050069460F487D
:1057D000FCF7C4FA4FF400510C48FCF710FB4FF4EF
:1057E00080410A48FCF70BFB032007F019FD4FF43A
:1057F00000510648FCF705FB4FF480410348FCF7D5
:1058000000FB032007F00CFD1CBD0000000402405B
:105810001CB500244FF48040009000208DF8040057
:105820008DF8070069461548FCF798FA4FF4804157
:105830001248FCF7E6FA012007F0F2FC4FF40051A1
:105840000E48FCF7DEFA012007F0EAFC07E0601CD6
:10585000C4B2FA2C03DDFFF7AFFF01201CBD4FF4EB
:1058600080410648FCF7C2FA0028F0D14FF40051FD
:105870000248FCF7C4FA0020F0E7000000040240F0
:105880004CF6CC40014908607047000000300040F1
:1058900000B500F013F800BD00B503460A4645F216
:1058A000555000F01FF8184600F010F8104600F0B0
:1058B00013F800F003F8FFF7E3FF00BD4AF6AA2053
:1058C000014908607047000000300040014948600D
:1058D00070470000003000400149886070470000B8
:1058E000003000400149086070470000003000406F
:1058F00000B59BB00121744802F0CEF901214FF4AC
:10590000E06002F0E9F94FF0806002906F48039088
:105910006F48049000200590012006900020079019
:1059200008904FF40060099080000A9040110B909D
:1059300040020C9000200D9001200E9000200F904E
:10594000109002A96348FBF7E5FF01216148FBF7CE
:10595000D5FF00200290604803906048049000202A
:105960000590012006900020079008904FF40060F9
:10597000099080000A9040110B9040020C9000208A
:105980000D9001200E9000200F90109002A9514818
:105990001838FBF7BFFF01214E481838FBF7AEFF60
:1059A0004FF0007002904E4803904E480490002043
:1059B0000590012006900020079008904FF40060A9
:1059C000099080000A9040110B9040020C9000203A
:1059D0000D9001200E9000200F90109002A93D48DC
:1059E0001830FBF797FF01213A481830FBF786FF84
:1059F0000F20009003208DF8040000208DF8070090
:105A000069463948FCF7AAF99220009003208DF8E6
:105A1000040000208DF8070069463448FCF79EF921
:105A20000020119012901390149011A8FBF74AFCDB
:105A3000002015908DF8580001208DF859000020A5
:105A40001790199001208DF8680015A91F484C384F
:105A5000FBF76AFC15A922484C38FBF765FC15A931
:105A60001D484C38FBF760FC012118484C38FBF707
:105A700050FC01211A484C38FBF74BFC0121164819
:105A80004C38FBF746FC012110484C38FBF736FC3C
:105A9000012113484C38FBF731FC01210E484C38EA
:105AA000FBF72CFC012109484C38FBF7FFFB0121D7
:105AB0000B484C38FBF7FAFB012107484C38FBF741
:105AC000F5FB1BB000BD0000050040004C2201406A
:105AD00000000020286402404C2001400200002009
